{
  "address": "0xf7F64AC1d78d485EfA16c0e4957813eCF2993dcF",
  "abi": [
    {
      "anonymous": false,
      "inputs": [
        {
          "indexed": true,
          "internalType": "address",
          "name": "owner",
          "type": "address"
        },
        {
          "indexed": true,
          "internalType": "address",
          "name": "approved",
          "type": "address"
        },
        {
          "indexed": true,
          "internalType": "uint256",
          "name": "tokenId",
          "type": "uint256"
        }
      ],
      "name": "Approval",
      "type": "event"
    },
    {
      "anonymous": false,
      "inputs": [
        {
          "indexed": true,
          "internalType": "address",
          "name": "owner",
          "type": "address"
        },
        {
          "indexed": true,
          "internalType": "address",
          "name": "operator",
          "type": "address"
        },
        {
          "indexed": false,
          "internalType": "bool",
          "name": "approved",
          "type": "bool"
        }
      ],
      "name": "ApprovalForAll",
      "type": "event"
    },
    {
      "anonymous": false,
      "inputs": [
        {
          "indexed": true,
          "internalType": "address",
          "name": "previousOwner",
          "type": "address"
        },
        {
          "indexed": true,
          "internalType": "address",
          "name": "newOwner",
          "type": "address"
        }
      ],
      "name": "OwnershipTransferred",
      "type": "event"
    },
    {
      "anonymous": false,
      "inputs": [
        {
          "indexed": true,
          "internalType": "address",
          "name": "from",
          "type": "address"
        },
        {
          "indexed": true,
          "internalType": "address",
          "name": "to",
          "type": "address"
        },
        {
          "indexed": true,
          "internalType": "uint256",
          "name": "tokenId",
          "type": "uint256"
        }
      ],
      "name": "Transfer",
      "type": "event"
    },
    {
      "inputs": [],
      "name": "MAX_MINT_PER_TX",
      "outputs": [
        {
          "internalType": "uint256",
          "name": "",
          "type": "uint256"
        }
      ],
      "stateMutability": "view",
      "type": "function"
    },
    {
      "inputs": [],
      "name": "MAX_TOKENS",
      "outputs": [
        {
          "internalType": "uint256",
          "name": "",
          "type": "uint256"
        }
      ],
      "stateMutability": "view",
      "type": "function"
    },
    {
      "inputs": [
        {
          "internalType": "address",
          "name": "to",
          "type": "address"
        },
        {
          "internalType": "uint256",
          "name": "tokenId",
          "type": "uint256"
        }
      ],
      "name": "approve",
      "outputs": [],
      "stateMutability": "nonpayable",
      "type": "function"
    },
    {
      "inputs": [
        {
          "internalType": "address",
          "name": "owner",
          "type": "address"
        }
      ],
      "name": "balanceOf",
      "outputs": [
        {
          "internalType": "uint256",
          "name": "",
          "type": "uint256"
        }
      ],
      "stateMutability": "view",
      "type": "function"
    },
    {
      "inputs": [],
      "name": "baseUri",
      "outputs": [
        {
          "internalType": "string",
          "name": "",
          "type": "string"
        }
      ],
      "stateMutability": "view",
      "type": "function"
    },
    {
      "inputs": [],
      "name": "erro",
      "outputs": [
        {
          "internalType": "bool",
          "name": "",
          "type": "bool"
        }
      ],
      "stateMutability": "view",
      "type": "function"
    },
    {
      "inputs": [],
      "name": "flipSaleState",
      "outputs": [],
      "stateMutability": "nonpayable",
      "type": "function"
    },
    {
      "inputs": [
        {
          "internalType": "uint256",
          "name": "tokenId",
          "type": "uint256"
        }
      ],
      "name": "getApproved",
      "outputs": [
        {
          "internalType": "address",
          "name": "",
          "type": "address"
        }
      ],
      "stateMutability": "view",
      "type": "function"
    },
    {
      "inputs": [],
      "name": "getTotalSupply",
      "outputs": [
        {
          "internalType": "uint256",
          "name": "",
          "type": "uint256"
        }
      ],
      "stateMutability": "view",
      "type": "function"
    },
    {
      "inputs": [],
      "name": "getVerifiedstatus",
      "outputs": [
        {
          "internalType": "bool",
          "name": "",
          "type": "bool"
        }
      ],
      "stateMutability": "view",
      "type": "function"
    },
    {
      "inputs": [],
      "name": "getchk",
      "outputs": [
        {
          "internalType": "uint256",
          "name": "",
          "type": "uint256"
        }
      ],
      "stateMutability": "view",
      "type": "function"
    },
    {
      "inputs": [
        {
          "internalType": "address",
          "name": "owner",
          "type": "address"
        },
        {
          "internalType": "address",
          "name": "operator",
          "type": "address"
        }
      ],
      "name": "isApprovedForAll",
      "outputs": [
        {
          "internalType": "bool",
          "name": "",
          "type": "bool"
        }
      ],
      "stateMutability": "view",
      "type": "function"
    },
    {
      "inputs": [],
      "name": "isSaleActive",
      "outputs": [
        {
          "internalType": "bool",
          "name": "",
          "type": "bool"
        }
      ],
      "stateMutability": "view",
      "type": "function"
    },
    {
      "inputs": [
        {
          "internalType": "uint256",
          "name": "_numTokens",
          "type": "uint256"
        }
      ],
      "name": "mint",
      "outputs": [],
      "stateMutability": "payable",
      "type": "function"
    },
    {
      "inputs": [],
      "name": "name",
      "outputs": [
        {
          "internalType": "string",
          "name": "",
          "type": "string"
        }
      ],
      "stateMutability": "view",
      "type": "function"
    },
    {
      "inputs": [],
      "name": "owner",
      "outputs": [
        {
          "internalType": "address",
          "name": "",
          "type": "address"
        }
      ],
      "stateMutability": "view",
      "type": "function"
    },
    {
      "inputs": [
        {
          "internalType": "uint256",
          "name": "tokenId",
          "type": "uint256"
        }
      ],
      "name": "ownerOf",
      "outputs": [
        {
          "internalType": "address",
          "name": "",
          "type": "address"
        }
      ],
      "stateMutability": "view",
      "type": "function"
    },
    {
      "inputs": [],
      "name": "price",
      "outputs": [
        {
          "internalType": "uint256",
          "name": "",
          "type": "uint256"
        }
      ],
      "stateMutability": "view",
      "type": "function"
    },
    {
      "inputs": [],
      "name": "renounceOwnership",
      "outputs": [],
      "stateMutability": "nonpayable",
      "type": "function"
    },
    {
      "inputs": [
        {
          "internalType": "address",
          "name": "from",
          "type": "address"
        },
        {
          "internalType": "address",
          "name": "to",
          "type": "address"
        },
        {
          "internalType": "uint256",
          "name": "tokenId",
          "type": "uint256"
        }
      ],
      "name": "safeTransferFrom",
      "outputs": [],
      "stateMutability": "nonpayable",
      "type": "function"
    },
    {
      "inputs": [
        {
          "internalType": "address",
          "name": "from",
          "type": "address"
        },
        {
          "internalType": "address",
          "name": "to",
          "type": "address"
        },
        {
          "internalType": "uint256",
          "name": "tokenId",
          "type": "uint256"
        },
        {
          "internalType": "bytes",
          "name": "data",
          "type": "bytes"
        }
      ],
      "name": "safeTransferFrom",
      "outputs": [],
      "stateMutability": "nonpayable",
      "type": "function"
    },
    {
      "inputs": [
        {
          "internalType": "address",
          "name": "operator",
          "type": "address"
        },
        {
          "internalType": "bool",
          "name": "approved",
          "type": "bool"
        }
      ],
      "name": "setApprovalForAll",
      "outputs": [],
      "stateMutability": "nonpayable",
      "type": "function"
    },
    {
      "inputs": [
        {
          "internalType": "string",
          "name": "_baseUri",
          "type": "string"
        }
      ],
      "name": "setBaseUri",
      "outputs": [],
      "stateMutability": "nonpayable",
      "type": "function"
    },
    {
      "inputs": [
        {
          "internalType": "uint256",
          "name": "_price",
          "type": "uint256"
        }
      ],
      "name": "setPrice",
      "outputs": [],
      "stateMutability": "nonpayable",
      "type": "function"
    },
    {
      "inputs": [
        {
          "internalType": "bytes4",
          "name": "interfaceId",
          "type": "bytes4"
        }
      ],
      "name": "supportsInterface",
      "outputs": [
        {
          "internalType": "bool",
          "name": "",
          "type": "bool"
        }
      ],
      "stateMutability": "view",
      "type": "function"
    },
    {
      "inputs": [],
      "name": "symbol",
      "outputs": [
        {
          "internalType": "string",
          "name": "",
          "type": "string"
        }
      ],
      "stateMutability": "view",
      "type": "function"
    },
    {
      "inputs": [
        {
          "internalType": "uint256",
          "name": "tokenId",
          "type": "uint256"
        }
      ],
      "name": "tokenURI",
      "outputs": [
        {
          "internalType": "string",
          "name": "",
          "type": "string"
        }
      ],
      "stateMutability": "view",
      "type": "function"
    },
    {
      "inputs": [],
      "name": "totalSupply",
      "outputs": [
        {
          "internalType": "uint256",
          "name": "",
          "type": "uint256"
        }
      ],
      "stateMutability": "view",
      "type": "function"
    },
    {
      "inputs": [
        {
          "internalType": "address",
          "name": "from",
          "type": "address"
        },
        {
          "internalType": "address",
          "name": "to",
          "type": "address"
        },
        {
          "internalType": "uint256",
          "name": "tokenId",
          "type": "uint256"
        }
      ],
      "name": "transferFrom",
      "outputs": [],
      "stateMutability": "nonpayable",
      "type": "function"
    },
    {
      "inputs": [
        {
          "internalType": "address",
          "name": "newOwner",
          "type": "address"
        }
      ],
      "name": "transferOwnership",
      "outputs": [],
      "stateMutability": "nonpayable",
      "type": "function"
    }
  ],
  "transactionHash": "0x93b8427ee3c9fecdc0181937d3827568a78760360553afeb474f7f8fe080f524",
  "args": [],
  "numDeployments": 1,
  "solcInputHash": "e9d2f7cae95c967974043ad0d3994a56",
  "bytecode": "0x608060405267016345785d8a00006007556001600960006101000a81548160ff0219169083151502179055503480156200003857600080fd5b506040518060400160405280600681526020017f442d4155544800000000000000000000000000000000000000000000000000008152506040518060400160405280600381526020017f44415500000000000000000000000000000000000000000000000000000000008152508160009080519060200190620000bd9291906200020f565b508060019080519060200190620000d69291906200020f565b505050620000f9620000ed6200014160201b60201c565b6200014960201b60201c565b604051806080016040528060558152602001620037c360559139600c90805190602001906200012a9291906200020f565b506001600a819055506001600d8190555062000324565b600033905090565b6000600660009054906101000a900473ffffffffffffffffffffffffffffffffffffffff16905081600660006101000a81548173ffffffffffffffffffffffffffffffffffffffff021916908373ffffffffffffffffffffffffffffffffffffffff1602179055508173ffffffffffffffffffffffffffffffffffffffff168173ffffffffffffffffffffffffffffffffffffffff167f8be0079c531659141344cd1fd0a4f28419497f9722a3daafe3b4186f6b6457e060405160405180910390a35050565b8280546200021d90620002ee565b90600052602060002090601f0160209004810192826200024157600085556200028d565b82601f106200025c57805160ff19168380011785556200028d565b828001600101855582156200028d579182015b828111156200028c5782518255916020019190600101906200026f565b5b5090506200029c9190620002a0565b5090565b5b80821115620002bb576000816000905550600101620002a1565b5090565b7f4e487b7100000000000000000000000000000000000000000000000000000000600052602260045260246000fd5b600060028204905060018216806200030757607f821691505b602082108114156200031e576200031d620002bf565b5b50919050565b61348f80620003346000396000f3fe6080604052600436106101cd5760003560e01c806391b7f5ed116100f7578063b88d4fde11610095578063d1afeb0211610064578063d1afeb0214610645578063e985e9c514610670578063f2fde38b146106ad578063f47c84c5146106d6576101cd565b8063b88d4fde14610589578063c4e41b22146105b2578063c7f78feb146105dd578063c87b56dd14610608576101cd565b8063a035b1fe116100d1578063a035b1fe146104f0578063a0712d681461051b578063a0bcfc7f14610537578063a22cb46514610560576101cd565b806391b7f5ed1461047157806395d89b411461049a5780639abc8320146104c5576101cd565b806342842e0e1161016f57806370a082311161013e57806370a08231146103c7578063715018a6146104045780638da5cb5b1461041b5780638ecad72114610446576101cd565b806342842e0e1461030b578063564566a8146103345780636352211e1461035f5780636e9ea4bb1461039c576101cd565b8063095ea7b3116101ab578063095ea7b31461027757806318160ddd146102a057806323b872dd146102cb57806334918dfd146102f4576101cd565b806301ffc9a7146101d257806306fdde031461020f578063081812fc1461023a575b600080fd5b3480156101de57600080fd5b506101f960048036038101906101f491906121c4565b610701565b604051610206919061220c565b60405180910390f35b34801561021b57600080fd5b506102246107e3565b60405161023191906122c0565b60405180910390f35b34801561024657600080fd5b50610261600480360381019061025c9190612318565b610875565b60405161026e9190612386565b60405180910390f35b34801561028357600080fd5b5061029e600480360381019061029991906123cd565b6108bb565b005b3480156102ac57600080fd5b506102b56109d3565b6040516102c2919061241c565b60405180910390f35b3480156102d757600080fd5b506102f260048036038101906102ed9190612437565b6109d9565b005b34801561030057600080fd5b50610309610a39565b005b34801561031757600080fd5b50610332600480360381019061032d9190612437565b610a6d565b005b34801561034057600080fd5b50610349610a8d565b604051610356919061220c565b60405180910390f35b34801561036b57600080fd5b5061038660048036038101906103819190612318565b610aa0565b6040516103939190612386565b60405180910390f35b3480156103a857600080fd5b506103b1610b52565b6040516103be919061220c565b60405180910390f35b3480156103d357600080fd5b506103ee60048036038101906103e9919061248a565b610ba6565b6040516103fb919061241c565b60405180910390f35b34801561041057600080fd5b50610419610c5e565b005b34801561042757600080fd5b50610430610c72565b60405161043d9190612386565b60405180910390f35b34801561045257600080fd5b5061045b610c9c565b604051610468919061241c565b60405180910390f35b34801561047d57600080fd5b5061049860048036038101906104939190612318565b610ca1565b005b3480156104a657600080fd5b506104af610cb3565b6040516104bc91906122c0565b60405180910390f35b3480156104d157600080fd5b506104da610d45565b6040516104e791906122c0565b60405180910390f35b3480156104fc57600080fd5b50610505610dd3565b604051610512919061241c565b60405180910390f35b61053560048036038101906105309190612318565b610dd9565b005b34801561054357600080fd5b5061055e600480360381019061055991906125ec565b6110b3565b005b34801561056c57600080fd5b5061058760048036038101906105829190612661565b6110d5565b005b34801561059557600080fd5b506105b060048036038101906105ab9190612742565b6110eb565b005b3480156105be57600080fd5b506105c761114d565b6040516105d4919061241c565b60405180910390f35b3480156105e957600080fd5b506105f2611157565b6040516105ff919061241c565b60405180910390f35b34801561061457600080fd5b5061062f600480360381019061062a9190612318565b611161565b60405161063c91906122c0565b60405180910390f35b34801561065157600080fd5b5061065a6111c9565b604051610667919061220c565b60405180910390f35b34801561067c57600080fd5b50610697600480360381019061069291906127c5565b61121d565b6040516106a4919061220c565b60405180910390f35b3480156106b957600080fd5b506106d460048036038101906106cf919061248a565b6112b1565b005b3480156106e257600080fd5b506106eb611335565b6040516106f8919061241c565b60405180910390f35b60007f80ac58cd000000000000000000000000000000000000000000000000000000007bffffffffffffffffffffffffffffffffffffffffffffffffffffffff1916827bffffffffffffffffffffffffffffffffffffffffffffffffffffffff191614806107cc57507f5b5e139f000000000000000000000000000000000000000000000000000000007bffffffffffffffffffffffffffffffffffffffffffffffffffffffff1916827bffffffffffffffffffffffffffffffffffffffffffffffffffffffff1916145b806107dc57506107db8261133b565b5b9050919050565b6060600080546107f290612834565b80601f016020809104026020016040519081016040528092919081815260200182805461081e90612834565b801561086b5780601f106108405761010080835404028352916020019161086b565b820191906000526020600020905b81548152906001019060200180831161084e57829003601f168201915b5050505050905090565b6000610880826113a5565b6004600083815260200190815260200160002060009054906101000a900473ffffffffffffffffffffffffffffffffffffffff169050919050565b60006108c682610aa0565b90508073ffffffffffffffffffffffffffffffffffffffff168373ffffffffffffffffffffffffffffffffffffffff161415610937576040517f08c379a000000000000000000000000000000000000000000000000000000000815260040161092e906128d8565b60405180910390fd5b8073ffffffffffffffffffffffffffffffffffffffff166109566113f0565b73ffffffffffffffffffffffffffffffffffffffff16148061098557506109848161097f6113f0565b61121d565b5b6109c4576040517f08c379a00000000000000000000000000000000000000000000000000000000081526004016109bb9061296a565b60405180910390fd5b6109ce83836113f8565b505050565b600a5481565b6109ea6109e46113f0565b826114b1565b610a29576040517f08c379a0000000000000000000000000000000000000000000000000000000008152600401610a20906129fc565b60405180910390fd5b610a34838383611546565b505050565b610a416117ad565b600960009054906101000a900460ff1615600960006101000a81548160ff021916908315150217905550565b610a88838383604051806020016040528060008152506110eb565b505050565b600960009054906101000a900460ff1681565b6000806002600084815260200190815260200160002060009054906101000a900473ffffffffffffffffffffffffffffffffffffffff169050600073ffffffffffffffffffffffffffffffffffffffff168173ffffffffffffffffffffffffffffffffffffffff161415610b49576040517f08c379a0000000000000000000000000000000000000000000000000000000008152600401610b4090612a68565b60405180910390fd5b80915050919050565b6000600860003373ffffffffffffffffffffffffffffffffffffffff1673ffffffffffffffffffffffffffffffffffffffff16815260200190815260200160002060009054906101000a900460ff16905090565b60008073ffffffffffffffffffffffffffffffffffffffff168273ffffffffffffffffffffffffffffffffffffffff161415610c17576040517f08c379a0000000000000000000000000000000000000000000000000000000008152600401610c0e90612afa565b60405180910390fd5b600360008373ffffffffffffffffffffffffffffffffffffffff1673ffffffffffffffffffffffffffffffffffffffff168152602001908152602001600020549050919050565b610c666117ad565b610c70600061182b565b565b6000600660009054906101000a900473ffffffffffffffffffffffffffffffffffffffff16905090565b600181565b610ca96117ad565b8060078190555050565b606060018054610cc290612834565b80601f0160208091040260200160405190810160405280929190818152602001828054610cee90612834565b8015610d3b5780601f10610d1057610100808354040283529160200191610d3b565b820191906000526020600020905b815481529060010190602001808311610d1e57829003601f168201915b5050505050905090565b600c8054610d5290612834565b80601f0160208091040260200160405190810160405280929190818152602001828054610d7e90612834565b8015610dcb5780601f10610da057610100808354040283529160200191610dcb565b820191906000526020600020905b815481529060010190602001808311610dae57829003601f168201915b505050505081565b60075481565b600860003373ffffffffffffffffffffffffffffffffffffffff1673ffffffffffffffffffffffffffffffffffffffff16815260200190815260200160002060009054906101000a900460ff1615610e66576040517f08c379a0000000000000000000000000000000000000000000000000000000008152600401610e5d90612b66565b60405180910390fd5b600960009054906101000a900460ff16610eb5576040517f08c379a0000000000000000000000000000000000000000000000000000000008152600401610eac90612bd2565b60405180910390fd5b6001811115610ef9576040517f08c379a0000000000000000000000000000000000000000000000000000000008152600401610ef090612c64565b60405180910390fd5b600181600b60003373ffffffffffffffffffffffffffffffffffffffff1673ffffffffffffffffffffffffffffffffffffffff16815260200190815260200160002054610f469190612cb3565b1115610f87576040517f08c379a0000000000000000000000000000000000000000000000000000000008152600401610f7e90612d55565b60405180910390fd5b6000600a5490506127108282610f9d9190612cb3565b1115610fde576040517f08c379a0000000000000000000000000000000000000000000000000000000008152600401610fd590612dc1565b60405180910390fd5b610fe833826118f1565b81600b60003373ffffffffffffffffffffffffffffffffffffffff1673ffffffffffffffffffffffffffffffffffffffff16815260200190815260200160002060008282546110379190612cb3565b9250508190555081600a60008282546110509190612cb3565b925050819055506001600860003373ffffffffffffffffffffffffffffffffffffffff1673ffffffffffffffffffffffffffffffffffffffff16815260200190815260200160002060006101000a81548160ff0219169083151502179055505050565b6110bb6117ad565b80600c90805190602001906110d19291906120b5565b5050565b6110e76110e06113f0565b838361190f565b5050565b6110fc6110f66113f0565b836114b1565b61113b576040517f08c379a0000000000000000000000000000000000000000000000000000000008152600401611132906129fc565b60405180910390fd5b61114784848484611a7c565b50505050565b6000600a54905090565b6000600d54905090565b606061116c826113a5565b6000611176611ad8565b9050600081511161119657604051806020016040528060008152506111c1565b806111a084611aef565b6040516020016111b1929190612e1d565b6040516020818303038152906040525b915050919050565b6000600860003373ffffffffffffffffffffffffffffffffffffffff1673ffffffffffffffffffffffffffffffffffffffff16815260200190815260200160002060009054906101000a900460ff16905090565b6000600560008473ffffffffffffffffffffffffffffffffffffffff1673ffffffffffffffffffffffffffffffffffffffff16815260200190815260200160002060008373ffffffffffffffffffffffffffffffffffffffff1673ffffffffffffffffffffffffffffffffffffffff16815260200190815260200160002060009054906101000a900460ff16905092915050565b6112b96117ad565b600073ffffffffffffffffffffffffffffffffffffffff168173ffffffffffffffffffffffffffffffffffffffff161415611329576040517f08c379a000000000000000000000000000000000000000000000000000000000815260040161132090612eb3565b60405180910390fd5b6113328161182b565b50565b61271081565b60007f01ffc9a7000000000000000000000000000000000000000000000000000000007bffffffffffffffffffffffffffffffffffffffffffffffffffffffff1916827bffffffffffffffffffffffffffffffffffffffffffffffffffffffff1916149050919050565b6113ae81611c50565b6113ed576040517f08c379a00000000000000000000000000000000000000000000000000000000081526004016113e490612a68565b60405180910390fd5b50565b600033905090565b816004600083815260200190815260200160002060006101000a81548173ffffffffffffffffffffffffffffffffffffffff021916908373ffffffffffffffffffffffffffffffffffffffff160217905550808273ffffffffffffffffffffffffffffffffffffffff1661146b83610aa0565b73ffffffffffffffffffffffffffffffffffffffff167f8c5be1e5ebec7d5bd14f71427d1e84f3dd0314c0f7b2291e5b200ac8c7c3b92560405160405180910390a45050565b6000806114bd83610aa0565b90508073ffffffffffffffffffffffffffffffffffffffff168473ffffffffffffffffffffffffffffffffffffffff1614806114ff57506114fe818561121d565b5b8061153d57508373ffffffffffffffffffffffffffffffffffffffff1661152584610875565b73ffffffffffffffffffffffffffffffffffffffff16145b91505092915050565b8273ffffffffffffffffffffffffffffffffffffffff1661156682610aa0565b73ffffffffffffffffffffffffffffffffffffffff16146115bc576040517f08c379a00000000000000000000000000000000000000000000000000000000081526004016115b390612f45565b60405180910390fd5b600073ffffffffffffffffffffffffffffffffffffffff168273ffffffffffffffffffffffffffffffffffffffff16141561162c576040517f08c379a000000000000000000000000000000000000000000000000000000000815260040161162390612fd7565b60405180910390fd5b611637838383611cbc565b6116426000826113f8565b6001600360008573ffffffffffffffffffffffffffffffffffffffff1673ffffffffffffffffffffffffffffffffffffffff16815260200190815260200160002060008282546116929190612ff7565b925050819055506001600360008473ffffffffffffffffffffffffffffffffffffffff1673ffffffffffffffffffffffffffffffffffffffff16815260200190815260200160002060008282546116e99190612cb3565b92505081905550816002600083815260200190815260200160002060006101000a81548173ffffffffffffffffffffffffffffffffffffffff021916908373ffffffffffffffffffffffffffffffffffffffff160217905550808273ffffffffffffffffffffffffffffffffffffffff168473ffffffffffffffffffffffffffffffffffffffff167fddf252ad1be2c89b69c2b068fc378daa952ba7f163c4a11628f55a4df523b3ef60405160405180910390a46117a8838383611cc1565b505050565b6117b56113f0565b73ffffffffffffffffffffffffffffffffffffffff166117d3610c72565b73ffffffffffffffffffffffffffffffffffffffff1614611829576040517f08c379a000000000000000000000000000000000000000000000000000000000815260040161182090613077565b60405180910390fd5b565b6000600660009054906101000a900473ffffffffffffffffffffffffffffffffffffffff16905081600660006101000a81548173ffffffffffffffffffffffffffffffffffffffff021916908373ffffffffffffffffffffffffffffffffffffffff1602179055508173ffffffffffffffffffffffffffffffffffffffff168173ffffffffffffffffffffffffffffffffffffffff167f8be0079c531659141344cd1fd0a4f28419497f9722a3daafe3b4186f6b6457e060405160405180910390a35050565b61190b828260405180602001604052806000815250611cc6565b5050565b8173ffffffffffffffffffffffffffffffffffffffff168373ffffffffffffffffffffffffffffffffffffffff16141561197e576040517f08c379a0000000000000000000000000000000000000000000000000000000008152600401611975906130e3565b60405180910390fd5b80600560008573ffffffffffffffffffffffffffffffffffffffff1673ffffffffffffffffffffffffffffffffffffffff16815260200190815260200160002060008473ffffffffffffffffffffffffffffffffffffffff1673ffffffffffffffffffffffffffffffffffffffff16815260200190815260200160002060006101000a81548160ff0219169083151502179055508173ffffffffffffffffffffffffffffffffffffffff168373ffffffffffffffffffffffffffffffffffffffff167f17307eab39ab6107e8899845ad3d59bd9653f200f220920489ca2b5937696c3183604051611a6f919061220c565b60405180910390a3505050565b611a87848484611546565b611a9384848484611d21565b611ad2576040517f08c379a0000000000000000000000000000000000000000000000000000000008152600401611ac990613175565b60405180910390fd5b50505050565b606060405180602001604052806000815250905090565b60606000821415611b37576040518060400160405280600181526020017f30000000000000000000000000000000000000000000000000000000000000008152509050611c4b565b600082905060005b60008214611b69578080611b5290613195565b915050600a82611b62919061320d565b9150611b3f565b60008167ffffffffffffffff811115611b8557611b846124c1565b5b6040519080825280601f01601f191660200182016040528015611bb75781602001600182028036833780820191505090505b5090505b60008514611c4457600182611bd09190612ff7565b9150600a85611bdf919061323e565b6030611beb9190612cb3565b60f81b818381518110611c0157611c0061326f565b5b60200101907effffffffffffffffffffffffffffffffffffffffffffffffffffffffffffff1916908160001a905350600a85611c3d919061320d565b9450611bbb565b8093505050505b919050565b60008073ffffffffffffffffffffffffffffffffffffffff166002600084815260200190815260200160002060009054906101000a900473ffffffffffffffffffffffffffffffffffffffff1673ffffffffffffffffffffffffffffffffffffffff1614159050919050565b505050565b505050565b611cd08383611eb8565b611cdd6000848484611d21565b611d1c576040517f08c379a0000000000000000000000000000000000000000000000000000000008152600401611d1390613175565b60405180910390fd5b505050565b6000611d428473ffffffffffffffffffffffffffffffffffffffff16612092565b15611eab578373ffffffffffffffffffffffffffffffffffffffff1663150b7a02611d6b6113f0565b8786866040518563ffffffff1660e01b8152600401611d8d94939291906132f3565b602060405180830381600087803b158015611da757600080fd5b505af1925050508015611dd857506040513d601f19601f82011682018060405250810190611dd59190613354565b60015b611e5b573d8060008114611e08576040519150601f19603f3d011682016040523d82523d6000602084013e611e0d565b606091505b50600081511415611e53576040517f08c379a0000000000000000000000000000000000000000000000000000000008152600401611e4a90613175565b60405180910390fd5b805181602001fd5b63150b7a0260e01b7bffffffffffffffffffffffffffffffffffffffffffffffffffffffff1916817bffffffffffffffffffffffffffffffffffffffffffffffffffffffff191614915050611eb0565b600190505b949350505050565b600073ffffffffffffffffffffffffffffffffffffffff168273ffffffffffffffffffffffffffffffffffffffff161415611f28576040517f08c379a0000000000000000000000000000000000000000000000000000000008152600401611f1f906133cd565b60405180910390fd5b611f3181611c50565b15611f71576040517f08c379a0000000000000000000000000000000000000000000000000000000008152600401611f6890613439565b60405180910390fd5b611f7d60008383611cbc565b6001600360008473ffffffffffffffffffffffffffffffffffffffff1673ffffffffffffffffffffffffffffffffffffffff1681526020019081526020016000206000828254611fcd9190612cb3565b92505081905550816002600083815260200190815260200160002060006101000a81548173ffffffffffffffffffffffffffffffffffffffff021916908373ffffffffffffffffffffffffffffffffffffffff160217905550808273ffffffffffffffffffffffffffffffffffffffff16600073ffffffffffffffffffffffffffffffffffffffff167fddf252ad1be2c89b69c2b068fc378daa952ba7f163c4a11628f55a4df523b3ef60405160405180910390a461208e60008383611cc1565b5050565b6000808273ffffffffffffffffffffffffffffffffffffffff163b119050919050565b8280546120c190612834565b90600052602060002090601f0160209004810192826120e3576000855561212a565b82601f106120fc57805160ff191683800117855561212a565b8280016001018555821561212a579182015b8281111561212957825182559160200191906001019061210e565b5b509050612137919061213b565b5090565b5b8082111561215457600081600090555060010161213c565b5090565b6000604051905090565b600080fd5b600080fd5b60007fffffffff0000000000000000000000000000000000000000000000000000000082169050919050565b6121a18161216c565b81146121ac57600080fd5b50565b6000813590506121be81612198565b92915050565b6000602082840312156121da576121d9612162565b5b60006121e8848285016121af565b91505092915050565b60008115159050919050565b612206816121f1565b82525050565b600060208201905061222160008301846121fd565b92915050565b600081519050919050565b600082825260208201905092915050565b60005b83811015612261578082015181840152602081019050612246565b83811115612270576000848401525b50505050565b6000601f19601f8301169050919050565b600061229282612227565b61229c8185612232565b93506122ac818560208601612243565b6122b581612276565b840191505092915050565b600060208201905081810360008301526122da8184612287565b905092915050565b6000819050919050565b6122f5816122e2565b811461230057600080fd5b50565b600081359050612312816122ec565b92915050565b60006020828403121561232e5761232d612162565b5b600061233c84828501612303565b91505092915050565b600073ffffffffffffffffffffffffffffffffffffffff82169050919050565b600061237082612345565b9050919050565b61238081612365565b82525050565b600060208201905061239b6000830184612377565b92915050565b6123aa81612365565b81146123b557600080fd5b50565b6000813590506123c7816123a1565b92915050565b600080604083850312156123e4576123e3612162565b5b60006123f2858286016123b8565b925050602061240385828601612303565b9150509250929050565b612416816122e2565b82525050565b6000602082019050612431600083018461240d565b92915050565b6000806000606084860312156124505761244f612162565b5b600061245e868287016123b8565b935050602061246f868287016123b8565b925050604061248086828701612303565b9150509250925092565b6000602082840312156124a05761249f612162565b5b60006124ae848285016123b8565b91505092915050565b600080fd5b600080fd5b7f4e487b7100000000000000000000000000000000000000000000000000000000600052604160045260246000fd5b6124f982612276565b810181811067ffffffffffffffff82111715612518576125176124c1565b5b80604052505050565b600061252b612158565b905061253782826124f0565b919050565b600067ffffffffffffffff821115612557576125566124c1565b5b61256082612276565b9050602081019050919050565b82818337600083830152505050565b600061258f61258a8461253c565b612521565b9050828152602081018484840111156125ab576125aa6124bc565b5b6125b684828561256d565b509392505050565b600082601f8301126125d3576125d26124b7565b5b81356125e384826020860161257c565b91505092915050565b60006020828403121561260257612601612162565b5b600082013567ffffffffffffffff8111156126205761261f612167565b5b61262c848285016125be565b91505092915050565b61263e816121f1565b811461264957600080fd5b50565b60008135905061265b81612635565b92915050565b6000806040838503121561267857612677612162565b5b6000612686858286016123b8565b92505060206126978582860161264c565b9150509250929050565b600067ffffffffffffffff8211156126bc576126bb6124c1565b5b6126c582612276565b9050602081019050919050565b60006126e56126e0846126a1565b612521565b905082815260208101848484011115612701576127006124bc565b5b61270c84828561256d565b509392505050565b600082601f830112612729576127286124b7565b5b81356127398482602086016126d2565b91505092915050565b6000806000806080858703121561275c5761275b612162565b5b600061276a878288016123b8565b945050602061277b878288016123b8565b935050604061278c87828801612303565b925050606085013567ffffffffffffffff8111156127ad576127ac612167565b5b6127b987828801612714565b91505092959194509250565b600080604083850312156127dc576127db612162565b5b60006127ea858286016123b8565b92505060206127fb858286016123b8565b9150509250929050565b7f4e487b7100000000000000000000000000000000000000000000000000000000600052602260045260246000fd5b6000600282049050600182168061284c57607f821691505b602082108114156128605761285f612805565b5b50919050565b7f4552433732313a20617070726f76616c20746f2063757272656e74206f776e6560008201527f7200000000000000000000000000000000000000000000000000000000000000602082015250565b60006128c2602183612232565b91506128cd82612866565b604082019050919050565b600060208201905081810360008301526128f1816128b5565b9050919050565b7f4552433732313a20617070726f76652063616c6c6572206973206e6f7420746f60008201527f6b656e206f776e6572206e6f7220617070726f76656420666f7220616c6c0000602082015250565b6000612954603e83612232565b915061295f826128f8565b604082019050919050565b6000602082019050818103600083015261298381612947565b9050919050565b7f4552433732313a2063616c6c6572206973206e6f7420746f6b656e206f776e6560008201527f72206e6f7220617070726f766564000000000000000000000000000000000000602082015250565b60006129e6602e83612232565b91506129f18261298a565b604082019050919050565b60006020820190508181036000830152612a15816129d9565b9050919050565b7f4552433732313a20696e76616c696420746f6b656e2049440000000000000000600082015250565b6000612a52601883612232565b9150612a5d82612a1c565b602082019050919050565b60006020820190508181036000830152612a8181612a45565b9050919050565b7f4552433732313a2061646472657373207a65726f206973206e6f74206120766160008201527f6c6964206f776e65720000000000000000000000000000000000000000000000602082015250565b6000612ae4602983612232565b9150612aef82612a88565b604082019050919050565b60006020820190508181036000830152612b1381612ad7565b9050919050565b7f416c726561647920766572696669656400000000000000000000000000000000600082015250565b6000612b50601083612232565b9150612b5b82612b1a565b602082019050919050565b60006020820190508181036000830152612b7f81612b43565b9050919050565b7f5468652073616c65206973207061757365642e00000000000000000000000000600082015250565b6000612bbc601383612232565b9150612bc782612b86565b602082019050919050565b60006020820190508181036000830152612beb81612baf565b9050919050565b7f596f752063616e6e6f74206d696e742074686174206d616e7920696e206f6e6560008201527f207472616e73616374696f6e2e00000000000000000000000000000000000000602082015250565b6000612c4e602d83612232565b9150612c5982612bf2565b604082019050919050565b60006020820190508181036000830152612c7d81612c41565b9050919050565b7f4e487b7100000000000000000000000000000000000000000000000000000000600052601160045260246000fd5b6000612cbe826122e2565b9150612cc9836122e2565b9250827fffffffffffffffffffffffffffffffffffffffffffffffffffffffffffffffff03821115612cfe57612cfd612c84565b5b828201905092915050565b7f596f752063616e6e6f74206d696e742074686174206d616e7920746f74616c2e600082015250565b6000612d3f602083612232565b9150612d4a82612d09565b602082019050919050565b60006020820190508181036000830152612d6e81612d32565b9050919050565b7f4578636565647320746f74616c20737570706c792e0000000000000000000000600082015250565b6000612dab601583612232565b9150612db682612d75565b602082019050919050565b60006020820190508181036000830152612dda81612d9e565b9050919050565b600081905092915050565b6000612df782612227565b612e018185612de1565b9350612e11818560208601612243565b80840191505092915050565b6000612e298285612dec565b9150612e358284612dec565b91508190509392505050565b7f4f776e61626c653a206e6577206f776e657220697320746865207a65726f206160008201527f6464726573730000000000000000000000000000000000000000000000000000602082015250565b6000612e9d602683612232565b9150612ea882612e41565b604082019050919050565b60006020820190508181036000830152612ecc81612e90565b9050919050565b7f4552433732313a207472616e736665722066726f6d20696e636f72726563742060008201527f6f776e6572000000000000000000000000000000000000000000000000000000602082015250565b6000612f2f602583612232565b9150612f3a82612ed3565b604082019050919050565b60006020820190508181036000830152612f5e81612f22565b9050919050565b7f4552433732313a207472616e7366657220746f20746865207a65726f2061646460008201527f7265737300000000000000000000000000000000000000000000000000000000602082015250565b6000612fc1602483612232565b9150612fcc82612f65565b604082019050919050565b60006020820190508181036000830152612ff081612fb4565b9050919050565b6000613002826122e2565b915061300d836122e2565b9250828210156130205761301f612c84565b5b828203905092915050565b7f4f776e61626c653a2063616c6c6572206973206e6f7420746865206f776e6572600082015250565b6000613061602083612232565b915061306c8261302b565b602082019050919050565b6000602082019050818103600083015261309081613054565b9050919050565b7f4552433732313a20617070726f766520746f2063616c6c657200000000000000600082015250565b60006130cd601983612232565b91506130d882613097565b602082019050919050565b600060208201905081810360008301526130fc816130c0565b9050919050565b7f4552433732313a207472616e7366657220746f206e6f6e20455243373231526560008201527f63656976657220696d706c656d656e7465720000000000000000000000000000602082015250565b600061315f603283612232565b915061316a82613103565b604082019050919050565b6000602082019050818103600083015261318e81613152565b9050919050565b60006131a0826122e2565b91507fffffffffffffffffffffffffffffffffffffffffffffffffffffffffffffffff8214156131d3576131d2612c84565b5b600182019050919050565b7f4e487b7100000000000000000000000000000000000000000000000000000000600052601260045260246000fd5b6000613218826122e2565b9150613223836122e2565b925082613233576132326131de565b5b828204905092915050565b6000613249826122e2565b9150613254836122e2565b925082613264576132636131de565b5b828206905092915050565b7f4e487b7100000000000000000000000000000000000000000000000000000000600052603260045260246000fd5b600081519050919050565b600082825260208201905092915050565b60006132c58261329e565b6132cf81856132a9565b93506132df818560208601612243565b6132e881612276565b840191505092915050565b60006080820190506133086000830187612377565b6133156020830186612377565b613322604083018561240d565b818103606083015261333481846132ba565b905095945050505050565b60008151905061334e81612198565b92915050565b60006020828403121561336a57613369612162565b5b60006133788482850161333f565b91505092915050565b7f4552433732313a206d696e7420746f20746865207a65726f2061646472657373600082015250565b60006133b7602083612232565b91506133c282613381565b602082019050919050565b600060208201905081810360008301526133e6816133aa565b9050919050565b7f4552433732313a20746f6b656e20616c7265616479206d696e74656400000000600082015250565b6000613423601c83612232565b915061342e826133ed565b602082019050919050565b6000602082019050818103600083015261345281613416565b905091905056fea264697066735822122029cff8d2acfa5eff6bd564e27356eda265d5facf3139388ee56f9f13afc98ff064736f6c6343000809003368747470733a2f2f6170702e7a656576652e696f2f7a6466732d676174657761792f697066732f516d65324434657a4d354145757247694e6b6b6a67784455443252773165473735576953456875616775424b346b",
  "devdoc": {
    "kind": "dev",
    "methods": {
      "approve(address,uint256)": {
        "details": "See {IERC721-approve}."
      },
      "balanceOf(address)": {
        "details": "See {IERC721-balanceOf}."
      },
      "getApproved(uint256)": {
        "details": "See {IERC721-getApproved}."
      },
      "isApprovedForAll(address,address)": {
        "details": "See {IERC721-isApprovedForAll}."
      },
      "name()": {
        "details": "See {IERC721Metadata-name}."
      },
      "owner()": {
        "details": "Returns the address of the current owner."
      },
      "ownerOf(uint256)": {
        "details": "See {IERC721-ownerOf}."
      },
      "renounceOwnership()": {
        "details": "Leaves the contract without owner. It will not be possible to call `onlyOwner` functions anymore. Can only be called by the current owner. NOTE: Renouncing ownership will leave the contract without an owner, thereby removing any functionality that is only available to the owner."
      },
      "safeTransferFrom(address,address,uint256)": {
        "details": "See {IERC721-safeTransferFrom}."
      },
      "safeTransferFrom(address,address,uint256,bytes)": {
        "details": "See {IERC721-safeTransferFrom}."
      },
      "setApprovalForAll(address,bool)": {
        "details": "See {IERC721-setApprovalForAll}."
      },
      "supportsInterface(bytes4)": {
        "details": "See {IERC165-supportsInterface}."
      },
      "symbol()": {
        "details": "See {IERC721Metadata-symbol}."
      },
      "tokenURI(uint256)": {
        "details": "See {IERC721Metadata-tokenURI}."
      },
      "transferFrom(address,address,uint256)": {
        "details": "See {IERC721-transferFrom}."
      },
      "transferOwnership(address)": {
        "details": "Transfers ownership of the contract to a new account (`newOwner`). Can only be called by the current owner."
      }
    },
    "version": 1
  },
  "userdoc": {
    "kind": "user",
    "methods": {},
    "version": 1
  },
  "storageLayout": {
    "storage": [
      {
        "astId": 138,
        "contract": "contracts/Verifier.sol:Verifier",
        "label": "_name",
        "offset": 0,
        "slot": "0",
        "type": "t_string_storage"
      },
      {
        "astId": 140,
        "contract": "contracts/Verifier.sol:Verifier",
        "label": "_symbol",
        "offset": 0,
        "slot": "1",
        "type": "t_string_storage"
      },
      {
        "astId": 144,
        "contract": "contracts/Verifier.sol:Verifier",
        "label": "_owners",
        "offset": 0,
        "slot": "2",
        "type": "t_mapping(t_uint256,t_address)"
      },
      {
        "astId": 148,
        "contract": "contracts/Verifier.sol:Verifier",
        "label": "_balances",
        "offset": 0,
        "slot": "3",
        "type": "t_mapping(t_address,t_uint256)"
      },
      {
        "astId": 152,
        "contract": "contracts/Verifier.sol:Verifier",
        "label": "_tokenApprovals",
        "offset": 0,
        "slot": "4",
        "type": "t_mapping(t_uint256,t_address)"
      },
      {
        "astId": 158,
        "contract": "contracts/Verifier.sol:Verifier",
        "label": "_operatorApprovals",
        "offset": 0,
        "slot": "5",
        "type": "t_mapping(t_address,t_mapping(t_address,t_bool))"
      },
      {
        "astId": 7,
        "contract": "contracts/Verifier.sol:Verifier",
        "label": "_owner",
        "offset": 0,
        "slot": "6",
        "type": "t_address"
      },
      {
        "astId": 1739,
        "contract": "contracts/Verifier.sol:Verifier",
        "label": "price",
        "offset": 0,
        "slot": "7",
        "type": "t_uint256"
      },
      {
        "astId": 1746,
        "contract": "contracts/Verifier.sol:Verifier",
        "label": "verified",
        "offset": 0,
        "slot": "8",
        "type": "t_mapping(t_address,t_bool)"
      },
      {
        "astId": 1749,
        "contract": "contracts/Verifier.sol:Verifier",
        "label": "isSaleActive",
        "offset": 0,
        "slot": "9",
        "type": "t_bool"
      },
      {
        "astId": 1751,
        "contract": "contracts/Verifier.sol:Verifier",
        "label": "totalSupply",
        "offset": 0,
        "slot": "10",
        "type": "t_uint256"
      },
      {
        "astId": 1755,
        "contract": "contracts/Verifier.sol:Verifier",
        "label": "mintedPerWallet",
        "offset": 0,
        "slot": "11",
        "type": "t_mapping(t_address,t_uint256)"
      },
      {
        "astId": 1757,
        "contract": "contracts/Verifier.sol:Verifier",
        "label": "baseUri",
        "offset": 0,
        "slot": "12",
        "type": "t_string_storage"
      },
      {
        "astId": 1759,
        "contract": "contracts/Verifier.sol:Verifier",
        "label": "chk",
        "offset": 0,
        "slot": "13",
        "type": "t_uint256"
      }
    ],
    "types": {
      "t_address": {
        "encoding": "inplace",
        "label": "address",
        "numberOfBytes": "20"
      },
      "t_bool": {
        "encoding": "inplace",
        "label": "bool",
        "numberOfBytes": "1"
      },
      "t_mapping(t_address,t_bool)": {
        "encoding": "mapping",
        "key": "t_address",
        "label": "mapping(address => bool)",
        "numberOfBytes": "32",
        "value": "t_bool"
      },
      "t_mapping(t_address,t_mapping(t_address,t_bool))": {
        "encoding": "mapping",
        "key": "t_address",
        "label": "mapping(address => mapping(address => bool))",
        "numberOfBytes": "32",
        "value": "t_mapping(t_address,t_bool)"
      },
      "t_mapping(t_address,t_uint256)": {
        "encoding": "mapping",
        "key": "t_address",
        "label": "mapping(address => uint256)",
        "numberOfBytes": "32",
        "value": "t_uint256"
      },
      "t_mapping(t_uint256,t_address)": {
        "encoding": "mapping",
        "key": "t_uint256",
        "label": "mapping(uint256 => address)",
        "numberOfBytes": "32",
        "value": "t_address"
      },
      "t_string_storage": {
        "encoding": "bytes",
        "label": "string",
        "numberOfBytes": "32"
      },
      "t_uint256": {
        "encoding": "inplace",
        "label": "uint256",
        "numberOfBytes": "32"
      }
    }
  }
}