{
  "address": "0xD7DBE617371d7c56f0F3C64504F762D532E93D73",
  "abi": [
    {
      "inputs": [],
      "stateMutability": "nonpayable",
      "type": "constructor"
    },
    {
      "anonymous": false,
      "inputs": [
        {
          "indexed": true,
          "internalType": "address",
          "name": "owner",
          "type": "address"
        },
        {
          "indexed": true,
          "internalType": "address",
          "name": "approved",
          "type": "address"
        },
        {
          "indexed": true,
          "internalType": "uint256",
          "name": "tokenId",
          "type": "uint256"
        }
      ],
      "name": "Approval",
      "type": "event"
    },
    {
      "anonymous": false,
      "inputs": [
        {
          "indexed": true,
          "internalType": "address",
          "name": "owner",
          "type": "address"
        },
        {
          "indexed": true,
          "internalType": "address",
          "name": "operator",
          "type": "address"
        },
        {
          "indexed": false,
          "internalType": "bool",
          "name": "approved",
          "type": "bool"
        }
      ],
      "name": "ApprovalForAll",
      "type": "event"
    },
    {
      "anonymous": false,
      "inputs": [
        {
          "indexed": true,
          "internalType": "address",
          "name": "previousOwner",
          "type": "address"
        },
        {
          "indexed": true,
          "internalType": "address",
          "name": "newOwner",
          "type": "address"
        }
      ],
      "name": "OwnershipTransferred",
      "type": "event"
    },
    {
      "anonymous": false,
      "inputs": [
        {
          "indexed": true,
          "internalType": "address",
          "name": "from",
          "type": "address"
        },
        {
          "indexed": true,
          "internalType": "address",
          "name": "to",
          "type": "address"
        },
        {
          "indexed": true,
          "internalType": "uint256",
          "name": "tokenId",
          "type": "uint256"
        }
      ],
      "name": "Transfer",
      "type": "event"
    },
    {
      "inputs": [],
      "name": "MAX_TOKENS",
      "outputs": [
        {
          "internalType": "uint256",
          "name": "",
          "type": "uint256"
        }
      ],
      "stateMutability": "view",
      "type": "function"
    },
    {
      "inputs": [
        {
          "internalType": "address",
          "name": "nft_owner",
          "type": "address"
        }
      ],
      "name": "Verifier",
      "outputs": [
        {
          "internalType": "uint256",
          "name": "",
          "type": "uint256"
        },
        {
          "internalType": "bool",
          "name": "",
          "type": "bool"
        }
      ],
      "stateMutability": "view",
      "type": "function"
    },
    {
      "inputs": [
        {
          "internalType": "address",
          "name": "to",
          "type": "address"
        },
        {
          "internalType": "uint256",
          "name": "tokenId",
          "type": "uint256"
        }
      ],
      "name": "approve",
      "outputs": [],
      "stateMutability": "nonpayable",
      "type": "function"
    },
    {
      "inputs": [
        {
          "internalType": "address",
          "name": "owner",
          "type": "address"
        }
      ],
      "name": "balanceOf",
      "outputs": [
        {
          "internalType": "uint256",
          "name": "",
          "type": "uint256"
        }
      ],
      "stateMutability": "view",
      "type": "function"
    },
    {
      "inputs": [],
      "name": "baseUri",
      "outputs": [
        {
          "internalType": "string",
          "name": "",
          "type": "string"
        }
      ],
      "stateMutability": "view",
      "type": "function"
    },
    {
      "inputs": [
        {
          "internalType": "uint256",
          "name": "tokenId",
          "type": "uint256"
        }
      ],
      "name": "getApproved",
      "outputs": [
        {
          "internalType": "address",
          "name": "",
          "type": "address"
        }
      ],
      "stateMutability": "view",
      "type": "function"
    },
    {
      "inputs": [],
      "name": "getTokenId",
      "outputs": [
        {
          "internalType": "uint256",
          "name": "",
          "type": "uint256"
        }
      ],
      "stateMutability": "view",
      "type": "function"
    },
    {
      "inputs": [],
      "name": "getTotalSupply",
      "outputs": [
        {
          "internalType": "uint256",
          "name": "",
          "type": "uint256"
        }
      ],
      "stateMutability": "view",
      "type": "function"
    },
    {
      "inputs": [],
      "name": "getVerifiedstatus",
      "outputs": [
        {
          "internalType": "bool",
          "name": "",
          "type": "bool"
        }
      ],
      "stateMutability": "view",
      "type": "function"
    },
    {
      "inputs": [],
      "name": "getchk",
      "outputs": [
        {
          "internalType": "uint256",
          "name": "",
          "type": "uint256"
        }
      ],
      "stateMutability": "view",
      "type": "function"
    },
    {
      "inputs": [
        {
          "internalType": "address",
          "name": "owner",
          "type": "address"
        },
        {
          "internalType": "address",
          "name": "operator",
          "type": "address"
        }
      ],
      "name": "isApprovedForAll",
      "outputs": [
        {
          "internalType": "bool",
          "name": "",
          "type": "bool"
        }
      ],
      "stateMutability": "view",
      "type": "function"
    },
    {
      "inputs": [],
      "name": "isSaleActive",
      "outputs": [
        {
          "internalType": "bool",
          "name": "",
          "type": "bool"
        }
      ],
      "stateMutability": "view",
      "type": "function"
    },
    {
      "inputs": [],
      "name": "mint",
      "outputs": [
        {
          "internalType": "uint256",
          "name": "",
          "type": "uint256"
        }
      ],
      "stateMutability": "payable",
      "type": "function"
    },
    {
      "inputs": [],
      "name": "name",
      "outputs": [
        {
          "internalType": "string",
          "name": "",
          "type": "string"
        }
      ],
      "stateMutability": "view",
      "type": "function"
    },
    {
      "inputs": [],
      "name": "owner",
      "outputs": [
        {
          "internalType": "address",
          "name": "",
          "type": "address"
        }
      ],
      "stateMutability": "view",
      "type": "function"
    },
    {
      "inputs": [
        {
          "internalType": "uint256",
          "name": "tokenId",
          "type": "uint256"
        }
      ],
      "name": "ownerOf",
      "outputs": [
        {
          "internalType": "address",
          "name": "",
          "type": "address"
        }
      ],
      "stateMutability": "view",
      "type": "function"
    },
    {
      "inputs": [],
      "name": "renounceOwnership",
      "outputs": [],
      "stateMutability": "nonpayable",
      "type": "function"
    },
    {
      "inputs": [
        {
          "internalType": "address",
          "name": "from",
          "type": "address"
        },
        {
          "internalType": "address",
          "name": "to",
          "type": "address"
        },
        {
          "internalType": "uint256",
          "name": "tokenId",
          "type": "uint256"
        }
      ],
      "name": "safeTransferFrom",
      "outputs": [],
      "stateMutability": "nonpayable",
      "type": "function"
    },
    {
      "inputs": [
        {
          "internalType": "address",
          "name": "from",
          "type": "address"
        },
        {
          "internalType": "address",
          "name": "to",
          "type": "address"
        },
        {
          "internalType": "uint256",
          "name": "tokenId",
          "type": "uint256"
        },
        {
          "internalType": "bytes",
          "name": "data",
          "type": "bytes"
        }
      ],
      "name": "safeTransferFrom",
      "outputs": [],
      "stateMutability": "nonpayable",
      "type": "function"
    },
    {
      "inputs": [
        {
          "internalType": "address",
          "name": "operator",
          "type": "address"
        },
        {
          "internalType": "bool",
          "name": "approved",
          "type": "bool"
        }
      ],
      "name": "setApprovalForAll",
      "outputs": [],
      "stateMutability": "nonpayable",
      "type": "function"
    },
    {
      "inputs": [
        {
          "internalType": "bytes4",
          "name": "interfaceId",
          "type": "bytes4"
        }
      ],
      "name": "supportsInterface",
      "outputs": [
        {
          "internalType": "bool",
          "name": "",
          "type": "bool"
        }
      ],
      "stateMutability": "view",
      "type": "function"
    },
    {
      "inputs": [],
      "name": "symbol",
      "outputs": [
        {
          "internalType": "string",
          "name": "",
          "type": "string"
        }
      ],
      "stateMutability": "view",
      "type": "function"
    },
    {
      "inputs": [],
      "name": "tokenId",
      "outputs": [
        {
          "internalType": "uint256",
          "name": "",
          "type": "uint256"
        }
      ],
      "stateMutability": "view",
      "type": "function"
    },
    {
      "inputs": [
        {
          "internalType": "uint256",
          "name": "tkenId",
          "type": "uint256"
        }
      ],
      "name": "tokenURI",
      "outputs": [
        {
          "internalType": "string",
          "name": "",
          "type": "string"
        }
      ],
      "stateMutability": "view",
      "type": "function"
    },
    {
      "inputs": [],
      "name": "totalSupply",
      "outputs": [
        {
          "internalType": "uint256",
          "name": "",
          "type": "uint256"
        }
      ],
      "stateMutability": "view",
      "type": "function"
    },
    {
      "inputs": [
        {
          "internalType": "address",
          "name": "from",
          "type": "address"
        },
        {
          "internalType": "address",
          "name": "to",
          "type": "address"
        },
        {
          "internalType": "uint256",
          "name": "tokenId",
          "type": "uint256"
        }
      ],
      "name": "transferFrom",
      "outputs": [],
      "stateMutability": "nonpayable",
      "type": "function"
    },
    {
      "inputs": [
        {
          "internalType": "address",
          "name": "newOwner",
          "type": "address"
        }
      ],
      "name": "transferOwnership",
      "outputs": [],
      "stateMutability": "nonpayable",
      "type": "function"
    }
  ],
  "transactionHash": "0xf969a75708ab56446d029c2563f93d1f8eb726b2e60463f7f7721f5a71362598",
  "args": [],
  "numDeployments": 22,
  "solcInputHash": "056ce333df47080a338cf1617f7b7c97",
  "bytecode": "0x608060405260006007556001600960006101000a81548160ff0219169083151502179055506000600f553480156200003657600080fd5b506040518060400160405280600681526020017f442d4155544800000000000000000000000000000000000000000000000000008152506040518060400160405280600381526020017f44415500000000000000000000000000000000000000000000000000000000008152508160009080519060200190620000bb92919062000215565b508060019080519060200190620000d492919062000215565b505050620000f7620000eb6200014760201b60201c565b6200014f60201b60201c565b6040518060800160405280605181526020016200360460519139600c90805190602001906200012892919062000215565b5060006010819055506000600a819055506001600d819055506200032a565b600033905090565b6000600660009054906101000a900473ffffffffffffffffffffffffffffffffffffffff16905081600660006101000a81548173ffffffffffffffffffffffffffffffffffffffff021916908373ffffffffffffffffffffffffffffffffffffffff1602179055508173ffffffffffffffffffffffffffffffffffffffff168173ffffffffffffffffffffffffffffffffffffffff167f8be0079c531659141344cd1fd0a4f28419497f9722a3daafe3b4186f6b6457e060405160405180910390a35050565b8280546200022390620002f4565b90600052602060002090601f01602090048101928262000247576000855562000293565b82601f106200026257805160ff191683800117855562000293565b8280016001018555821562000293579182015b828111156200029257825182559160200191906001019062000275565b5b509050620002a29190620002a6565b5090565b5b80821115620002c1576000816000905550600101620002a7565b5090565b7f4e487b7100000000000000000000000000000000000000000000000000000000600052602260045260246000fd5b600060028204905060018216806200030d57607f821691505b60208210811415620003245762000323620002c5565b5b50919050565b6132ca806200033a6000396000f3fe60806040526004361061019c5760003560e01c80636e9ea4bb116100ec578063b88d4fde1161008a578063c87b56dd11610064578063c87b56dd146105ae578063e985e9c5146105eb578063f2fde38b14610628578063f47c84c5146106515761019c565b8063b88d4fde1461052f578063c4e41b2214610558578063c7f78feb146105835761019c565b80638da5cb5b116100c65780638da5cb5b1461048557806395d89b41146104b05780639abc8320146104db578063a22cb465146105065761019c565b80636e9ea4bb1461040657806370a0823114610431578063715018a61461046e5761019c565b806317d70f7c1161015957806342842e0e1161013357806342842e0e146103375780635183c05014610360578063564566a81461039e5780636352211e146103c95761019c565b806317d70f7c146102b857806318160ddd146102e357806323b872dd1461030e5761019c565b8063010a38f5146101a157806301ffc9a7146101cc57806306fdde0314610209578063081812fc14610234578063095ea7b3146102715780631249c58b1461029a575b600080fd5b3480156101ad57600080fd5b506101b661067c565b6040516101c391906120a8565b60405180910390f35b3480156101d857600080fd5b506101f360048036038101906101ee919061212f565b610686565b6040516102009190612177565b60405180910390f35b34801561021557600080fd5b5061021e610768565b60405161022b919061222b565b60405180910390f35b34801561024057600080fd5b5061025b60048036038101906102569190612279565b6107fa565b60405161026891906122e7565b60405180910390f35b34801561027d57600080fd5b506102986004803603810190610293919061232e565b610840565b005b6102a2610958565b6040516102af91906120a8565b60405180910390f35b3480156102c457600080fd5b506102cd610c26565b6040516102da91906120a8565b60405180910390f35b3480156102ef57600080fd5b506102f8610c2c565b60405161030591906120a8565b60405180910390f35b34801561031a57600080fd5b506103356004803603810190610330919061236e565b610c32565b005b34801561034357600080fd5b5061035e6004803603810190610359919061236e565b610c92565b005b34801561036c57600080fd5b50610387600480360381019061038291906123c1565b610cb2565b6040516103959291906123ee565b60405180910390f35b3480156103aa57600080fd5b506103b3610d57565b6040516103c09190612177565b60405180910390f35b3480156103d557600080fd5b506103f060048036038101906103eb9190612279565b610d6a565b6040516103fd91906122e7565b60405180910390f35b34801561041257600080fd5b5061041b610e1c565b6040516104289190612177565b60405180910390f35b34801561043d57600080fd5b50610458600480360381019061045391906123c1565b610e70565b60405161046591906120a8565b60405180910390f35b34801561047a57600080fd5b50610483610f28565b005b34801561049157600080fd5b5061049a610f3c565b6040516104a791906122e7565b60405180910390f35b3480156104bc57600080fd5b506104c5610f66565b6040516104d2919061222b565b60405180910390f35b3480156104e757600080fd5b506104f0610ff8565b6040516104fd919061222b565b60405180910390f35b34801561051257600080fd5b5061052d60048036038101906105289190612443565b611086565b005b34801561053b57600080fd5b50610556600480360381019061055191906125b8565b61109c565b005b34801561056457600080fd5b5061056d6110fe565b60405161057a91906120a8565b60405180910390f35b34801561058f57600080fd5b50610598611108565b6040516105a591906120a8565b60405180910390f35b3480156105ba57600080fd5b506105d560048036038101906105d09190612279565b611112565b6040516105e2919061222b565b60405180910390f35b3480156105f757600080fd5b50610612600480360381019061060d919061263b565b61117c565b60405161061f9190612177565b60405180910390f35b34801561063457600080fd5b5061064f600480360381019061064a91906123c1565b611210565b005b34801561065d57600080fd5b50610666611294565b60405161067391906120a8565b60405180910390f35b6000601054905090565b60007f80ac58cd000000000000000000000000000000000000000000000000000000007bffffffffffffffffffffffffffffffffffffffffffffffffffffffff1916827bffffffffffffffffffffffffffffffffffffffffffffffffffffffff1916148061075157507f5b5e139f000000000000000000000000000000000000000000000000000000007bffffffffffffffffffffffffffffffffffffffffffffffffffffffff1916827bffffffffffffffffffffffffffffffffffffffffffffffffffffffff1916145b8061076157506107608261129a565b5b9050919050565b606060008054610777906126aa565b80601f01602080910402602001604051908101604052809291908181526020018280546107a3906126aa565b80156107f05780601f106107c5576101008083540402835291602001916107f0565b820191906000526020600020905b8154815290600101906020018083116107d357829003601f168201915b5050505050905090565b600061080582611304565b6004600083815260200190815260200160002060009054906101000a900473ffffffffffffffffffffffffffffffffffffffff169050919050565b600061084b82610d6a565b90508073ffffffffffffffffffffffffffffffffffffffff168373ffffffffffffffffffffffffffffffffffffffff1614156108bc576040517f08c379a00000000000000000000000000000000000000000000000000000000081526004016108b39061274e565b60405180910390fd5b8073ffffffffffffffffffffffffffffffffffffffff166108db61134f565b73ffffffffffffffffffffffffffffffffffffffff16148061090a57506109098161090461134f565b61117c565b5b610949576040517f08c379a0000000000000000000000000000000000000000000000000000000008152600401610940906127e0565b60405180910390fd5b6109538383611357565b505050565b6000600860003373ffffffffffffffffffffffffffffffffffffffff1673ffffffffffffffffffffffffffffffffffffffff16815260200190815260200160002060009054906101000a900460ff16156109e7576040517f08c379a00000000000000000000000000000000000000000000000000000000081526004016109de9061284c565b60405180910390fd5b600960009054906101000a900460ff16610a36576040517f08c379a0000000000000000000000000000000000000000000000000000000008152600401610a2d906128b8565b60405180910390fd5b6000600b60003373ffffffffffffffffffffffffffffffffffffffff1673ffffffffffffffffffffffffffffffffffffffff1681526020019081526020016000205414610ab8576040517f08c379a0000000000000000000000000000000000000000000000000000000008152600401610aaf90612924565b60405180910390fd5b6000600a54905061271060075482610ad09190612973565b1115610b11576040517f08c379a0000000000000000000000000000000000000000000000000000000008152600401610b0890612a15565b60405180910390fd5b60106000815480929190610b2490612a35565b9190505550610b3533601054611410565b6001600860003373ffffffffffffffffffffffffffffffffffffffff1673ffffffffffffffffffffffffffffffffffffffff16815260200190815260200160002060006101000a81548160ff02191690831515021790555060076000815480929190610ba090612a35565b9190505550600754600b60003373ffffffffffffffffffffffffffffffffffffffff1673ffffffffffffffffffffffffffffffffffffffff1681526020019081526020016000206000828254610bf69190612973565b92505081905550600a6000815480929190610c1090612a35565b91905055506001600f8190555060105491505090565b60105481565b600a5481565b610c43610c3d61134f565b8261142e565b610c82576040517f08c379a0000000000000000000000000000000000000000000000000000000008152600401610c7990612af0565b60405180910390fd5b610c8d8383836114c3565b505050565b610cad8383836040518060200160405280600081525061109c565b505050565b6000806000806000905060005b600a548111158015610cd35750600a548211155b15610d47578180610ce390612a35565b925050610cef82610d6a565b92508273ffffffffffffffffffffffffffffffffffffffff168673ffffffffffffffffffffffffffffffffffffffff161415610d345781600194509450505050610d52565b8080610d3f90612a35565b915050610cbf565b600080945094505050505b915091565b600960009054906101000a900460ff1681565b6000806002600084815260200190815260200160002060009054906101000a900473ffffffffffffffffffffffffffffffffffffffff169050600073ffffffffffffffffffffffffffffffffffffffff168173ffffffffffffffffffffffffffffffffffffffff161415610e13576040517f08c379a0000000000000000000000000000000000000000000000000000000008152600401610e0a90612b5c565b60405180910390fd5b80915050919050565b6000600860003373ffffffffffffffffffffffffffffffffffffffff1673ffffffffffffffffffffffffffffffffffffffff16815260200190815260200160002060009054906101000a900460ff16905090565b60008073ffffffffffffffffffffffffffffffffffffffff168273ffffffffffffffffffffffffffffffffffffffff161415610ee1576040517f08c379a0000000000000000000000000000000000000000000000000000000008152600401610ed890612bee565b60405180910390fd5b600360008373ffffffffffffffffffffffffffffffffffffffff1673ffffffffffffffffffffffffffffffffffffffff168152602001908152602001600020549050919050565b610f3061172a565b610f3a60006117a8565b565b6000600660009054906101000a900473ffffffffffffffffffffffffffffffffffffffff16905090565b606060018054610f75906126aa565b80601f0160208091040260200160405190810160405280929190818152602001828054610fa1906126aa565b8015610fee5780601f10610fc357610100808354040283529160200191610fee565b820191906000526020600020905b815481529060010190602001808311610fd157829003601f168201915b5050505050905090565b600c8054611005906126aa565b80601f0160208091040260200160405190810160405280929190818152602001828054611031906126aa565b801561107e5780601f106110535761010080835404028352916020019161107e565b820191906000526020600020905b81548152906001019060200180831161106157829003601f168201915b505050505081565b61109861109161134f565b838361186e565b5050565b6110ad6110a761134f565b8361142e565b6110ec576040517f08c379a00000000000000000000000000000000000000000000000000000000081526004016110e390612af0565b60405180910390fd5b6110f8848484846119db565b50505050565b6000600a54905090565b6000600d54905090565b606061111d82611304565b6000611127611a37565b905060008151116111475760405180602001604052806000815250611174565b80611153601054611ac9565b604051602001611164929190612c96565b6040516020818303038152906040525b915050919050565b6000600560008473ffffffffffffffffffffffffffffffffffffffff1673ffffffffffffffffffffffffffffffffffffffff16815260200190815260200160002060008373ffffffffffffffffffffffffffffffffffffffff1673ffffffffffffffffffffffffffffffffffffffff16815260200190815260200160002060009054906101000a900460ff16905092915050565b61121861172a565b600073ffffffffffffffffffffffffffffffffffffffff168173ffffffffffffffffffffffffffffffffffffffff161415611288576040517f08c379a000000000000000000000000000000000000000000000000000000000815260040161127f90612d37565b60405180910390fd5b611291816117a8565b50565b61271081565b60007f01ffc9a7000000000000000000000000000000000000000000000000000000007bffffffffffffffffffffffffffffffffffffffffffffffffffffffff1916827bffffffffffffffffffffffffffffffffffffffffffffffffffffffff1916149050919050565b61130d81611c2a565b61134c576040517f08c379a000000000000000000000000000000000000000000000000000000000815260040161134390612b5c565b60405180910390fd5b50565b600033905090565b816004600083815260200190815260200160002060006101000a81548173ffffffffffffffffffffffffffffffffffffffff021916908373ffffffffffffffffffffffffffffffffffffffff160217905550808273ffffffffffffffffffffffffffffffffffffffff166113ca83610d6a565b73ffffffffffffffffffffffffffffffffffffffff167f8c5be1e5ebec7d5bd14f71427d1e84f3dd0314c0f7b2291e5b200ac8c7c3b92560405160405180910390a45050565b61142a828260405180602001604052806000815250611c96565b5050565b60008061143a83610d6a565b90508073ffffffffffffffffffffffffffffffffffffffff168473ffffffffffffffffffffffffffffffffffffffff16148061147c575061147b818561117c565b5b806114ba57508373ffffffffffffffffffffffffffffffffffffffff166114a2846107fa565b73ffffffffffffffffffffffffffffffffffffffff16145b91505092915050565b8273ffffffffffffffffffffffffffffffffffffffff166114e382610d6a565b73ffffffffffffffffffffffffffffffffffffffff1614611539576040517f08c379a000000000000000000000000000000000000000000000000000000000815260040161153090612dc9565b60405180910390fd5b600073ffffffffffffffffffffffffffffffffffffffff168273ffffffffffffffffffffffffffffffffffffffff1614156115a9576040517f08c379a00000000000000000000000000000000000000000000000000000000081526004016115a090612e5b565b60405180910390fd5b6115b4838383611cf1565b6115bf600082611357565b6001600360008573ffffffffffffffffffffffffffffffffffffffff1673ffffffffffffffffffffffffffffffffffffffff168152602001908152602001600020600082825461160f9190612e7b565b925050819055506001600360008473ffffffffffffffffffffffffffffffffffffffff1673ffffffffffffffffffffffffffffffffffffffff16815260200190815260200160002060008282546116669190612973565b92505081905550816002600083815260200190815260200160002060006101000a81548173ffffffffffffffffffffffffffffffffffffffff021916908373ffffffffffffffffffffffffffffffffffffffff160217905550808273ffffffffffffffffffffffffffffffffffffffff168473ffffffffffffffffffffffffffffffffffffffff167fddf252ad1be2c89b69c2b068fc378daa952ba7f163c4a11628f55a4df523b3ef60405160405180910390a4611725838383611cf6565b505050565b61173261134f565b73ffffffffffffffffffffffffffffffffffffffff16611750610f3c565b73ffffffffffffffffffffffffffffffffffffffff16146117a6576040517f08c379a000000000000000000000000000000000000000000000000000000000815260040161179d90612efb565b60405180910390fd5b565b6000600660009054906101000a900473ffffffffffffffffffffffffffffffffffffffff16905081600660006101000a81548173ffffffffffffffffffffffffffffffffffffffff021916908373ffffffffffffffffffffffffffffffffffffffff1602179055508173ffffffffffffffffffffffffffffffffffffffff168173ffffffffffffffffffffffffffffffffffffffff167f8be0079c531659141344cd1fd0a4f28419497f9722a3daafe3b4186f6b6457e060405160405180910390a35050565b8173ffffffffffffffffffffffffffffffffffffffff168373ffffffffffffffffffffffffffffffffffffffff1614156118dd576040517f08c379a00000000000000000000000000000000000000000000000000000000081526004016118d490612f67565b60405180910390fd5b80600560008573ffffffffffffffffffffffffffffffffffffffff1673ffffffffffffffffffffffffffffffffffffffff16815260200190815260200160002060008473ffffffffffffffffffffffffffffffffffffffff1673ffffffffffffffffffffffffffffffffffffffff16815260200190815260200160002060006101000a81548160ff0219169083151502179055508173ffffffffffffffffffffffffffffffffffffffff168373ffffffffffffffffffffffffffffffffffffffff167f17307eab39ab6107e8899845ad3d59bd9653f200f220920489ca2b5937696c31836040516119ce9190612177565b60405180910390a3505050565b6119e68484846114c3565b6119f284848484611cfb565b611a31576040517f08c379a0000000000000000000000000000000000000000000000000000000008152600401611a2890612ff9565b60405180910390fd5b50505050565b6060600c8054611a46906126aa565b80601f0160208091040260200160405190810160405280929190818152602001828054611a72906126aa565b8015611abf5780601f10611a9457610100808354040283529160200191611abf565b820191906000526020600020905b815481529060010190602001808311611aa257829003601f168201915b5050505050905090565b60606000821415611b11576040518060400160405280600181526020017f30000000000000000000000000000000000000000000000000000000000000008152509050611c25565b600082905060005b60008214611b43578080611b2c90612a35565b915050600a82611b3c9190613048565b9150611b19565b60008167ffffffffffffffff811115611b5f57611b5e61248d565b5b6040519080825280601f01601f191660200182016040528015611b915781602001600182028036833780820191505090505b5090505b60008514611c1e57600182611baa9190612e7b565b9150600a85611bb99190613079565b6030611bc59190612973565b60f81b818381518110611bdb57611bda6130aa565b5b60200101907effffffffffffffffffffffffffffffffffffffffffffffffffffffffffffff1916908160001a905350600a85611c179190613048565b9450611b95565b8093505050505b919050565b60008073ffffffffffffffffffffffffffffffffffffffff166002600084815260200190815260200160002060009054906101000a900473ffffffffffffffffffffffffffffffffffffffff1673ffffffffffffffffffffffffffffffffffffffff1614159050919050565b611ca08383611e92565b611cad6000848484611cfb565b611cec576040517f08c379a0000000000000000000000000000000000000000000000000000000008152600401611ce390612ff9565b60405180910390fd5b505050565b505050565b505050565b6000611d1c8473ffffffffffffffffffffffffffffffffffffffff1661206c565b15611e85578373ffffffffffffffffffffffffffffffffffffffff1663150b7a02611d4561134f565b8786866040518563ffffffff1660e01b8152600401611d67949392919061312e565b602060405180830381600087803b158015611d8157600080fd5b505af1925050508015611db257506040513d601f19601f82011682018060405250810190611daf919061318f565b60015b611e35573d8060008114611de2576040519150601f19603f3d011682016040523d82523d6000602084013e611de7565b606091505b50600081511415611e2d576040517f08c379a0000000000000000000000000000000000000000000000000000000008152600401611e2490612ff9565b60405180910390fd5b805181602001fd5b63150b7a0260e01b7bffffffffffffffffffffffffffffffffffffffffffffffffffffffff1916817bffffffffffffffffffffffffffffffffffffffffffffffffffffffff191614915050611e8a565b600190505b949350505050565b600073ffffffffffffffffffffffffffffffffffffffff168273ffffffffffffffffffffffffffffffffffffffff161415611f02576040517f08c379a0000000000000000000000000000000000000000000000000000000008152600401611ef990613208565b60405180910390fd5b611f0b81611c2a565b15611f4b576040517f08c379a0000000000000000000000000000000000000000000000000000000008152600401611f4290613274565b60405180910390fd5b611f5760008383611cf1565b6001600360008473ffffffffffffffffffffffffffffffffffffffff1673ffffffffffffffffffffffffffffffffffffffff1681526020019081526020016000206000828254611fa79190612973565b92505081905550816002600083815260200190815260200160002060006101000a81548173ffffffffffffffffffffffffffffffffffffffff021916908373ffffffffffffffffffffffffffffffffffffffff160217905550808273ffffffffffffffffffffffffffffffffffffffff16600073ffffffffffffffffffffffffffffffffffffffff167fddf252ad1be2c89b69c2b068fc378daa952ba7f163c4a11628f55a4df523b3ef60405160405180910390a461206860008383611cf6565b5050565b6000808273ffffffffffffffffffffffffffffffffffffffff163b119050919050565b6000819050919050565b6120a28161208f565b82525050565b60006020820190506120bd6000830184612099565b92915050565b6000604051905090565b600080fd5b600080fd5b60007fffffffff0000000000000000000000000000000000000000000000000000000082169050919050565b61210c816120d7565b811461211757600080fd5b50565b60008135905061212981612103565b92915050565b600060208284031215612145576121446120cd565b5b60006121538482850161211a565b91505092915050565b60008115159050919050565b6121718161215c565b82525050565b600060208201905061218c6000830184612168565b92915050565b600081519050919050565b600082825260208201905092915050565b60005b838110156121cc5780820151818401526020810190506121b1565b838111156121db576000848401525b50505050565b6000601f19601f8301169050919050565b60006121fd82612192565b612207818561219d565b93506122178185602086016121ae565b612220816121e1565b840191505092915050565b6000602082019050818103600083015261224581846121f2565b905092915050565b6122568161208f565b811461226157600080fd5b50565b6000813590506122738161224d565b92915050565b60006020828403121561228f5761228e6120cd565b5b600061229d84828501612264565b91505092915050565b600073ffffffffffffffffffffffffffffffffffffffff82169050919050565b60006122d1826122a6565b9050919050565b6122e1816122c6565b82525050565b60006020820190506122fc60008301846122d8565b92915050565b61230b816122c6565b811461231657600080fd5b50565b60008135905061232881612302565b92915050565b60008060408385031215612345576123446120cd565b5b600061235385828601612319565b925050602061236485828601612264565b9150509250929050565b600080600060608486031215612387576123866120cd565b5b600061239586828701612319565b93505060206123a686828701612319565b92505060406123b786828701612264565b9150509250925092565b6000602082840312156123d7576123d66120cd565b5b60006123e584828501612319565b91505092915050565b60006040820190506124036000830185612099565b6124106020830184612168565b9392505050565b6124208161215c565b811461242b57600080fd5b50565b60008135905061243d81612417565b92915050565b6000806040838503121561245a576124596120cd565b5b600061246885828601612319565b92505060206124798582860161242e565b9150509250929050565b600080fd5b600080fd5b7f4e487b7100000000000000000000000000000000000000000000000000000000600052604160045260246000fd5b6124c5826121e1565b810181811067ffffffffffffffff821117156124e4576124e361248d565b5b80604052505050565b60006124f76120c3565b905061250382826124bc565b919050565b600067ffffffffffffffff8211156125235761252261248d565b5b61252c826121e1565b9050602081019050919050565b82818337600083830152505050565b600061255b61255684612508565b6124ed565b90508281526020810184848401111561257757612576612488565b5b612582848285612539565b509392505050565b600082601f83011261259f5761259e612483565b5b81356125af848260208601612548565b91505092915050565b600080600080608085870312156125d2576125d16120cd565b5b60006125e087828801612319565b94505060206125f187828801612319565b935050604061260287828801612264565b925050606085013567ffffffffffffffff811115612623576126226120d2565b5b61262f8782880161258a565b91505092959194509250565b60008060408385031215612652576126516120cd565b5b600061266085828601612319565b925050602061267185828601612319565b9150509250929050565b7f4e487b7100000000000000000000000000000000000000000000000000000000600052602260045260246000fd5b600060028204905060018216806126c257607f821691505b602082108114156126d6576126d561267b565b5b50919050565b7f4552433732313a20617070726f76616c20746f2063757272656e74206f776e6560008201527f7200000000000000000000000000000000000000000000000000000000000000602082015250565b600061273860218361219d565b9150612743826126dc565b604082019050919050565b600060208201905081810360008301526127678161272b565b9050919050565b7f4552433732313a20617070726f76652063616c6c6572206973206e6f7420746f60008201527f6b656e206f776e6572206e6f7220617070726f76656420666f7220616c6c0000602082015250565b60006127ca603e8361219d565b91506127d58261276e565b604082019050919050565b600060208201905081810360008301526127f9816127bd565b9050919050565b7f416c726561647920766572696669656400000000000000000000000000000000600082015250565b600061283660108361219d565b915061284182612800565b602082019050919050565b6000602082019050818103600083015261286581612829565b9050919050565b7f5468652073616c65206973207061757365642e00000000000000000000000000600082015250565b60006128a260138361219d565b91506128ad8261286c565b602082019050919050565b600060208201905081810360008301526128d181612895565b9050919050565b7f596f752063616e6e6f74206d696e742074686174206d616e7920746f74616c2e600082015250565b600061290e60208361219d565b9150612919826128d8565b602082019050919050565b6000602082019050818103600083015261293d81612901565b9050919050565b7f4e487b7100000000000000000000000000000000000000000000000000000000600052601160045260246000fd5b600061297e8261208f565b91506129898361208f565b9250827fffffffffffffffffffffffffffffffffffffffffffffffffffffffffffffffff038211156129be576129bd612944565b5b828201905092915050565b7f4578636565647320746f74616c20737570706c792e0000000000000000000000600082015250565b60006129ff60158361219d565b9150612a0a826129c9565b602082019050919050565b60006020820190508181036000830152612a2e816129f2565b9050919050565b6000612a408261208f565b91507fffffffffffffffffffffffffffffffffffffffffffffffffffffffffffffffff821415612a7357612a72612944565b5b600182019050919050565b7f4552433732313a2063616c6c6572206973206e6f7420746f6b656e206f776e6560008201527f72206e6f7220617070726f766564000000000000000000000000000000000000602082015250565b6000612ada602e8361219d565b9150612ae582612a7e565b604082019050919050565b60006020820190508181036000830152612b0981612acd565b9050919050565b7f4552433732313a20696e76616c696420746f6b656e2049440000000000000000600082015250565b6000612b4660188361219d565b9150612b5182612b10565b602082019050919050565b60006020820190508181036000830152612b7581612b39565b9050919050565b7f4552433732313a2061646472657373207a65726f206973206e6f74206120766160008201527f6c6964206f776e65720000000000000000000000000000000000000000000000602082015250565b6000612bd860298361219d565b9150612be382612b7c565b604082019050919050565b60006020820190508181036000830152612c0781612bcb565b9050919050565b600081905092915050565b6000612c2482612192565b612c2e8185612c0e565b9350612c3e8185602086016121ae565b80840191505092915050565b7f2e6a736f6e000000000000000000000000000000000000000000000000000000600082015250565b6000612c80600583612c0e565b9150612c8b82612c4a565b600582019050919050565b6000612ca28285612c19565b9150612cae8284612c19565b9150612cb982612c73565b91508190509392505050565b7f4f776e61626c653a206e6577206f776e657220697320746865207a65726f206160008201527f6464726573730000000000000000000000000000000000000000000000000000602082015250565b6000612d2160268361219d565b9150612d2c82612cc5565b604082019050919050565b60006020820190508181036000830152612d5081612d14565b9050919050565b7f4552433732313a207472616e736665722066726f6d20696e636f72726563742060008201527f6f776e6572000000000000000000000000000000000000000000000000000000602082015250565b6000612db360258361219d565b9150612dbe82612d57565b604082019050919050565b60006020820190508181036000830152612de281612da6565b9050919050565b7f4552433732313a207472616e7366657220746f20746865207a65726f2061646460008201527f7265737300000000000000000000000000000000000000000000000000000000602082015250565b6000612e4560248361219d565b9150612e5082612de9565b604082019050919050565b60006020820190508181036000830152612e7481612e38565b9050919050565b6000612e868261208f565b9150612e918361208f565b925082821015612ea457612ea3612944565b5b828203905092915050565b7f4f776e61626c653a2063616c6c6572206973206e6f7420746865206f776e6572600082015250565b6000612ee560208361219d565b9150612ef082612eaf565b602082019050919050565b60006020820190508181036000830152612f1481612ed8565b9050919050565b7f4552433732313a20617070726f766520746f2063616c6c657200000000000000600082015250565b6000612f5160198361219d565b9150612f5c82612f1b565b602082019050919050565b60006020820190508181036000830152612f8081612f44565b9050919050565b7f4552433732313a207472616e7366657220746f206e6f6e20455243373231526560008201527f63656976657220696d706c656d656e7465720000000000000000000000000000602082015250565b6000612fe360328361219d565b9150612fee82612f87565b604082019050919050565b6000602082019050818103600083015261301281612fd6565b9050919050565b7f4e487b7100000000000000000000000000000000000000000000000000000000600052601260045260246000fd5b60006130538261208f565b915061305e8361208f565b92508261306e5761306d613019565b5b828204905092915050565b60006130848261208f565b915061308f8361208f565b92508261309f5761309e613019565b5b828206905092915050565b7f4e487b7100000000000000000000000000000000000000000000000000000000600052603260045260246000fd5b600081519050919050565b600082825260208201905092915050565b6000613100826130d9565b61310a81856130e4565b935061311a8185602086016121ae565b613123816121e1565b840191505092915050565b600060808201905061314360008301876122d8565b61315060208301866122d8565b61315d6040830185612099565b818103606083015261316f81846130f5565b905095945050505050565b60008151905061318981612103565b92915050565b6000602082840312156131a5576131a46120cd565b5b60006131b38482850161317a565b91505092915050565b7f4552433732313a206d696e7420746f20746865207a65726f2061646472657373600082015250565b60006131f260208361219d565b91506131fd826131bc565b602082019050919050565b60006020820190508181036000830152613221816131e5565b9050919050565b7f4552433732313a20746f6b656e20616c7265616479206d696e74656400000000600082015250565b600061325e601c8361219d565b915061326982613228565b602082019050919050565b6000602082019050818103600083015261328d81613251565b905091905056fea264697066735822122028f4b94ba04247464e6a0c99c4d58fe41b51d98173ea89abe73f86a1306e290d64736f6c6343000809003368747470733a2f2f676174657761792e70696e6174612e636c6f75642f697066732f516d50577a4b5a4b5973786e58765951583250664e366162375934714163644e594a5a55413461436f31394c33532f",
  "devdoc": {
    "kind": "dev",
    "methods": {
      "approve(address,uint256)": {
        "details": "See {IERC721-approve}."
      },
      "balanceOf(address)": {
        "details": "See {IERC721-balanceOf}."
      },
      "getApproved(uint256)": {
        "details": "See {IERC721-getApproved}."
      },
      "isApprovedForAll(address,address)": {
        "details": "See {IERC721-isApprovedForAll}."
      },
      "name()": {
        "details": "See {IERC721Metadata-name}."
      },
      "owner()": {
        "details": "Returns the address of the current owner."
      },
      "ownerOf(uint256)": {
        "details": "See {IERC721-ownerOf}."
      },
      "renounceOwnership()": {
        "details": "Leaves the contract without owner. It will not be possible to call `onlyOwner` functions anymore. Can only be called by the current owner. NOTE: Renouncing ownership will leave the contract without an owner, thereby removing any functionality that is only available to the owner."
      },
      "safeTransferFrom(address,address,uint256)": {
        "details": "See {IERC721-safeTransferFrom}."
      },
      "safeTransferFrom(address,address,uint256,bytes)": {
        "details": "See {IERC721-safeTransferFrom}."
      },
      "setApprovalForAll(address,bool)": {
        "details": "See {IERC721-setApprovalForAll}."
      },
      "supportsInterface(bytes4)": {
        "details": "See {IERC165-supportsInterface}."
      },
      "symbol()": {
        "details": "See {IERC721Metadata-symbol}."
      },
      "transferFrom(address,address,uint256)": {
        "details": "See {IERC721-transferFrom}."
      },
      "transferOwnership(address)": {
        "details": "Transfers ownership of the contract to a new account (`newOwner`). Can only be called by the current owner."
      }
    },
    "version": 1
  },
  "userdoc": {
    "kind": "user",
    "methods": {},
    "version": 1
  },
  "storageLayout": {
    "storage": [
      {
        "astId": 138,
        "contract": "contracts/NFT-MINT.sol:NFT_MINT",
        "label": "_name",
        "offset": 0,
        "slot": "0",
        "type": "t_string_storage"
      },
      {
        "astId": 140,
        "contract": "contracts/NFT-MINT.sol:NFT_MINT",
        "label": "_symbol",
        "offset": 0,
        "slot": "1",
        "type": "t_string_storage"
      },
      {
        "astId": 144,
        "contract": "contracts/NFT-MINT.sol:NFT_MINT",
        "label": "_owners",
        "offset": 0,
        "slot": "2",
        "type": "t_mapping(t_uint256,t_address)"
      },
      {
        "astId": 148,
        "contract": "contracts/NFT-MINT.sol:NFT_MINT",
        "label": "_balances",
        "offset": 0,
        "slot": "3",
        "type": "t_mapping(t_address,t_uint256)"
      },
      {
        "astId": 152,
        "contract": "contracts/NFT-MINT.sol:NFT_MINT",
        "label": "_tokenApprovals",
        "offset": 0,
        "slot": "4",
        "type": "t_mapping(t_uint256,t_address)"
      },
      {
        "astId": 158,
        "contract": "contracts/NFT-MINT.sol:NFT_MINT",
        "label": "_operatorApprovals",
        "offset": 0,
        "slot": "5",
        "type": "t_mapping(t_address,t_mapping(t_address,t_bool))"
      },
      {
        "astId": 7,
        "contract": "contracts/NFT-MINT.sol:NFT_MINT",
        "label": "_owner",
        "offset": 0,
        "slot": "6",
        "type": "t_address"
      },
      {
        "astId": 1736,
        "contract": "contracts/NFT-MINT.sol:NFT_MINT",
        "label": "_numTokens",
        "offset": 0,
        "slot": "7",
        "type": "t_uint256"
      },
      {
        "astId": 1740,
        "contract": "contracts/NFT-MINT.sol:NFT_MINT",
        "label": "verified",
        "offset": 0,
        "slot": "8",
        "type": "t_mapping(t_address,t_bool)"
      },
      {
        "astId": 1743,
        "contract": "contracts/NFT-MINT.sol:NFT_MINT",
        "label": "isSaleActive",
        "offset": 0,
        "slot": "9",
        "type": "t_bool"
      },
      {
        "astId": 1745,
        "contract": "contracts/NFT-MINT.sol:NFT_MINT",
        "label": "totalSupply",
        "offset": 0,
        "slot": "10",
        "type": "t_uint256"
      },
      {
        "astId": 1749,
        "contract": "contracts/NFT-MINT.sol:NFT_MINT",
        "label": "mintedPerWallet",
        "offset": 0,
        "slot": "11",
        "type": "t_mapping(t_address,t_uint256)"
      },
      {
        "astId": 1751,
        "contract": "contracts/NFT-MINT.sol:NFT_MINT",
        "label": "baseUri",
        "offset": 0,
        "slot": "12",
        "type": "t_string_storage"
      },
      {
        "astId": 1753,
        "contract": "contracts/NFT-MINT.sol:NFT_MINT",
        "label": "chk",
        "offset": 0,
        "slot": "13",
        "type": "t_uint256"
      },
      {
        "astId": 1755,
        "contract": "contracts/NFT-MINT.sol:NFT_MINT",
        "label": "h",
        "offset": 0,
        "slot": "14",
        "type": "t_uint200"
      },
      {
        "astId": 1758,
        "contract": "contracts/NFT-MINT.sol:NFT_MINT",
        "label": "cp",
        "offset": 0,
        "slot": "15",
        "type": "t_uint256"
      },
      {
        "astId": 1760,
        "contract": "contracts/NFT-MINT.sol:NFT_MINT",
        "label": "tokenId",
        "offset": 0,
        "slot": "16",
        "type": "t_uint256"
      }
    ],
    "types": {
      "t_address": {
        "encoding": "inplace",
        "label": "address",
        "numberOfBytes": "20"
      },
      "t_bool": {
        "encoding": "inplace",
        "label": "bool",
        "numberOfBytes": "1"
      },
      "t_mapping(t_address,t_bool)": {
        "encoding": "mapping",
        "key": "t_address",
        "label": "mapping(address => bool)",
        "numberOfBytes": "32",
        "value": "t_bool"
      },
      "t_mapping(t_address,t_mapping(t_address,t_bool))": {
        "encoding": "mapping",
        "key": "t_address",
        "label": "mapping(address => mapping(address => bool))",
        "numberOfBytes": "32",
        "value": "t_mapping(t_address,t_bool)"
      },
      "t_mapping(t_address,t_uint256)": {
        "encoding": "mapping",
        "key": "t_address",
        "label": "mapping(address => uint256)",
        "numberOfBytes": "32",
        "value": "t_uint256"
      },
      "t_mapping(t_uint256,t_address)": {
        "encoding": "mapping",
        "key": "t_uint256",
        "label": "mapping(uint256 => address)",
        "numberOfBytes": "32",
        "value": "t_address"
      },
      "t_string_storage": {
        "encoding": "bytes",
        "label": "string",
        "numberOfBytes": "32"
      },
      "t_uint200": {
        "encoding": "inplace",
        "label": "uint200",
        "numberOfBytes": "25"
      },
      "t_uint256": {
        "encoding": "inplace",
        "label": "uint256",
        "numberOfBytes": "32"
      }
    }
  }
}