{
  "_format": "hh-sol-artifact-1",
  "contractName": "NFT_MINT",
  "sourceName": "contracts/NFT-MINT.sol",
  "abi": [
    {
      "inputs": [],
      "stateMutability": "nonpayable",
      "type": "constructor"
    },
    {
      "anonymous": false,
      "inputs": [
        {
          "indexed": true,
          "internalType": "address",
          "name": "owner",
          "type": "address"
        },
        {
          "indexed": true,
          "internalType": "address",
          "name": "approved",
          "type": "address"
        },
        {
          "indexed": true,
          "internalType": "uint256",
          "name": "tokenId",
          "type": "uint256"
        }
      ],
      "name": "Approval",
      "type": "event"
    },
    {
      "anonymous": false,
      "inputs": [
        {
          "indexed": true,
          "internalType": "address",
          "name": "owner",
          "type": "address"
        },
        {
          "indexed": true,
          "internalType": "address",
          "name": "operator",
          "type": "address"
        },
        {
          "indexed": false,
          "internalType": "bool",
          "name": "approved",
          "type": "bool"
        }
      ],
      "name": "ApprovalForAll",
      "type": "event"
    },
    {
      "anonymous": false,
      "inputs": [
        {
          "indexed": true,
          "internalType": "address",
          "name": "previousOwner",
          "type": "address"
        },
        {
          "indexed": true,
          "internalType": "address",
          "name": "newOwner",
          "type": "address"
        }
      ],
      "name": "OwnershipTransferred",
      "type": "event"
    },
    {
      "anonymous": false,
      "inputs": [
        {
          "indexed": true,
          "internalType": "address",
          "name": "from",
          "type": "address"
        },
        {
          "indexed": true,
          "internalType": "address",
          "name": "to",
          "type": "address"
        },
        {
          "indexed": true,
          "internalType": "uint256",
          "name": "tokenId",
          "type": "uint256"
        }
      ],
      "name": "Transfer",
      "type": "event"
    },
    {
      "inputs": [],
      "name": "MAX_MINT_PER_TX",
      "outputs": [
        {
          "internalType": "uint256",
          "name": "",
          "type": "uint256"
        }
      ],
      "stateMutability": "view",
      "type": "function"
    },
    {
      "inputs": [],
      "name": "MAX_TOKENS",
      "outputs": [
        {
          "internalType": "uint256",
          "name": "",
          "type": "uint256"
        }
      ],
      "stateMutability": "view",
      "type": "function"
    },
    {
      "inputs": [
        {
          "internalType": "address",
          "name": "to",
          "type": "address"
        },
        {
          "internalType": "uint256",
          "name": "tokenId",
          "type": "uint256"
        }
      ],
      "name": "approve",
      "outputs": [],
      "stateMutability": "nonpayable",
      "type": "function"
    },
    {
      "inputs": [
        {
          "internalType": "address",
          "name": "owner",
          "type": "address"
        }
      ],
      "name": "balanceOf",
      "outputs": [
        {
          "internalType": "uint256",
          "name": "",
          "type": "uint256"
        }
      ],
      "stateMutability": "view",
      "type": "function"
    },
    {
      "inputs": [],
      "name": "baseExtension",
      "outputs": [
        {
          "internalType": "string",
          "name": "",
          "type": "string"
        }
      ],
      "stateMutability": "view",
      "type": "function"
    },
    {
      "inputs": [],
      "name": "baseUri",
      "outputs": [
        {
          "internalType": "string",
          "name": "",
          "type": "string"
        }
      ],
      "stateMutability": "view",
      "type": "function"
    },
    {
      "inputs": [],
      "name": "flipSaleState",
      "outputs": [],
      "stateMutability": "nonpayable",
      "type": "function"
    },
    {
      "inputs": [
        {
          "internalType": "uint256",
          "name": "tokenId",
          "type": "uint256"
        }
      ],
      "name": "getApproved",
      "outputs": [
        {
          "internalType": "address",
          "name": "",
          "type": "address"
        }
      ],
      "stateMutability": "view",
      "type": "function"
    },
    {
      "inputs": [],
      "name": "getTotalSupply",
      "outputs": [
        {
          "internalType": "uint256",
          "name": "",
          "type": "uint256"
        }
      ],
      "stateMutability": "view",
      "type": "function"
    },
    {
      "inputs": [],
      "name": "getVerifiedstatus",
      "outputs": [
        {
          "internalType": "bool",
          "name": "",
          "type": "bool"
        }
      ],
      "stateMutability": "view",
      "type": "function"
    },
    {
      "inputs": [],
      "name": "getchk",
      "outputs": [
        {
          "internalType": "uint256",
          "name": "",
          "type": "uint256"
        }
      ],
      "stateMutability": "view",
      "type": "function"
    },
    {
      "inputs": [
        {
          "internalType": "address",
          "name": "owner",
          "type": "address"
        },
        {
          "internalType": "address",
          "name": "operator",
          "type": "address"
        }
      ],
      "name": "isApprovedForAll",
      "outputs": [
        {
          "internalType": "bool",
          "name": "",
          "type": "bool"
        }
      ],
      "stateMutability": "view",
      "type": "function"
    },
    {
      "inputs": [],
      "name": "isSaleActive",
      "outputs": [
        {
          "internalType": "bool",
          "name": "",
          "type": "bool"
        }
      ],
      "stateMutability": "view",
      "type": "function"
    },
    {
      "inputs": [
        {
          "internalType": "uint256",
          "name": "_numTokens",
          "type": "uint256"
        }
      ],
      "name": "mint",
      "outputs": [],
      "stateMutability": "payable",
      "type": "function"
    },
    {
      "inputs": [],
      "name": "name",
      "outputs": [
        {
          "internalType": "string",
          "name": "",
          "type": "string"
        }
      ],
      "stateMutability": "view",
      "type": "function"
    },
    {
      "inputs": [],
      "name": "owner",
      "outputs": [
        {
          "internalType": "address",
          "name": "",
          "type": "address"
        }
      ],
      "stateMutability": "view",
      "type": "function"
    },
    {
      "inputs": [
        {
          "internalType": "uint256",
          "name": "tokenId",
          "type": "uint256"
        }
      ],
      "name": "ownerOf",
      "outputs": [
        {
          "internalType": "address",
          "name": "",
          "type": "address"
        }
      ],
      "stateMutability": "view",
      "type": "function"
    },
    {
      "inputs": [],
      "name": "price",
      "outputs": [
        {
          "internalType": "uint256",
          "name": "",
          "type": "uint256"
        }
      ],
      "stateMutability": "view",
      "type": "function"
    },
    {
      "inputs": [],
      "name": "renounceOwnership",
      "outputs": [],
      "stateMutability": "nonpayable",
      "type": "function"
    },
    {
      "inputs": [
        {
          "internalType": "address",
          "name": "from",
          "type": "address"
        },
        {
          "internalType": "address",
          "name": "to",
          "type": "address"
        },
        {
          "internalType": "uint256",
          "name": "tokenId",
          "type": "uint256"
        }
      ],
      "name": "safeTransferFrom",
      "outputs": [],
      "stateMutability": "nonpayable",
      "type": "function"
    },
    {
      "inputs": [
        {
          "internalType": "address",
          "name": "from",
          "type": "address"
        },
        {
          "internalType": "address",
          "name": "to",
          "type": "address"
        },
        {
          "internalType": "uint256",
          "name": "tokenId",
          "type": "uint256"
        },
        {
          "internalType": "bytes",
          "name": "data",
          "type": "bytes"
        }
      ],
      "name": "safeTransferFrom",
      "outputs": [],
      "stateMutability": "nonpayable",
      "type": "function"
    },
    {
      "inputs": [
        {
          "internalType": "address",
          "name": "operator",
          "type": "address"
        },
        {
          "internalType": "bool",
          "name": "approved",
          "type": "bool"
        }
      ],
      "name": "setApprovalForAll",
      "outputs": [],
      "stateMutability": "nonpayable",
      "type": "function"
    },
    {
      "inputs": [
        {
          "internalType": "string",
          "name": "_baseUri",
          "type": "string"
        }
      ],
      "name": "setBaseUri",
      "outputs": [],
      "stateMutability": "nonpayable",
      "type": "function"
    },
    {
      "inputs": [
        {
          "internalType": "uint256",
          "name": "_price",
          "type": "uint256"
        }
      ],
      "name": "setPrice",
      "outputs": [],
      "stateMutability": "nonpayable",
      "type": "function"
    },
    {
      "inputs": [
        {
          "internalType": "bytes4",
          "name": "interfaceId",
          "type": "bytes4"
        }
      ],
      "name": "supportsInterface",
      "outputs": [
        {
          "internalType": "bool",
          "name": "",
          "type": "bool"
        }
      ],
      "stateMutability": "view",
      "type": "function"
    },
    {
      "inputs": [],
      "name": "symbol",
      "outputs": [
        {
          "internalType": "string",
          "name": "",
          "type": "string"
        }
      ],
      "stateMutability": "view",
      "type": "function"
    },
    {
      "inputs": [
        {
          "internalType": "uint256",
          "name": "tokenId",
          "type": "uint256"
        }
      ],
      "name": "tokenURI",
      "outputs": [
        {
          "internalType": "string",
          "name": "",
          "type": "string"
        }
      ],
      "stateMutability": "view",
      "type": "function"
    },
    {
      "inputs": [],
      "name": "totalSupply",
      "outputs": [
        {
          "internalType": "uint256",
          "name": "",
          "type": "uint256"
        }
      ],
      "stateMutability": "view",
      "type": "function"
    },
    {
      "inputs": [
        {
          "internalType": "address",
          "name": "from",
          "type": "address"
        },
        {
          "internalType": "address",
          "name": "to",
          "type": "address"
        },
        {
          "internalType": "uint256",
          "name": "tokenId",
          "type": "uint256"
        }
      ],
      "name": "transferFrom",
      "outputs": [],
      "stateMutability": "nonpayable",
      "type": "function"
    },
    {
      "inputs": [
        {
          "internalType": "address",
          "name": "newOwner",
          "type": "address"
        }
      ],
      "name": "transferOwnership",
      "outputs": [],
      "stateMutability": "nonpayable",
      "type": "function"
    }
  ],
  "bytecode": "0x608060405267016345785d8a00006007556001600960006101000a81548160ff0219169083151502179055506040518060400160405280600581526020017f2e6a736f6e000000000000000000000000000000000000000000000000000000815250600d90805190602001906200007892919062000751565b503480156200008657600080fd5b506040518060400160405280600681526020017f442d4155544800000000000000000000000000000000000000000000000000008152506040518060400160405280600381526020017f444155000000000000000000000000000000000000000000000000000000000081525081600090805190602001906200010b92919062000751565b5080600190805190602001906200012492919062000751565b505050620001476200013b620001a260201b60201c565b620001aa60201b60201c565b6040518060600160405280602781526020016200414460279139600c90805190602001906200017892919062000751565b506200018c3360016200027060201b60201c565b6001600a819055506001600e8190555062000c6b565b600033905090565b6000600660009054906101000a900473ffffffffffffffffffffffffffffffffffffffff16905081600660006101000a81548173ffffffffffffffffffffffffffffffffffffffff021916908373ffffffffffffffffffffffffffffffffffffffff1602179055508173ffffffffffffffffffffffffffffffffffffffff168173ffffffffffffffffffffffffffffffffffffffff167f8be0079c531659141344cd1fd0a4f28419497f9722a3daafe3b4186f6b6457e060405160405180910390a35050565b620002928282604051806020016040528060008152506200029660201b60201c565b5050565b620002a883836200030460201b60201c565b620002bd6000848484620004fe60201b60201c565b620002ff576040517f08c379a0000000000000000000000000000000000000000000000000000000008152600401620002f69062000888565b60405180910390fd5b505050565b600073ffffffffffffffffffffffffffffffffffffffff168273ffffffffffffffffffffffffffffffffffffffff16141562000377576040517f08c379a00000000000000000000000000000000000000000000000000000000081526004016200036e90620008fa565b60405180910390fd5b6200038881620006b860201b60201c565b15620003cb576040517f08c379a0000000000000000000000000000000000000000000000000000000008152600401620003c2906200096c565b60405180910390fd5b620003df600083836200072460201b60201c565b6001600360008473ffffffffffffffffffffffffffffffffffffffff1673ffffffffffffffffffffffffffffffffffffffff1681526020019081526020016000206000828254620004319190620009c7565b92505081905550816002600083815260200190815260200160002060006101000a81548173ffffffffffffffffffffffffffffffffffffffff021916908373ffffffffffffffffffffffffffffffffffffffff160217905550808273ffffffffffffffffffffffffffffffffffffffff16600073ffffffffffffffffffffffffffffffffffffffff167fddf252ad1be2c89b69c2b068fc378daa952ba7f163c4a11628f55a4df523b3ef60405160405180910390a4620004fa600083836200072960201b60201c565b5050565b60006200052c8473ffffffffffffffffffffffffffffffffffffffff166200072e60201b620013751760201c565b15620006ab578373ffffffffffffffffffffffffffffffffffffffff1663150b7a026200055e620001a260201b60201c565b8786866040518563ffffffff1660e01b815260040162000582949392919062000b1e565b602060405180830381600087803b1580156200059d57600080fd5b505af1925050508015620005d157506040513d601f19601f82011682018060405250810190620005ce919062000bd4565b60015b6200065a573d806000811462000604576040519150601f19603f3d011682016040523d82523d6000602084013e62000609565b606091505b5060008151141562000652576040517f08c379a0000000000000000000000000000000000000000000000000000000008152600401620006499062000888565b60405180910390fd5b805181602001fd5b63150b7a0260e01b7bffffffffffffffffffffffffffffffffffffffffffffffffffffffff1916817bffffffffffffffffffffffffffffffffffffffffffffffffffffffff191614915050620006b0565b600190505b949350505050565b60008073ffffffffffffffffffffffffffffffffffffffff166002600084815260200190815260200160002060009054906101000a900473ffffffffffffffffffffffffffffffffffffffff1673ffffffffffffffffffffffffffffffffffffffff1614159050919050565b505050565b505050565b6000808273ffffffffffffffffffffffffffffffffffffffff163b119050919050565b8280546200075f9062000c35565b90600052602060002090601f016020900481019282620007835760008555620007cf565b82601f106200079e57805160ff1916838001178555620007cf565b82800160010185558215620007cf579182015b82811115620007ce578251825591602001919060010190620007b1565b5b509050620007de9190620007e2565b5090565b5b80821115620007fd576000816000905550600101620007e3565b5090565b600082825260208201905092915050565b7f4552433732313a207472616e7366657220746f206e6f6e20455243373231526560008201527f63656976657220696d706c656d656e7465720000000000000000000000000000602082015250565b60006200087060328362000801565b91506200087d8262000812565b604082019050919050565b60006020820190508181036000830152620008a38162000861565b9050919050565b7f4552433732313a206d696e7420746f20746865207a65726f2061646472657373600082015250565b6000620008e260208362000801565b9150620008ef82620008aa565b602082019050919050565b600060208201905081810360008301526200091581620008d3565b9050919050565b7f4552433732313a20746f6b656e20616c7265616479206d696e74656400000000600082015250565b600062000954601c8362000801565b915062000961826200091c565b602082019050919050565b60006020820190508181036000830152620009878162000945565b9050919050565b6000819050919050565b7f4e487b7100000000000000000000000000000000000000000000000000000000600052601160045260246000fd5b6000620009d4826200098e565b9150620009e1836200098e565b9250827fffffffffffffffffffffffffffffffffffffffffffffffffffffffffffffffff0382111562000a195762000a1862000998565b5b828201905092915050565b600073ffffffffffffffffffffffffffffffffffffffff82169050919050565b600062000a518262000a24565b9050919050565b62000a638162000a44565b82525050565b62000a74816200098e565b82525050565b600081519050919050565b600082825260208201905092915050565b60005b8381101562000ab657808201518184015260208101905062000a99565b8381111562000ac6576000848401525b50505050565b6000601f19601f8301169050919050565b600062000aea8262000a7a565b62000af6818562000a85565b935062000b0881856020860162000a96565b62000b138162000acc565b840191505092915050565b600060808201905062000b35600083018762000a58565b62000b44602083018662000a58565b62000b53604083018562000a69565b818103606083015262000b67818462000add565b905095945050505050565b600080fd5b60007fffffffff0000000000000000000000000000000000000000000000000000000082169050919050565b62000bae8162000b77565b811462000bba57600080fd5b50565b60008151905062000bce8162000ba3565b92915050565b60006020828403121562000bed5762000bec62000b72565b5b600062000bfd8482850162000bbd565b91505092915050565b7f4e487b7100000000000000000000000000000000000000000000000000000000600052602260045260246000fd5b6000600282049050600182168062000c4e57607f821691505b6020821081141562000c655762000c6462000c06565b5b50919050565b6134c98062000c7b6000396000f3fe6080604052600436106101cd5760003560e01c806391b7f5ed116100f7578063b88d4fde11610095578063c87b56dd11610064578063c87b56dd14610633578063e985e9c514610670578063f2fde38b146106ad578063f47c84c5146106d6576101cd565b8063b88d4fde14610589578063c4e41b22146105b2578063c6682862146105dd578063c7f78feb14610608576101cd565b8063a035b1fe116100d1578063a035b1fe146104f0578063a0712d681461051b578063a0bcfc7f14610537578063a22cb46514610560576101cd565b806391b7f5ed1461047157806395d89b411461049a5780639abc8320146104c5576101cd565b806342842e0e1161016f57806370a082311161013e57806370a08231146103c7578063715018a6146104045780638da5cb5b1461041b5780638ecad72114610446576101cd565b806342842e0e1461030b578063564566a8146103345780636352211e1461035f5780636e9ea4bb1461039c576101cd565b8063095ea7b3116101ab578063095ea7b31461027757806318160ddd146102a057806323b872dd146102cb57806334918dfd146102f4576101cd565b806301ffc9a7146101d257806306fdde031461020f578063081812fc1461023a575b600080fd5b3480156101de57600080fd5b506101f960048036038101906101f491906121fe565b610701565b6040516102069190612246565b60405180910390f35b34801561021b57600080fd5b506102246107e3565b60405161023191906122fa565b60405180910390f35b34801561024657600080fd5b50610261600480360381019061025c9190612352565b610875565b60405161026e91906123c0565b60405180910390f35b34801561028357600080fd5b5061029e60048036038101906102999190612407565b6108bb565b005b3480156102ac57600080fd5b506102b56109d3565b6040516102c29190612456565b60405180910390f35b3480156102d757600080fd5b506102f260048036038101906102ed9190612471565b6109d9565b005b34801561030057600080fd5b50610309610a39565b005b34801561031757600080fd5b50610332600480360381019061032d9190612471565b610a6d565b005b34801561034057600080fd5b50610349610a8d565b6040516103569190612246565b60405180910390f35b34801561036b57600080fd5b5061038660048036038101906103819190612352565b610aa0565b60405161039391906123c0565b60405180910390f35b3480156103a857600080fd5b506103b1610b52565b6040516103be9190612246565b60405180910390f35b3480156103d357600080fd5b506103ee60048036038101906103e991906124c4565b610ba6565b6040516103fb9190612456565b60405180910390f35b34801561041057600080fd5b50610419610c5e565b005b34801561042757600080fd5b50610430610c72565b60405161043d91906123c0565b60405180910390f35b34801561045257600080fd5b5061045b610c9c565b6040516104689190612456565b60405180910390f35b34801561047d57600080fd5b5061049860048036038101906104939190612352565b610ca1565b005b3480156104a657600080fd5b506104af610cb3565b6040516104bc91906122fa565b60405180910390f35b3480156104d157600080fd5b506104da610d45565b6040516104e791906122fa565b60405180910390f35b3480156104fc57600080fd5b50610505610dd3565b6040516105129190612456565b60405180910390f35b61053560048036038101906105309190612352565b610dd9565b005b34801561054357600080fd5b5061055e60048036038101906105599190612626565b6110b3565b005b34801561056c57600080fd5b506105876004803603810190610582919061269b565b6110d5565b005b34801561059557600080fd5b506105b060048036038101906105ab919061277c565b6110eb565b005b3480156105be57600080fd5b506105c761114d565b6040516105d49190612456565b60405180910390f35b3480156105e957600080fd5b506105f2611157565b6040516105ff91906122fa565b60405180910390f35b34801561061457600080fd5b5061061d6111e5565b60405161062a9190612456565b60405180910390f35b34801561063f57600080fd5b5061065a60048036038101906106559190612352565b6111ef565b60405161066791906122fa565b60405180910390f35b34801561067c57600080fd5b50610697600480360381019061069291906127ff565b611257565b6040516106a49190612246565b60405180910390f35b3480156106b957600080fd5b506106d460048036038101906106cf91906124c4565b6112eb565b005b3480156106e257600080fd5b506106eb61136f565b6040516106f89190612456565b60405180910390f35b60007f80ac58cd000000000000000000000000000000000000000000000000000000007bffffffffffffffffffffffffffffffffffffffffffffffffffffffff1916827bffffffffffffffffffffffffffffffffffffffffffffffffffffffff191614806107cc57507f5b5e139f000000000000000000000000000000000000000000000000000000007bffffffffffffffffffffffffffffffffffffffffffffffffffffffff1916827bffffffffffffffffffffffffffffffffffffffffffffffffffffffff1916145b806107dc57506107db82611398565b5b9050919050565b6060600080546107f29061286e565b80601f016020809104026020016040519081016040528092919081815260200182805461081e9061286e565b801561086b5780601f106108405761010080835404028352916020019161086b565b820191906000526020600020905b81548152906001019060200180831161084e57829003601f168201915b5050505050905090565b600061088082611402565b6004600083815260200190815260200160002060009054906101000a900473ffffffffffffffffffffffffffffffffffffffff169050919050565b60006108c682610aa0565b90508073ffffffffffffffffffffffffffffffffffffffff168373ffffffffffffffffffffffffffffffffffffffff161415610937576040517f08c379a000000000000000000000000000000000000000000000000000000000815260040161092e90612912565b60405180910390fd5b8073ffffffffffffffffffffffffffffffffffffffff1661095661144d565b73ffffffffffffffffffffffffffffffffffffffff16148061098557506109848161097f61144d565b611257565b5b6109c4576040517f08c379a00000000000000000000000000000000000000000000000000000000081526004016109bb906129a4565b60405180910390fd5b6109ce8383611455565b505050565b600a5481565b6109ea6109e461144d565b8261150e565b610a29576040517f08c379a0000000000000000000000000000000000000000000000000000000008152600401610a2090612a36565b60405180910390fd5b610a348383836115a3565b505050565b610a4161180a565b600960009054906101000a900460ff1615600960006101000a81548160ff021916908315150217905550565b610a88838383604051806020016040528060008152506110eb565b505050565b600960009054906101000a900460ff1681565b6000806002600084815260200190815260200160002060009054906101000a900473ffffffffffffffffffffffffffffffffffffffff169050600073ffffffffffffffffffffffffffffffffffffffff168173ffffffffffffffffffffffffffffffffffffffff161415610b49576040517f08c379a0000000000000000000000000000000000000000000000000000000008152600401610b4090612aa2565b60405180910390fd5b80915050919050565b6000600860003373ffffffffffffffffffffffffffffffffffffffff1673ffffffffffffffffffffffffffffffffffffffff16815260200190815260200160002060009054906101000a900460ff16905090565b60008073ffffffffffffffffffffffffffffffffffffffff168273ffffffffffffffffffffffffffffffffffffffff161415610c17576040517f08c379a0000000000000000000000000000000000000000000000000000000008152600401610c0e90612b34565b60405180910390fd5b600360008373ffffffffffffffffffffffffffffffffffffffff1673ffffffffffffffffffffffffffffffffffffffff168152602001908152602001600020549050919050565b610c6661180a565b610c706000611888565b565b6000600660009054906101000a900473ffffffffffffffffffffffffffffffffffffffff16905090565b600181565b610ca961180a565b8060078190555050565b606060018054610cc29061286e565b80601f0160208091040260200160405190810160405280929190818152602001828054610cee9061286e565b8015610d3b5780601f10610d1057610100808354040283529160200191610d3b565b820191906000526020600020905b815481529060010190602001808311610d1e57829003601f168201915b5050505050905090565b600c8054610d529061286e565b80601f0160208091040260200160405190810160405280929190818152602001828054610d7e9061286e565b8015610dcb5780601f10610da057610100808354040283529160200191610dcb565b820191906000526020600020905b815481529060010190602001808311610dae57829003601f168201915b505050505081565b60075481565b600860003373ffffffffffffffffffffffffffffffffffffffff1673ffffffffffffffffffffffffffffffffffffffff16815260200190815260200160002060009054906101000a900460ff1615610e66576040517f08c379a0000000000000000000000000000000000000000000000000000000008152600401610e5d90612ba0565b60405180910390fd5b600960009054906101000a900460ff16610eb5576040517f08c379a0000000000000000000000000000000000000000000000000000000008152600401610eac90612c0c565b60405180910390fd5b6001811115610ef9576040517f08c379a0000000000000000000000000000000000000000000000000000000008152600401610ef090612c9e565b60405180910390fd5b600181600b60003373ffffffffffffffffffffffffffffffffffffffff1673ffffffffffffffffffffffffffffffffffffffff16815260200190815260200160002054610f469190612ced565b1115610f87576040517f08c379a0000000000000000000000000000000000000000000000000000000008152600401610f7e90612d8f565b60405180910390fd5b6000600a5490506127108282610f9d9190612ced565b1115610fde576040517f08c379a0000000000000000000000000000000000000000000000000000000008152600401610fd590612dfb565b60405180910390fd5b610fe8338261194e565b81600b60003373ffffffffffffffffffffffffffffffffffffffff1673ffffffffffffffffffffffffffffffffffffffff16815260200190815260200160002060008282546110379190612ced565b9250508190555081600a60008282546110509190612ced565b925050819055506001600860003373ffffffffffffffffffffffffffffffffffffffff1673ffffffffffffffffffffffffffffffffffffffff16815260200190815260200160002060006101000a81548160ff0219169083151502179055505050565b6110bb61180a565b80600c90805190602001906110d19291906120ef565b5050565b6110e76110e061144d565b838361196c565b5050565b6110fc6110f661144d565b8361150e565b61113b576040517f08c379a000000000000000000000000000000000000000000000000000000000815260040161113290612a36565b60405180910390fd5b61114784848484611ad9565b50505050565b6000600a54905090565b600d80546111649061286e565b80601f01602080910402602001604051908101604052809291908181526020018280546111909061286e565b80156111dd5780601f106111b2576101008083540402835291602001916111dd565b820191906000526020600020905b8154815290600101906020018083116111c057829003601f168201915b505050505081565b6000600e54905090565b60606111fa82611402565b6000611204611b35565b90506000815111611224576040518060200160405280600081525061124f565b8061122e84611b4c565b60405160200161123f929190612e57565b6040516020818303038152906040525b915050919050565b6000600560008473ffffffffffffffffffffffffffffffffffffffff1673ffffffffffffffffffffffffffffffffffffffff16815260200190815260200160002060008373ffffffffffffffffffffffffffffffffffffffff1673ffffffffffffffffffffffffffffffffffffffff16815260200190815260200160002060009054906101000a900460ff16905092915050565b6112f361180a565b600073ffffffffffffffffffffffffffffffffffffffff168173ffffffffffffffffffffffffffffffffffffffff161415611363576040517f08c379a000000000000000000000000000000000000000000000000000000000815260040161135a90612eed565b60405180910390fd5b61136c81611888565b50565b61271081565b6000808273ffffffffffffffffffffffffffffffffffffffff163b119050919050565b60007f01ffc9a7000000000000000000000000000000000000000000000000000000007bffffffffffffffffffffffffffffffffffffffffffffffffffffffff1916827bffffffffffffffffffffffffffffffffffffffffffffffffffffffff1916149050919050565b61140b81611cad565b61144a576040517f08c379a000000000000000000000000000000000000000000000000000000000815260040161144190612aa2565b60405180910390fd5b50565b600033905090565b816004600083815260200190815260200160002060006101000a81548173ffffffffffffffffffffffffffffffffffffffff021916908373ffffffffffffffffffffffffffffffffffffffff160217905550808273ffffffffffffffffffffffffffffffffffffffff166114c883610aa0565b73ffffffffffffffffffffffffffffffffffffffff167f8c5be1e5ebec7d5bd14f71427d1e84f3dd0314c0f7b2291e5b200ac8c7c3b92560405160405180910390a45050565b60008061151a83610aa0565b90508073ffffffffffffffffffffffffffffffffffffffff168473ffffffffffffffffffffffffffffffffffffffff16148061155c575061155b8185611257565b5b8061159a57508373ffffffffffffffffffffffffffffffffffffffff1661158284610875565b73ffffffffffffffffffffffffffffffffffffffff16145b91505092915050565b8273ffffffffffffffffffffffffffffffffffffffff166115c382610aa0565b73ffffffffffffffffffffffffffffffffffffffff1614611619576040517f08c379a000000000000000000000000000000000000000000000000000000000815260040161161090612f7f565b60405180910390fd5b600073ffffffffffffffffffffffffffffffffffffffff168273ffffffffffffffffffffffffffffffffffffffff161415611689576040517f08c379a000000000000000000000000000000000000000000000000000000000815260040161168090613011565b60405180910390fd5b611694838383611d19565b61169f600082611455565b6001600360008573ffffffffffffffffffffffffffffffffffffffff1673ffffffffffffffffffffffffffffffffffffffff16815260200190815260200160002060008282546116ef9190613031565b925050819055506001600360008473ffffffffffffffffffffffffffffffffffffffff1673ffffffffffffffffffffffffffffffffffffffff16815260200190815260200160002060008282546117469190612ced565b92505081905550816002600083815260200190815260200160002060006101000a81548173ffffffffffffffffffffffffffffffffffffffff021916908373ffffffffffffffffffffffffffffffffffffffff160217905550808273ffffffffffffffffffffffffffffffffffffffff168473ffffffffffffffffffffffffffffffffffffffff167fddf252ad1be2c89b69c2b068fc378daa952ba7f163c4a11628f55a4df523b3ef60405160405180910390a4611805838383611d1e565b505050565b61181261144d565b73ffffffffffffffffffffffffffffffffffffffff16611830610c72565b73ffffffffffffffffffffffffffffffffffffffff1614611886576040517f08c379a000000000000000000000000000000000000000000000000000000000815260040161187d906130b1565b60405180910390fd5b565b6000600660009054906101000a900473ffffffffffffffffffffffffffffffffffffffff16905081600660006101000a81548173ffffffffffffffffffffffffffffffffffffffff021916908373ffffffffffffffffffffffffffffffffffffffff1602179055508173ffffffffffffffffffffffffffffffffffffffff168173ffffffffffffffffffffffffffffffffffffffff167f8be0079c531659141344cd1fd0a4f28419497f9722a3daafe3b4186f6b6457e060405160405180910390a35050565b611968828260405180602001604052806000815250611d23565b5050565b8173ffffffffffffffffffffffffffffffffffffffff168373ffffffffffffffffffffffffffffffffffffffff1614156119db576040517f08c379a00000000000000000000000000000000000000000000000000000000081526004016119d29061311d565b60405180910390fd5b80600560008573ffffffffffffffffffffffffffffffffffffffff1673ffffffffffffffffffffffffffffffffffffffff16815260200190815260200160002060008473ffffffffffffffffffffffffffffffffffffffff1673ffffffffffffffffffffffffffffffffffffffff16815260200190815260200160002060006101000a81548160ff0219169083151502179055508173ffffffffffffffffffffffffffffffffffffffff168373ffffffffffffffffffffffffffffffffffffffff167f17307eab39ab6107e8899845ad3d59bd9653f200f220920489ca2b5937696c3183604051611acc9190612246565b60405180910390a3505050565b611ae48484846115a3565b611af084848484611d7e565b611b2f576040517f08c379a0000000000000000000000000000000000000000000000000000000008152600401611b26906131af565b60405180910390fd5b50505050565b606060405180602001604052806000815250905090565b60606000821415611b94576040518060400160405280600181526020017f30000000000000000000000000000000000000000000000000000000000000008152509050611ca8565b600082905060005b60008214611bc6578080611baf906131cf565b915050600a82611bbf9190613247565b9150611b9c565b60008167ffffffffffffffff811115611be257611be16124fb565b5b6040519080825280601f01601f191660200182016040528015611c145781602001600182028036833780820191505090505b5090505b60008514611ca157600182611c2d9190613031565b9150600a85611c3c9190613278565b6030611c489190612ced565b60f81b818381518110611c5e57611c5d6132a9565b5b60200101907effffffffffffffffffffffffffffffffffffffffffffffffffffffffffffff1916908160001a905350600a85611c9a9190613247565b9450611c18565b8093505050505b919050565b60008073ffffffffffffffffffffffffffffffffffffffff166002600084815260200190815260200160002060009054906101000a900473ffffffffffffffffffffffffffffffffffffffff1673ffffffffffffffffffffffffffffffffffffffff1614159050919050565b505050565b505050565b611d2d8383611f15565b611d3a6000848484611d7e565b611d79576040517f08c379a0000000000000000000000000000000000000000000000000000000008152600401611d70906131af565b60405180910390fd5b505050565b6000611d9f8473ffffffffffffffffffffffffffffffffffffffff16611375565b15611f08578373ffffffffffffffffffffffffffffffffffffffff1663150b7a02611dc861144d565b8786866040518563ffffffff1660e01b8152600401611dea949392919061332d565b602060405180830381600087803b158015611e0457600080fd5b505af1925050508015611e3557506040513d601f19601f82011682018060405250810190611e32919061338e565b60015b611eb8573d8060008114611e65576040519150601f19603f3d011682016040523d82523d6000602084013e611e6a565b606091505b50600081511415611eb0576040517f08c379a0000000000000000000000000000000000000000000000000000000008152600401611ea7906131af565b60405180910390fd5b805181602001fd5b63150b7a0260e01b7bffffffffffffffffffffffffffffffffffffffffffffffffffffffff1916817bffffffffffffffffffffffffffffffffffffffffffffffffffffffff191614915050611f0d565b600190505b949350505050565b600073ffffffffffffffffffffffffffffffffffffffff168273ffffffffffffffffffffffffffffffffffffffff161415611f85576040517f08c379a0000000000000000000000000000000000000000000000000000000008152600401611f7c90613407565b60405180910390fd5b611f8e81611cad565b15611fce576040517f08c379a0000000000000000000000000000000000000000000000000000000008152600401611fc590613473565b60405180910390fd5b611fda60008383611d19565b6001600360008473ffffffffffffffffffffffffffffffffffffffff1673ffffffffffffffffffffffffffffffffffffffff168152602001908152602001600020600082825461202a9190612ced565b92505081905550816002600083815260200190815260200160002060006101000a81548173ffffffffffffffffffffffffffffffffffffffff021916908373ffffffffffffffffffffffffffffffffffffffff160217905550808273ffffffffffffffffffffffffffffffffffffffff16600073ffffffffffffffffffffffffffffffffffffffff167fddf252ad1be2c89b69c2b068fc378daa952ba7f163c4a11628f55a4df523b3ef60405160405180910390a46120eb60008383611d1e565b5050565b8280546120fb9061286e565b90600052602060002090601f01602090048101928261211d5760008555612164565b82601f1061213657805160ff1916838001178555612164565b82800160010185558215612164579182015b82811115612163578251825591602001919060010190612148565b5b5090506121719190612175565b5090565b5b8082111561218e576000816000905550600101612176565b5090565b6000604051905090565b600080fd5b600080fd5b60007fffffffff0000000000000000000000000000000000000000000000000000000082169050919050565b6121db816121a6565b81146121e657600080fd5b50565b6000813590506121f8816121d2565b92915050565b6000602082840312156122145761221361219c565b5b6000612222848285016121e9565b91505092915050565b60008115159050919050565b6122408161222b565b82525050565b600060208201905061225b6000830184612237565b92915050565b600081519050919050565b600082825260208201905092915050565b60005b8381101561229b578082015181840152602081019050612280565b838111156122aa576000848401525b50505050565b6000601f19601f8301169050919050565b60006122cc82612261565b6122d6818561226c565b93506122e681856020860161227d565b6122ef816122b0565b840191505092915050565b6000602082019050818103600083015261231481846122c1565b905092915050565b6000819050919050565b61232f8161231c565b811461233a57600080fd5b50565b60008135905061234c81612326565b92915050565b6000602082840312156123685761236761219c565b5b60006123768482850161233d565b91505092915050565b600073ffffffffffffffffffffffffffffffffffffffff82169050919050565b60006123aa8261237f565b9050919050565b6123ba8161239f565b82525050565b60006020820190506123d560008301846123b1565b92915050565b6123e48161239f565b81146123ef57600080fd5b50565b600081359050612401816123db565b92915050565b6000806040838503121561241e5761241d61219c565b5b600061242c858286016123f2565b925050602061243d8582860161233d565b9150509250929050565b6124508161231c565b82525050565b600060208201905061246b6000830184612447565b92915050565b60008060006060848603121561248a5761248961219c565b5b6000612498868287016123f2565b93505060206124a9868287016123f2565b92505060406124ba8682870161233d565b9150509250925092565b6000602082840312156124da576124d961219c565b5b60006124e8848285016123f2565b91505092915050565b600080fd5b600080fd5b7f4e487b7100000000000000000000000000000000000000000000000000000000600052604160045260246000fd5b612533826122b0565b810181811067ffffffffffffffff82111715612552576125516124fb565b5b80604052505050565b6000612565612192565b9050612571828261252a565b919050565b600067ffffffffffffffff821115612591576125906124fb565b5b61259a826122b0565b9050602081019050919050565b82818337600083830152505050565b60006125c96125c484612576565b61255b565b9050828152602081018484840111156125e5576125e46124f6565b5b6125f08482856125a7565b509392505050565b600082601f83011261260d5761260c6124f1565b5b813561261d8482602086016125b6565b91505092915050565b60006020828403121561263c5761263b61219c565b5b600082013567ffffffffffffffff81111561265a576126596121a1565b5b612666848285016125f8565b91505092915050565b6126788161222b565b811461268357600080fd5b50565b6000813590506126958161266f565b92915050565b600080604083850312156126b2576126b161219c565b5b60006126c0858286016123f2565b92505060206126d185828601612686565b9150509250929050565b600067ffffffffffffffff8211156126f6576126f56124fb565b5b6126ff826122b0565b9050602081019050919050565b600061271f61271a846126db565b61255b565b90508281526020810184848401111561273b5761273a6124f6565b5b6127468482856125a7565b509392505050565b600082601f830112612763576127626124f1565b5b813561277384826020860161270c565b91505092915050565b600080600080608085870312156127965761279561219c565b5b60006127a4878288016123f2565b94505060206127b5878288016123f2565b93505060406127c68782880161233d565b925050606085013567ffffffffffffffff8111156127e7576127e66121a1565b5b6127f38782880161274e565b91505092959194509250565b600080604083850312156128165761281561219c565b5b6000612824858286016123f2565b9250506020612835858286016123f2565b9150509250929050565b7f4e487b7100000000000000000000000000000000000000000000000000000000600052602260045260246000fd5b6000600282049050600182168061288657607f821691505b6020821081141561289a5761289961283f565b5b50919050565b7f4552433732313a20617070726f76616c20746f2063757272656e74206f776e6560008201527f7200000000000000000000000000000000000000000000000000000000000000602082015250565b60006128fc60218361226c565b9150612907826128a0565b604082019050919050565b6000602082019050818103600083015261292b816128ef565b9050919050565b7f4552433732313a20617070726f76652063616c6c6572206973206e6f7420746f60008201527f6b656e206f776e6572206e6f7220617070726f76656420666f7220616c6c0000602082015250565b600061298e603e8361226c565b915061299982612932565b604082019050919050565b600060208201905081810360008301526129bd81612981565b9050919050565b7f4552433732313a2063616c6c6572206973206e6f7420746f6b656e206f776e6560008201527f72206e6f7220617070726f766564000000000000000000000000000000000000602082015250565b6000612a20602e8361226c565b9150612a2b826129c4565b604082019050919050565b60006020820190508181036000830152612a4f81612a13565b9050919050565b7f4552433732313a20696e76616c696420746f6b656e2049440000000000000000600082015250565b6000612a8c60188361226c565b9150612a9782612a56565b602082019050919050565b60006020820190508181036000830152612abb81612a7f565b9050919050565b7f4552433732313a2061646472657373207a65726f206973206e6f74206120766160008201527f6c6964206f776e65720000000000000000000000000000000000000000000000602082015250565b6000612b1e60298361226c565b9150612b2982612ac2565b604082019050919050565b60006020820190508181036000830152612b4d81612b11565b9050919050565b7f416c726561647920766572696669656400000000000000000000000000000000600082015250565b6000612b8a60108361226c565b9150612b9582612b54565b602082019050919050565b60006020820190508181036000830152612bb981612b7d565b9050919050565b7f5468652073616c65206973207061757365642e00000000000000000000000000600082015250565b6000612bf660138361226c565b9150612c0182612bc0565b602082019050919050565b60006020820190508181036000830152612c2581612be9565b9050919050565b7f596f752063616e6e6f74206d696e742074686174206d616e7920696e206f6e6560008201527f207472616e73616374696f6e2e00000000000000000000000000000000000000602082015250565b6000612c88602d8361226c565b9150612c9382612c2c565b604082019050919050565b60006020820190508181036000830152612cb781612c7b565b9050919050565b7f4e487b7100000000000000000000000000000000000000000000000000000000600052601160045260246000fd5b6000612cf88261231c565b9150612d038361231c565b9250827fffffffffffffffffffffffffffffffffffffffffffffffffffffffffffffffff03821115612d3857612d37612cbe565b5b828201905092915050565b7f596f752063616e6e6f74206d696e742074686174206d616e7920746f74616c2e600082015250565b6000612d7960208361226c565b9150612d8482612d43565b602082019050919050565b60006020820190508181036000830152612da881612d6c565b9050919050565b7f4578636565647320746f74616c20737570706c792e0000000000000000000000600082015250565b6000612de560158361226c565b9150612df082612daf565b602082019050919050565b60006020820190508181036000830152612e1481612dd8565b9050919050565b600081905092915050565b6000612e3182612261565b612e3b8185612e1b565b9350612e4b81856020860161227d565b80840191505092915050565b6000612e638285612e26565b9150612e6f8284612e26565b91508190509392505050565b7f4f776e61626c653a206e6577206f776e657220697320746865207a65726f206160008201527f6464726573730000000000000000000000000000000000000000000000000000602082015250565b6000612ed760268361226c565b9150612ee282612e7b565b604082019050919050565b60006020820190508181036000830152612f0681612eca565b9050919050565b7f4552433732313a207472616e736665722066726f6d20696e636f72726563742060008201527f6f776e6572000000000000000000000000000000000000000000000000000000602082015250565b6000612f6960258361226c565b9150612f7482612f0d565b604082019050919050565b60006020820190508181036000830152612f9881612f5c565b9050919050565b7f4552433732313a207472616e7366657220746f20746865207a65726f2061646460008201527f7265737300000000000000000000000000000000000000000000000000000000602082015250565b6000612ffb60248361226c565b915061300682612f9f565b604082019050919050565b6000602082019050818103600083015261302a81612fee565b9050919050565b600061303c8261231c565b91506130478361231c565b92508282101561305a57613059612cbe565b5b828203905092915050565b7f4f776e61626c653a2063616c6c6572206973206e6f7420746865206f776e6572600082015250565b600061309b60208361226c565b91506130a682613065565b602082019050919050565b600060208201905081810360008301526130ca8161308e565b9050919050565b7f4552433732313a20617070726f766520746f2063616c6c657200000000000000600082015250565b600061310760198361226c565b9150613112826130d1565b602082019050919050565b60006020820190508181036000830152613136816130fa565b9050919050565b7f4552433732313a207472616e7366657220746f206e6f6e20455243373231526560008201527f63656976657220696d706c656d656e7465720000000000000000000000000000602082015250565b600061319960328361226c565b91506131a48261313d565b604082019050919050565b600060208201905081810360008301526131c88161318c565b9050919050565b60006131da8261231c565b91507fffffffffffffffffffffffffffffffffffffffffffffffffffffffffffffffff82141561320d5761320c612cbe565b5b600182019050919050565b7f4e487b7100000000000000000000000000000000000000000000000000000000600052601260045260246000fd5b60006132528261231c565b915061325d8361231c565b92508261326d5761326c613218565b5b828204905092915050565b60006132838261231c565b915061328e8361231c565b92508261329e5761329d613218565b5b828206905092915050565b7f4e487b7100000000000000000000000000000000000000000000000000000000600052603260045260246000fd5b600081519050919050565b600082825260208201905092915050565b60006132ff826132d8565b61330981856132e3565b935061331981856020860161227d565b613322816122b0565b840191505092915050565b600060808201905061334260008301876123b1565b61334f60208301866123b1565b61335c6040830185612447565b818103606083015261336e81846132f4565b905095945050505050565b600081519050613388816121d2565b92915050565b6000602082840312156133a4576133a361219c565b5b60006133b284828501613379565b91505092915050565b7f4552433732313a206d696e7420746f20746865207a65726f2061646472657373600082015250565b60006133f160208361226c565b91506133fc826133bb565b602082019050919050565b60006020820190508181036000830152613420816133e4565b9050919050565b7f4552433732313a20746f6b656e20616c7265616479206d696e74656400000000600082015250565b600061345d601c8361226c565b915061346882613427565b602082019050919050565b6000602082019050818103600083015261348c81613450565b905091905056fea2646970667358221220c9bd6167ba2fa3c2dba51dd7b50bb76bb1ad1b39ed7999baf744febef7d129ea64736f6c6343000809003368747470733a2f2f6170702e7a656576652e696f2f7a6466732d676174657761792f697066732f",
  "linkReferences": {},
  "deployedLinkReferences": {}
}