{
  "_format": "hh-sol-artifact-1",
  "contractName": "NFT_MINT",
  "sourceName": "contracts/NFT-MINT.sol",
  "abi": [
    {
      "inputs": [],
      "stateMutability": "nonpayable",
      "type": "constructor"
    },
    {
      "anonymous": false,
      "inputs": [
        {
          "indexed": true,
          "internalType": "address",
          "name": "owner",
          "type": "address"
        },
        {
          "indexed": true,
          "internalType": "address",
          "name": "approved",
          "type": "address"
        },
        {
          "indexed": true,
          "internalType": "uint256",
          "name": "tokenId",
          "type": "uint256"
        }
      ],
      "name": "Approval",
      "type": "event"
    },
    {
      "anonymous": false,
      "inputs": [
        {
          "indexed": true,
          "internalType": "address",
          "name": "owner",
          "type": "address"
        },
        {
          "indexed": true,
          "internalType": "address",
          "name": "operator",
          "type": "address"
        },
        {
          "indexed": false,
          "internalType": "bool",
          "name": "approved",
          "type": "bool"
        }
      ],
      "name": "ApprovalForAll",
      "type": "event"
    },
    {
      "anonymous": false,
      "inputs": [
        {
          "indexed": true,
          "internalType": "address",
          "name": "previousOwner",
          "type": "address"
        },
        {
          "indexed": true,
          "internalType": "address",
          "name": "newOwner",
          "type": "address"
        }
      ],
      "name": "OwnershipTransferred",
      "type": "event"
    },
    {
      "anonymous": false,
      "inputs": [
        {
          "indexed": true,
          "internalType": "address",
          "name": "from",
          "type": "address"
        },
        {
          "indexed": true,
          "internalType": "address",
          "name": "to",
          "type": "address"
        },
        {
          "indexed": true,
          "internalType": "uint256",
          "name": "tokenId",
          "type": "uint256"
        }
      ],
      "name": "Transfer",
      "type": "event"
    },
    {
      "inputs": [],
      "name": "MAX_MINT_PER_TX",
      "outputs": [
        {
          "internalType": "uint256",
          "name": "",
          "type": "uint256"
        }
      ],
      "stateMutability": "view",
      "type": "function"
    },
    {
      "inputs": [],
      "name": "MAX_TOKENS",
      "outputs": [
        {
          "internalType": "uint256",
          "name": "",
          "type": "uint256"
        }
      ],
      "stateMutability": "view",
      "type": "function"
    },
    {
      "inputs": [],
      "name": "Verifier",
      "outputs": [
        {
          "internalType": "bool",
          "name": "",
          "type": "bool"
        }
      ],
      "stateMutability": "view",
      "type": "function"
    },
    {
      "inputs": [
        {
          "internalType": "address",
          "name": "to",
          "type": "address"
        },
        {
          "internalType": "uint256",
          "name": "tokenId",
          "type": "uint256"
        }
      ],
      "name": "approve",
      "outputs": [],
      "stateMutability": "nonpayable",
      "type": "function"
    },
    {
      "inputs": [
        {
          "internalType": "address",
          "name": "owner",
          "type": "address"
        }
      ],
      "name": "balanceOf",
      "outputs": [
        {
          "internalType": "uint256",
          "name": "",
          "type": "uint256"
        }
      ],
      "stateMutability": "view",
      "type": "function"
    },
    {
      "inputs": [],
      "name": "baseUri",
      "outputs": [
        {
          "internalType": "string",
          "name": "",
          "type": "string"
        }
      ],
      "stateMutability": "view",
      "type": "function"
    },
    {
      "inputs": [],
      "name": "chekmint",
      "outputs": [
        {
          "internalType": "uint256",
          "name": "",
          "type": "uint256"
        }
      ],
      "stateMutability": "view",
      "type": "function"
    },
    {
      "inputs": [],
      "name": "flipSaleState",
      "outputs": [],
      "stateMutability": "nonpayable",
      "type": "function"
    },
    {
      "inputs": [
        {
          "internalType": "uint256",
          "name": "tokenId",
          "type": "uint256"
        }
      ],
      "name": "getApproved",
      "outputs": [
        {
          "internalType": "address",
          "name": "",
          "type": "address"
        }
      ],
      "stateMutability": "view",
      "type": "function"
    },
    {
      "inputs": [],
      "name": "getTotalSupply",
      "outputs": [
        {
          "internalType": "uint256",
          "name": "",
          "type": "uint256"
        }
      ],
      "stateMutability": "view",
      "type": "function"
    },
    {
      "inputs": [],
      "name": "getVerifiedstatus",
      "outputs": [
        {
          "internalType": "bool",
          "name": "",
          "type": "bool"
        }
      ],
      "stateMutability": "view",
      "type": "function"
    },
    {
      "inputs": [],
      "name": "getchk",
      "outputs": [
        {
          "internalType": "uint256",
          "name": "",
          "type": "uint256"
        }
      ],
      "stateMutability": "view",
      "type": "function"
    },
    {
      "inputs": [
        {
          "internalType": "address",
          "name": "owner",
          "type": "address"
        },
        {
          "internalType": "address",
          "name": "operator",
          "type": "address"
        }
      ],
      "name": "isApprovedForAll",
      "outputs": [
        {
          "internalType": "bool",
          "name": "",
          "type": "bool"
        }
      ],
      "stateMutability": "view",
      "type": "function"
    },
    {
      "inputs": [],
      "name": "isSaleActive",
      "outputs": [
        {
          "internalType": "bool",
          "name": "",
          "type": "bool"
        }
      ],
      "stateMutability": "view",
      "type": "function"
    },
    {
      "inputs": [
        {
          "internalType": "uint256",
          "name": "_numTokens",
          "type": "uint256"
        }
      ],
      "name": "mint",
      "outputs": [],
      "stateMutability": "payable",
      "type": "function"
    },
    {
      "inputs": [],
      "name": "name",
      "outputs": [
        {
          "internalType": "string",
          "name": "",
          "type": "string"
        }
      ],
      "stateMutability": "view",
      "type": "function"
    },
    {
      "inputs": [],
      "name": "owner",
      "outputs": [
        {
          "internalType": "address",
          "name": "",
          "type": "address"
        }
      ],
      "stateMutability": "view",
      "type": "function"
    },
    {
      "inputs": [
        {
          "internalType": "uint256",
          "name": "tokenId",
          "type": "uint256"
        }
      ],
      "name": "ownerOf",
      "outputs": [
        {
          "internalType": "address",
          "name": "",
          "type": "address"
        }
      ],
      "stateMutability": "view",
      "type": "function"
    },
    {
      "inputs": [],
      "name": "price",
      "outputs": [
        {
          "internalType": "uint256",
          "name": "",
          "type": "uint256"
        }
      ],
      "stateMutability": "view",
      "type": "function"
    },
    {
      "inputs": [],
      "name": "renounceOwnership",
      "outputs": [],
      "stateMutability": "nonpayable",
      "type": "function"
    },
    {
      "inputs": [
        {
          "internalType": "address",
          "name": "from",
          "type": "address"
        },
        {
          "internalType": "address",
          "name": "to",
          "type": "address"
        },
        {
          "internalType": "uint256",
          "name": "tokenId",
          "type": "uint256"
        }
      ],
      "name": "safeTransferFrom",
      "outputs": [],
      "stateMutability": "nonpayable",
      "type": "function"
    },
    {
      "inputs": [
        {
          "internalType": "address",
          "name": "from",
          "type": "address"
        },
        {
          "internalType": "address",
          "name": "to",
          "type": "address"
        },
        {
          "internalType": "uint256",
          "name": "tokenId",
          "type": "uint256"
        },
        {
          "internalType": "bytes",
          "name": "data",
          "type": "bytes"
        }
      ],
      "name": "safeTransferFrom",
      "outputs": [],
      "stateMutability": "nonpayable",
      "type": "function"
    },
    {
      "inputs": [
        {
          "internalType": "address",
          "name": "operator",
          "type": "address"
        },
        {
          "internalType": "bool",
          "name": "approved",
          "type": "bool"
        }
      ],
      "name": "setApprovalForAll",
      "outputs": [],
      "stateMutability": "nonpayable",
      "type": "function"
    },
    {
      "inputs": [
        {
          "internalType": "string",
          "name": "_baseUri",
          "type": "string"
        }
      ],
      "name": "setBaseUri",
      "outputs": [],
      "stateMutability": "nonpayable",
      "type": "function"
    },
    {
      "inputs": [
        {
          "internalType": "uint256",
          "name": "_price",
          "type": "uint256"
        }
      ],
      "name": "setPrice",
      "outputs": [],
      "stateMutability": "nonpayable",
      "type": "function"
    },
    {
      "inputs": [
        {
          "internalType": "bytes4",
          "name": "interfaceId",
          "type": "bytes4"
        }
      ],
      "name": "supportsInterface",
      "outputs": [
        {
          "internalType": "bool",
          "name": "",
          "type": "bool"
        }
      ],
      "stateMutability": "view",
      "type": "function"
    },
    {
      "inputs": [],
      "name": "symbol",
      "outputs": [
        {
          "internalType": "string",
          "name": "",
          "type": "string"
        }
      ],
      "stateMutability": "view",
      "type": "function"
    },
    {
      "inputs": [],
      "name": "test2",
      "outputs": [
        {
          "internalType": "address",
          "name": "",
          "type": "address"
        }
      ],
      "stateMutability": "view",
      "type": "function"
    },
    {
      "inputs": [
        {
          "internalType": "uint256",
          "name": "tokenId",
          "type": "uint256"
        }
      ],
      "name": "tokenURI",
      "outputs": [
        {
          "internalType": "string",
          "name": "",
          "type": "string"
        }
      ],
      "stateMutability": "view",
      "type": "function"
    },
    {
      "inputs": [],
      "name": "totalSupply",
      "outputs": [
        {
          "internalType": "uint256",
          "name": "",
          "type": "uint256"
        }
      ],
      "stateMutability": "view",
      "type": "function"
    },
    {
      "inputs": [
        {
          "internalType": "address",
          "name": "from",
          "type": "address"
        },
        {
          "internalType": "address",
          "name": "to",
          "type": "address"
        },
        {
          "internalType": "uint256",
          "name": "tokenId",
          "type": "uint256"
        }
      ],
      "name": "transferFrom",
      "outputs": [],
      "stateMutability": "nonpayable",
      "type": "function"
    },
    {
      "inputs": [
        {
          "internalType": "address",
          "name": "newOwner",
          "type": "address"
        }
      ],
      "name": "transferOwnership",
      "outputs": [],
      "stateMutability": "nonpayable",
      "type": "function"
    },
    {
      "inputs": [
        {
          "internalType": "uint256",
          "name": "",
          "type": "uint256"
        }
      ],
      "name": "verifiedUsers",
      "outputs": [
        {
          "internalType": "address",
          "name": "",
          "type": "address"
        }
      ],
      "stateMutability": "view",
      "type": "function"
    }
  ],
  "bytecode": "0x608060405267016345785d8a00006007556001600960006101000a81548160ff0219169083151502179055506000600f553480156200003d57600080fd5b506040518060400160405280600681526020017f442d4155544800000000000000000000000000000000000000000000000000008152506040518060400160405280600381526020017f44415500000000000000000000000000000000000000000000000000000000008152508160009080519060200190620000c292919062000214565b508060019080519060200190620000db92919062000214565b505050620000fe620000f26200014660201b60201c565b6200014e60201b60201c565b604051806080016040528060558152602001620039d660559139600c90805190602001906200012f92919062000214565b506001600a819055506001600d8190555062000329565b600033905090565b6000600660009054906101000a900473ffffffffffffffffffffffffffffffffffffffff16905081600660006101000a81548173ffffffffffffffffffffffffffffffffffffffff021916908373ffffffffffffffffffffffffffffffffffffffff1602179055508173ffffffffffffffffffffffffffffffffffffffff168173ffffffffffffffffffffffffffffffffffffffff167f8be0079c531659141344cd1fd0a4f28419497f9722a3daafe3b4186f6b6457e060405160405180910390a35050565b8280546200022290620002f3565b90600052602060002090601f01602090048101928262000246576000855562000292565b82601f106200026157805160ff191683800117855562000292565b8280016001018555821562000292579182015b828111156200029157825182559160200191906001019062000274565b5b509050620002a19190620002a5565b5090565b5b80821115620002c0576000816000905550600101620002a6565b5090565b7f4e487b7100000000000000000000000000000000000000000000000000000000600052602260045260246000fd5b600060028204905060018216806200030c57607f821691505b60208210811415620003235762000322620002c4565b5b50919050565b61369d80620003396000396000f3fe6080604052600436106101ee5760003560e01c80638da5cb5b1161010d578063a22cb465116100a0578063c7f78feb1161006f578063c7f78feb146106bc578063c87b56dd146106e7578063e985e9c514610724578063f2fde38b14610761578063f47c84c51461078a576101ee565b8063a22cb46514610614578063b88d4fde1461063d578063ba2bd35c14610666578063c4e41b2214610691576101ee565b80639abc8320116100dc5780639abc832014610579578063a035b1fe146105a4578063a0712d68146105cf578063a0bcfc7f146105eb576101ee565b80638da5cb5b146104cf5780638ecad721146104fa57806391b7f5ed1461052557806395d89b411461054e576101ee565b806342842e0e1161018557806366e41cb71161015457806366e41cb7146104255780636e9ea4bb1461045057806370a082311461047b578063715018a6146104b8576101ee565b806342842e0e1461036957806353ca811514610392578063564566a8146103bd5780636352211e146103e8576101ee565b8063095ea7b3116101c1578063095ea7b3146102d557806318160ddd146102fe57806323b872dd1461032957806334918dfd14610352576101ee565b806301ffc9a7146101f357806306fdde031461023057806307763ec31461025b578063081812fc14610298575b600080fd5b3480156101ff57600080fd5b5061021a600480360381019061021591906123d2565b6107b5565b604051610227919061241a565b60405180910390f35b34801561023c57600080fd5b50610245610897565b60405161025291906124ce565b60405180910390f35b34801561026757600080fd5b50610282600480360381019061027d9190612526565b610929565b60405161028f9190612594565b60405180910390f35b3480156102a457600080fd5b506102bf60048036038101906102ba9190612526565b610968565b6040516102cc9190612594565b60405180910390f35b3480156102e157600080fd5b506102fc60048036038101906102f791906125db565b6109ae565b005b34801561030a57600080fd5b50610313610ac6565b604051610320919061262a565b60405180910390f35b34801561033557600080fd5b50610350600480360381019061034b9190612645565b610acc565b005b34801561035e57600080fd5b50610367610b2c565b005b34801561037557600080fd5b50610390600480360381019061038b9190612645565b610b60565b005b34801561039e57600080fd5b506103a7610b80565b6040516103b4919061241a565b60405180910390f35b3480156103c957600080fd5b506103d2610c30565b6040516103df919061241a565b60405180910390f35b3480156103f457600080fd5b5061040f600480360381019061040a9190612526565b610c43565b60405161041c9190612594565b60405180910390f35b34801561043157600080fd5b5061043a610cf5565b6040516104479190612594565b60405180910390f35b34801561045c57600080fd5b50610465610d3c565b604051610472919061241a565b60405180910390f35b34801561048757600080fd5b506104a2600480360381019061049d9190612698565b610d90565b6040516104af919061262a565b60405180910390f35b3480156104c457600080fd5b506104cd610e48565b005b3480156104db57600080fd5b506104e4610e5c565b6040516104f19190612594565b60405180910390f35b34801561050657600080fd5b5061050f610e86565b60405161051c919061262a565b60405180910390f35b34801561053157600080fd5b5061054c60048036038101906105479190612526565b610e8b565b005b34801561055a57600080fd5b50610563610e9d565b60405161057091906124ce565b60405180910390f35b34801561058557600080fd5b5061058e610f2f565b60405161059b91906124ce565b60405180910390f35b3480156105b057600080fd5b506105b9610fbd565b6040516105c6919061262a565b60405180910390f35b6105e960048036038101906105e49190612526565b610fc3565b005b3480156105f757600080fd5b50610612600480360381019061060d91906127fa565b611308565b005b34801561062057600080fd5b5061063b6004803603810190610636919061286f565b61132a565b005b34801561064957600080fd5b50610664600480360381019061065f9190612950565b611340565b005b34801561067257600080fd5b5061067b6113a2565b604051610688919061262a565b60405180910390f35b34801561069d57600080fd5b506106a66113af565b6040516106b3919061262a565b60405180910390f35b3480156106c857600080fd5b506106d16113b9565b6040516106de919061262a565b60405180910390f35b3480156106f357600080fd5b5061070e60048036038101906107099190612526565b6113c3565b60405161071b91906124ce565b60405180910390f35b34801561073057600080fd5b5061074b600480360381019061074691906129d3565b61142b565b604051610758919061241a565b60405180910390f35b34801561076d57600080fd5b5061078860048036038101906107839190612698565b6114bf565b005b34801561079657600080fd5b5061079f611543565b6040516107ac919061262a565b60405180910390f35b60007f80ac58cd000000000000000000000000000000000000000000000000000000007bffffffffffffffffffffffffffffffffffffffffffffffffffffffff1916827bffffffffffffffffffffffffffffffffffffffffffffffffffffffff1916148061088057507f5b5e139f000000000000000000000000000000000000000000000000000000007bffffffffffffffffffffffffffffffffffffffffffffffffffffffff1916827bffffffffffffffffffffffffffffffffffffffffffffffffffffffff1916145b80610890575061088f82611549565b5b9050919050565b6060600080546108a690612a42565b80601f01602080910402602001604051908101604052809291908181526020018280546108d290612a42565b801561091f5780601f106108f45761010080835404028352916020019161091f565b820191906000526020600020905b81548152906001019060200180831161090257829003601f168201915b5050505050905090565b600e818154811061093957600080fd5b906000526020600020016000915054906101000a900473ffffffffffffffffffffffffffffffffffffffff1681565b6000610973826115b3565b6004600083815260200190815260200160002060009054906101000a900473ffffffffffffffffffffffffffffffffffffffff169050919050565b60006109b982610c43565b90508073ffffffffffffffffffffffffffffffffffffffff168373ffffffffffffffffffffffffffffffffffffffff161415610a2a576040517f08c379a0000000000000000000000000000000000000000000000000000000008152600401610a2190612ae6565b60405180910390fd5b8073ffffffffffffffffffffffffffffffffffffffff16610a496115fe565b73ffffffffffffffffffffffffffffffffffffffff161480610a785750610a7781610a726115fe565b61142b565b5b610ab7576040517f08c379a0000000000000000000000000000000000000000000000000000000008152600401610aae90612b78565b60405180910390fd5b610ac18383611606565b505050565b600a5481565b610add610ad76115fe565b826116bf565b610b1c576040517f08c379a0000000000000000000000000000000000000000000000000000000008152600401610b1390612c0a565b60405180910390fd5b610b27838383611754565b505050565b610b346119bb565b600960009054906101000a900460ff1615600960006101000a81548160ff021916908315150217905550565b610b7b83838360405180602001604052806000815250611340565b505050565b60008033905060005b600e80549050811015610c26578173ffffffffffffffffffffffffffffffffffffffff16600e8281548110610bc157610bc0612c2a565b5b9060005260206000200160009054906101000a900473ffffffffffffffffffffffffffffffffffffffff1673ffffffffffffffffffffffffffffffffffffffff161415610c1357600192505050610c2d565b8080610c1e90612c88565b915050610b89565b5060009150505b90565b600960009054906101000a900460ff1681565b6000806002600084815260200190815260200160002060009054906101000a900473ffffffffffffffffffffffffffffffffffffffff169050600073ffffffffffffffffffffffffffffffffffffffff168173ffffffffffffffffffffffffffffffffffffffff161415610cec576040517f08c379a0000000000000000000000000000000000000000000000000000000008152600401610ce390612d1d565b60405180910390fd5b80915050919050565b6000600e600081548110610d0c57610d0b612c2a565b5b9060005260206000200160009054906101000a900473ffffffffffffffffffffffffffffffffffffffff16905090565b6000600860003373ffffffffffffffffffffffffffffffffffffffff1673ffffffffffffffffffffffffffffffffffffffff16815260200190815260200160002060009054906101000a900460ff16905090565b60008073ffffffffffffffffffffffffffffffffffffffff168273ffffffffffffffffffffffffffffffffffffffff161415610e01576040517f08c379a0000000000000000000000000000000000000000000000000000000008152600401610df890612daf565b60405180910390fd5b600360008373ffffffffffffffffffffffffffffffffffffffff1673ffffffffffffffffffffffffffffffffffffffff168152602001908152602001600020549050919050565b610e506119bb565b610e5a6000611a39565b565b6000600660009054906101000a900473ffffffffffffffffffffffffffffffffffffffff16905090565b600181565b610e936119bb565b8060078190555050565b606060018054610eac90612a42565b80601f0160208091040260200160405190810160405280929190818152602001828054610ed890612a42565b8015610f255780601f10610efa57610100808354040283529160200191610f25565b820191906000526020600020905b815481529060010190602001808311610f0857829003601f168201915b5050505050905090565b600c8054610f3c90612a42565b80601f0160208091040260200160405190810160405280929190818152602001828054610f6890612a42565b8015610fb55780601f10610f8a57610100808354040283529160200191610fb5565b820191906000526020600020905b815481529060010190602001808311610f9857829003601f168201915b505050505081565b60075481565b600860003373ffffffffffffffffffffffffffffffffffffffff1673ffffffffffffffffffffffffffffffffffffffff16815260200190815260200160002060009054906101000a900460ff1615611050576040517f08c379a000000000000000000000000000000000000000000000000000000000815260040161104790612e1b565b60405180910390fd5b600960009054906101000a900460ff1661109f576040517f08c379a000000000000000000000000000000000000000000000000000000000815260040161109690612e87565b60405180910390fd5b60018111156110e3576040517f08c379a00000000000000000000000000000000000000000000000000000000081526004016110da90612f19565b60405180910390fd5b600181600b60003373ffffffffffffffffffffffffffffffffffffffff1673ffffffffffffffffffffffffffffffffffffffff168152602001908152602001600020546111309190612f39565b1115611171576040517f08c379a000000000000000000000000000000000000000000000000000000000815260040161116890612fdb565b60405180910390fd5b6000600a54905061271082826111879190612f39565b11156111c8576040517f08c379a00000000000000000000000000000000000000000000000000000000081526004016111bf90613047565b60405180910390fd5b6111d23382611aff565b81600b60003373ffffffffffffffffffffffffffffffffffffffff1673ffffffffffffffffffffffffffffffffffffffff16815260200190815260200160002060008282546112219190612f39565b9250508190555081600a600082825461123a9190612f39565b925050819055506001600f819055506001600860003373ffffffffffffffffffffffffffffffffffffffff1673ffffffffffffffffffffffffffffffffffffffff16815260200190815260200160002060006101000a81548160ff021916908315150217905550600e339080600181540180825580915050600190039060005260206000200160009091909190916101000a81548173ffffffffffffffffffffffffffffffffffffffff021916908373ffffffffffffffffffffffffffffffffffffffff1602179055505050565b6113106119bb565b80600c90805190602001906113269291906122c3565b5050565b61133c6113356115fe565b8383611b1d565b5050565b61135161134b6115fe565b836116bf565b611390576040517f08c379a000000000000000000000000000000000000000000000000000000000815260040161138790612c0a565b60405180910390fd5b61139c84848484611c8a565b50505050565b6000600e80549050905090565b6000600a54905090565b6000600d54905090565b60606113ce826115b3565b60006113d8611ce6565b905060008151116113f85760405180602001604052806000815250611423565b8061140284611cfd565b6040516020016114139291906130a3565b6040516020818303038152906040525b915050919050565b6000600560008473ffffffffffffffffffffffffffffffffffffffff1673ffffffffffffffffffffffffffffffffffffffff16815260200190815260200160002060008373ffffffffffffffffffffffffffffffffffffffff1673ffffffffffffffffffffffffffffffffffffffff16815260200190815260200160002060009054906101000a900460ff16905092915050565b6114c76119bb565b600073ffffffffffffffffffffffffffffffffffffffff168173ffffffffffffffffffffffffffffffffffffffff161415611537576040517f08c379a000000000000000000000000000000000000000000000000000000000815260040161152e90613139565b60405180910390fd5b61154081611a39565b50565b61271081565b60007f01ffc9a7000000000000000000000000000000000000000000000000000000007bffffffffffffffffffffffffffffffffffffffffffffffffffffffff1916827bffffffffffffffffffffffffffffffffffffffffffffffffffffffff1916149050919050565b6115bc81611e5e565b6115fb576040517f08c379a00000000000000000000000000000000000000000000000000000000081526004016115f290612d1d565b60405180910390fd5b50565b600033905090565b816004600083815260200190815260200160002060006101000a81548173ffffffffffffffffffffffffffffffffffffffff021916908373ffffffffffffffffffffffffffffffffffffffff160217905550808273ffffffffffffffffffffffffffffffffffffffff1661167983610c43565b73ffffffffffffffffffffffffffffffffffffffff167f8c5be1e5ebec7d5bd14f71427d1e84f3dd0314c0f7b2291e5b200ac8c7c3b92560405160405180910390a45050565b6000806116cb83610c43565b90508073ffffffffffffffffffffffffffffffffffffffff168473ffffffffffffffffffffffffffffffffffffffff16148061170d575061170c818561142b565b5b8061174b57508373ffffffffffffffffffffffffffffffffffffffff1661173384610968565b73ffffffffffffffffffffffffffffffffffffffff16145b91505092915050565b8273ffffffffffffffffffffffffffffffffffffffff1661177482610c43565b73ffffffffffffffffffffffffffffffffffffffff16146117ca576040517f08c379a00000000000000000000000000000000000000000000000000000000081526004016117c1906131cb565b60405180910390fd5b600073ffffffffffffffffffffffffffffffffffffffff168273ffffffffffffffffffffffffffffffffffffffff16141561183a576040517f08c379a00000000000000000000000000000000000000000000000000000000081526004016118319061325d565b60405180910390fd5b611845838383611eca565b611850600082611606565b6001600360008573ffffffffffffffffffffffffffffffffffffffff1673ffffffffffffffffffffffffffffffffffffffff16815260200190815260200160002060008282546118a0919061327d565b925050819055506001600360008473ffffffffffffffffffffffffffffffffffffffff1673ffffffffffffffffffffffffffffffffffffffff16815260200190815260200160002060008282546118f79190612f39565b92505081905550816002600083815260200190815260200160002060006101000a81548173ffffffffffffffffffffffffffffffffffffffff021916908373ffffffffffffffffffffffffffffffffffffffff160217905550808273ffffffffffffffffffffffffffffffffffffffff168473ffffffffffffffffffffffffffffffffffffffff167fddf252ad1be2c89b69c2b068fc378daa952ba7f163c4a11628f55a4df523b3ef60405160405180910390a46119b6838383611ecf565b505050565b6119c36115fe565b73ffffffffffffffffffffffffffffffffffffffff166119e1610e5c565b73ffffffffffffffffffffffffffffffffffffffff1614611a37576040517f08c379a0000000000000000000000000000000000000000000000000000000008152600401611a2e906132fd565b60405180910390fd5b565b6000600660009054906101000a900473ffffffffffffffffffffffffffffffffffffffff16905081600660006101000a81548173ffffffffffffffffffffffffffffffffffffffff021916908373ffffffffffffffffffffffffffffffffffffffff1602179055508173ffffffffffffffffffffffffffffffffffffffff168173ffffffffffffffffffffffffffffffffffffffff167f8be0079c531659141344cd1fd0a4f28419497f9722a3daafe3b4186f6b6457e060405160405180910390a35050565b611b19828260405180602001604052806000815250611ed4565b5050565b8173ffffffffffffffffffffffffffffffffffffffff168373ffffffffffffffffffffffffffffffffffffffff161415611b8c576040517f08c379a0000000000000000000000000000000000000000000000000000000008152600401611b8390613369565b60405180910390fd5b80600560008573ffffffffffffffffffffffffffffffffffffffff1673ffffffffffffffffffffffffffffffffffffffff16815260200190815260200160002060008473ffffffffffffffffffffffffffffffffffffffff1673ffffffffffffffffffffffffffffffffffffffff16815260200190815260200160002060006101000a81548160ff0219169083151502179055508173ffffffffffffffffffffffffffffffffffffffff168373ffffffffffffffffffffffffffffffffffffffff167f17307eab39ab6107e8899845ad3d59bd9653f200f220920489ca2b5937696c3183604051611c7d919061241a565b60405180910390a3505050565b611c95848484611754565b611ca184848484611f2f565b611ce0576040517f08c379a0000000000000000000000000000000000000000000000000000000008152600401611cd7906133fb565b60405180910390fd5b50505050565b606060405180602001604052806000815250905090565b60606000821415611d45576040518060400160405280600181526020017f30000000000000000000000000000000000000000000000000000000000000008152509050611e59565b600082905060005b60008214611d77578080611d6090612c88565b915050600a82611d70919061344a565b9150611d4d565b60008167ffffffffffffffff811115611d9357611d926126cf565b5b6040519080825280601f01601f191660200182016040528015611dc55781602001600182028036833780820191505090505b5090505b60008514611e5257600182611dde919061327d565b9150600a85611ded919061347b565b6030611df99190612f39565b60f81b818381518110611e0f57611e0e612c2a565b5b60200101907effffffffffffffffffffffffffffffffffffffffffffffffffffffffffffff1916908160001a905350600a85611e4b919061344a565b9450611dc9565b8093505050505b919050565b60008073ffffffffffffffffffffffffffffffffffffffff166002600084815260200190815260200160002060009054906101000a900473ffffffffffffffffffffffffffffffffffffffff1673ffffffffffffffffffffffffffffffffffffffff1614159050919050565b505050565b505050565b611ede83836120c6565b611eeb6000848484611f2f565b611f2a576040517f08c379a0000000000000000000000000000000000000000000000000000000008152600401611f21906133fb565b60405180910390fd5b505050565b6000611f508473ffffffffffffffffffffffffffffffffffffffff166122a0565b156120b9578373ffffffffffffffffffffffffffffffffffffffff1663150b7a02611f796115fe565b8786866040518563ffffffff1660e01b8152600401611f9b9493929190613501565b602060405180830381600087803b158015611fb557600080fd5b505af1925050508015611fe657506040513d601f19601f82011682018060405250810190611fe39190613562565b60015b612069573d8060008114612016576040519150601f19603f3d011682016040523d82523d6000602084013e61201b565b606091505b50600081511415612061576040517f08c379a0000000000000000000000000000000000000000000000000000000008152600401612058906133fb565b60405180910390fd5b805181602001fd5b63150b7a0260e01b7bffffffffffffffffffffffffffffffffffffffffffffffffffffffff1916817bffffffffffffffffffffffffffffffffffffffffffffffffffffffff1916149150506120be565b600190505b949350505050565b600073ffffffffffffffffffffffffffffffffffffffff168273ffffffffffffffffffffffffffffffffffffffff161415612136576040517f08c379a000000000000000000000000000000000000000000000000000000000815260040161212d906135db565b60405180910390fd5b61213f81611e5e565b1561217f576040517f08c379a000000000000000000000000000000000000000000000000000000000815260040161217690613647565b60405180910390fd5b61218b60008383611eca565b6001600360008473ffffffffffffffffffffffffffffffffffffffff1673ffffffffffffffffffffffffffffffffffffffff16815260200190815260200160002060008282546121db9190612f39565b92505081905550816002600083815260200190815260200160002060006101000a81548173ffffffffffffffffffffffffffffffffffffffff021916908373ffffffffffffffffffffffffffffffffffffffff160217905550808273ffffffffffffffffffffffffffffffffffffffff16600073ffffffffffffffffffffffffffffffffffffffff167fddf252ad1be2c89b69c2b068fc378daa952ba7f163c4a11628f55a4df523b3ef60405160405180910390a461229c60008383611ecf565b5050565b6000808273ffffffffffffffffffffffffffffffffffffffff163b119050919050565b8280546122cf90612a42565b90600052602060002090601f0160209004810192826122f15760008555612338565b82601f1061230a57805160ff1916838001178555612338565b82800160010185558215612338579182015b8281111561233757825182559160200191906001019061231c565b5b5090506123459190612349565b5090565b5b8082111561236257600081600090555060010161234a565b5090565b6000604051905090565b600080fd5b600080fd5b60007fffffffff0000000000000000000000000000000000000000000000000000000082169050919050565b6123af8161237a565b81146123ba57600080fd5b50565b6000813590506123cc816123a6565b92915050565b6000602082840312156123e8576123e7612370565b5b60006123f6848285016123bd565b91505092915050565b60008115159050919050565b612414816123ff565b82525050565b600060208201905061242f600083018461240b565b92915050565b600081519050919050565b600082825260208201905092915050565b60005b8381101561246f578082015181840152602081019050612454565b8381111561247e576000848401525b50505050565b6000601f19601f8301169050919050565b60006124a082612435565b6124aa8185612440565b93506124ba818560208601612451565b6124c381612484565b840191505092915050565b600060208201905081810360008301526124e88184612495565b905092915050565b6000819050919050565b612503816124f0565b811461250e57600080fd5b50565b600081359050612520816124fa565b92915050565b60006020828403121561253c5761253b612370565b5b600061254a84828501612511565b91505092915050565b600073ffffffffffffffffffffffffffffffffffffffff82169050919050565b600061257e82612553565b9050919050565b61258e81612573565b82525050565b60006020820190506125a96000830184612585565b92915050565b6125b881612573565b81146125c357600080fd5b50565b6000813590506125d5816125af565b92915050565b600080604083850312156125f2576125f1612370565b5b6000612600858286016125c6565b925050602061261185828601612511565b9150509250929050565b612624816124f0565b82525050565b600060208201905061263f600083018461261b565b92915050565b60008060006060848603121561265e5761265d612370565b5b600061266c868287016125c6565b935050602061267d868287016125c6565b925050604061268e86828701612511565b9150509250925092565b6000602082840312156126ae576126ad612370565b5b60006126bc848285016125c6565b91505092915050565b600080fd5b600080fd5b7f4e487b7100000000000000000000000000000000000000000000000000000000600052604160045260246000fd5b61270782612484565b810181811067ffffffffffffffff82111715612726576127256126cf565b5b80604052505050565b6000612739612366565b905061274582826126fe565b919050565b600067ffffffffffffffff821115612765576127646126cf565b5b61276e82612484565b9050602081019050919050565b82818337600083830152505050565b600061279d6127988461274a565b61272f565b9050828152602081018484840111156127b9576127b86126ca565b5b6127c484828561277b565b509392505050565b600082601f8301126127e1576127e06126c5565b5b81356127f184826020860161278a565b91505092915050565b6000602082840312156128105761280f612370565b5b600082013567ffffffffffffffff81111561282e5761282d612375565b5b61283a848285016127cc565b91505092915050565b61284c816123ff565b811461285757600080fd5b50565b60008135905061286981612843565b92915050565b6000806040838503121561288657612885612370565b5b6000612894858286016125c6565b92505060206128a58582860161285a565b9150509250929050565b600067ffffffffffffffff8211156128ca576128c96126cf565b5b6128d382612484565b9050602081019050919050565b60006128f36128ee846128af565b61272f565b90508281526020810184848401111561290f5761290e6126ca565b5b61291a84828561277b565b509392505050565b600082601f830112612937576129366126c5565b5b81356129478482602086016128e0565b91505092915050565b6000806000806080858703121561296a57612969612370565b5b6000612978878288016125c6565b9450506020612989878288016125c6565b935050604061299a87828801612511565b925050606085013567ffffffffffffffff8111156129bb576129ba612375565b5b6129c787828801612922565b91505092959194509250565b600080604083850312156129ea576129e9612370565b5b60006129f8858286016125c6565b9250506020612a09858286016125c6565b9150509250929050565b7f4e487b7100000000000000000000000000000000000000000000000000000000600052602260045260246000fd5b60006002820490506001821680612a5a57607f821691505b60208210811415612a6e57612a6d612a13565b5b50919050565b7f4552433732313a20617070726f76616c20746f2063757272656e74206f776e6560008201527f7200000000000000000000000000000000000000000000000000000000000000602082015250565b6000612ad0602183612440565b9150612adb82612a74565b604082019050919050565b60006020820190508181036000830152612aff81612ac3565b9050919050565b7f4552433732313a20617070726f76652063616c6c6572206973206e6f7420746f60008201527f6b656e206f776e6572206e6f7220617070726f76656420666f7220616c6c0000602082015250565b6000612b62603e83612440565b9150612b6d82612b06565b604082019050919050565b60006020820190508181036000830152612b9181612b55565b9050919050565b7f4552433732313a2063616c6c6572206973206e6f7420746f6b656e206f776e6560008201527f72206e6f7220617070726f766564000000000000000000000000000000000000602082015250565b6000612bf4602e83612440565b9150612bff82612b98565b604082019050919050565b60006020820190508181036000830152612c2381612be7565b9050919050565b7f4e487b7100000000000000000000000000000000000000000000000000000000600052603260045260246000fd5b7f4e487b7100000000000000000000000000000000000000000000000000000000600052601160045260246000fd5b6000612c93826124f0565b91507fffffffffffffffffffffffffffffffffffffffffffffffffffffffffffffffff821415612cc657612cc5612c59565b5b600182019050919050565b7f4552433732313a20696e76616c696420746f6b656e2049440000000000000000600082015250565b6000612d07601883612440565b9150612d1282612cd1565b602082019050919050565b60006020820190508181036000830152612d3681612cfa565b9050919050565b7f4552433732313a2061646472657373207a65726f206973206e6f74206120766160008201527f6c6964206f776e65720000000000000000000000000000000000000000000000602082015250565b6000612d99602983612440565b9150612da482612d3d565b604082019050919050565b60006020820190508181036000830152612dc881612d8c565b9050919050565b7f416c726561647920766572696669656400000000000000000000000000000000600082015250565b6000612e05601083612440565b9150612e1082612dcf565b602082019050919050565b60006020820190508181036000830152612e3481612df8565b9050919050565b7f5468652073616c65206973207061757365642e00000000000000000000000000600082015250565b6000612e71601383612440565b9150612e7c82612e3b565b602082019050919050565b60006020820190508181036000830152612ea081612e64565b9050919050565b7f596f752063616e6e6f74206d696e742074686174206d616e7920696e206f6e6560008201527f207472616e73616374696f6e2e00000000000000000000000000000000000000602082015250565b6000612f03602d83612440565b9150612f0e82612ea7565b604082019050919050565b60006020820190508181036000830152612f3281612ef6565b9050919050565b6000612f44826124f0565b9150612f4f836124f0565b9250827fffffffffffffffffffffffffffffffffffffffffffffffffffffffffffffffff03821115612f8457612f83612c59565b5b828201905092915050565b7f596f752063616e6e6f74206d696e742074686174206d616e7920746f74616c2e600082015250565b6000612fc5602083612440565b9150612fd082612f8f565b602082019050919050565b60006020820190508181036000830152612ff481612fb8565b9050919050565b7f4578636565647320746f74616c20737570706c792e0000000000000000000000600082015250565b6000613031601583612440565b915061303c82612ffb565b602082019050919050565b6000602082019050818103600083015261306081613024565b9050919050565b600081905092915050565b600061307d82612435565b6130878185613067565b9350613097818560208601612451565b80840191505092915050565b60006130af8285613072565b91506130bb8284613072565b91508190509392505050565b7f4f776e61626c653a206e6577206f776e657220697320746865207a65726f206160008201527f6464726573730000000000000000000000000000000000000000000000000000602082015250565b6000613123602683612440565b915061312e826130c7565b604082019050919050565b6000602082019050818103600083015261315281613116565b9050919050565b7f4552433732313a207472616e736665722066726f6d20696e636f72726563742060008201527f6f776e6572000000000000000000000000000000000000000000000000000000602082015250565b60006131b5602583612440565b91506131c082613159565b604082019050919050565b600060208201905081810360008301526131e4816131a8565b9050919050565b7f4552433732313a207472616e7366657220746f20746865207a65726f2061646460008201527f7265737300000000000000000000000000000000000000000000000000000000602082015250565b6000613247602483612440565b9150613252826131eb565b604082019050919050565b600060208201905081810360008301526132768161323a565b9050919050565b6000613288826124f0565b9150613293836124f0565b9250828210156132a6576132a5612c59565b5b828203905092915050565b7f4f776e61626c653a2063616c6c6572206973206e6f7420746865206f776e6572600082015250565b60006132e7602083612440565b91506132f2826132b1565b602082019050919050565b60006020820190508181036000830152613316816132da565b9050919050565b7f4552433732313a20617070726f766520746f2063616c6c657200000000000000600082015250565b6000613353601983612440565b915061335e8261331d565b602082019050919050565b6000602082019050818103600083015261338281613346565b9050919050565b7f4552433732313a207472616e7366657220746f206e6f6e20455243373231526560008201527f63656976657220696d706c656d656e7465720000000000000000000000000000602082015250565b60006133e5603283612440565b91506133f082613389565b604082019050919050565b60006020820190508181036000830152613414816133d8565b9050919050565b7f4e487b7100000000000000000000000000000000000000000000000000000000600052601260045260246000fd5b6000613455826124f0565b9150613460836124f0565b9250826134705761346f61341b565b5b828204905092915050565b6000613486826124f0565b9150613491836124f0565b9250826134a1576134a061341b565b5b828206905092915050565b600081519050919050565b600082825260208201905092915050565b60006134d3826134ac565b6134dd81856134b7565b93506134ed818560208601612451565b6134f681612484565b840191505092915050565b60006080820190506135166000830187612585565b6135236020830186612585565b613530604083018561261b565b818103606083015261354281846134c8565b905095945050505050565b60008151905061355c816123a6565b92915050565b60006020828403121561357857613577612370565b5b60006135868482850161354d565b91505092915050565b7f4552433732313a206d696e7420746f20746865207a65726f2061646472657373600082015250565b60006135c5602083612440565b91506135d08261358f565b602082019050919050565b600060208201905081810360008301526135f4816135b8565b9050919050565b7f4552433732313a20746f6b656e20616c7265616479206d696e74656400000000600082015250565b6000613631601c83612440565b915061363c826135fb565b602082019050919050565b6000602082019050818103600083015261366081613624565b905091905056fea264697066735822122043f7d3840628dc243c74ff28d493d8e97de13fd8972ccef970040906df8500e064736f6c6343000809003368747470733a2f2f6170702e7a656576652e696f2f7a6466732d676174657761792f697066732f516d65324434657a4d354145757247694e6b6b6a67784455443252773165473735576953456875616775424b346b",
  "linkReferences": {},
  "deployedLinkReferences": {}
}