{
  "_format": "hh-sol-artifact-1",
  "contractName": "NFT_MINT",
  "sourceName": "contracts/NFT-MINT.sol",
  "abi": [
    {
      "inputs": [],
      "stateMutability": "nonpayable",
      "type": "constructor"
    },
    {
      "anonymous": false,
      "inputs": [
        {
          "indexed": true,
          "internalType": "address",
          "name": "owner",
          "type": "address"
        },
        {
          "indexed": true,
          "internalType": "address",
          "name": "approved",
          "type": "address"
        },
        {
          "indexed": true,
          "internalType": "uint256",
          "name": "tokenId",
          "type": "uint256"
        }
      ],
      "name": "Approval",
      "type": "event"
    },
    {
      "anonymous": false,
      "inputs": [
        {
          "indexed": true,
          "internalType": "address",
          "name": "owner",
          "type": "address"
        },
        {
          "indexed": true,
          "internalType": "address",
          "name": "operator",
          "type": "address"
        },
        {
          "indexed": false,
          "internalType": "bool",
          "name": "approved",
          "type": "bool"
        }
      ],
      "name": "ApprovalForAll",
      "type": "event"
    },
    {
      "anonymous": false,
      "inputs": [
        {
          "indexed": true,
          "internalType": "address",
          "name": "previousOwner",
          "type": "address"
        },
        {
          "indexed": true,
          "internalType": "address",
          "name": "newOwner",
          "type": "address"
        }
      ],
      "name": "OwnershipTransferred",
      "type": "event"
    },
    {
      "anonymous": false,
      "inputs": [
        {
          "indexed": true,
          "internalType": "address",
          "name": "from",
          "type": "address"
        },
        {
          "indexed": true,
          "internalType": "address",
          "name": "to",
          "type": "address"
        },
        {
          "indexed": true,
          "internalType": "uint256",
          "name": "tokenId",
          "type": "uint256"
        }
      ],
      "name": "Transfer",
      "type": "event"
    },
    {
      "inputs": [],
      "name": "MAX_MINT_PER_TX",
      "outputs": [
        {
          "internalType": "uint256",
          "name": "",
          "type": "uint256"
        }
      ],
      "stateMutability": "view",
      "type": "function"
    },
    {
      "inputs": [],
      "name": "MAX_TOKENS",
      "outputs": [
        {
          "internalType": "uint256",
          "name": "",
          "type": "uint256"
        }
      ],
      "stateMutability": "view",
      "type": "function"
    },
    {
      "inputs": [
        {
          "internalType": "address",
          "name": "tp",
          "type": "address"
        }
      ],
      "name": "Verifier",
      "outputs": [
        {
          "internalType": "bool",
          "name": "",
          "type": "bool"
        }
      ],
      "stateMutability": "view",
      "type": "function"
    },
    {
      "inputs": [
        {
          "internalType": "address",
          "name": "to",
          "type": "address"
        },
        {
          "internalType": "uint256",
          "name": "tokenId",
          "type": "uint256"
        }
      ],
      "name": "approve",
      "outputs": [],
      "stateMutability": "nonpayable",
      "type": "function"
    },
    {
      "inputs": [
        {
          "internalType": "address",
          "name": "owner",
          "type": "address"
        }
      ],
      "name": "balanceOf",
      "outputs": [
        {
          "internalType": "uint256",
          "name": "",
          "type": "uint256"
        }
      ],
      "stateMutability": "view",
      "type": "function"
    },
    {
      "inputs": [],
      "name": "baseUri",
      "outputs": [
        {
          "internalType": "string",
          "name": "",
          "type": "string"
        }
      ],
      "stateMutability": "view",
      "type": "function"
    },
    {
      "inputs": [],
      "name": "chekmint",
      "outputs": [
        {
          "internalType": "uint256",
          "name": "",
          "type": "uint256"
        }
      ],
      "stateMutability": "view",
      "type": "function"
    },
    {
      "inputs": [
        {
          "internalType": "uint256",
          "name": "tokenId",
          "type": "uint256"
        }
      ],
      "name": "getApproved",
      "outputs": [
        {
          "internalType": "address",
          "name": "",
          "type": "address"
        }
      ],
      "stateMutability": "view",
      "type": "function"
    },
    {
      "inputs": [],
      "name": "getTotalSupply",
      "outputs": [
        {
          "internalType": "uint256",
          "name": "",
          "type": "uint256"
        }
      ],
      "stateMutability": "view",
      "type": "function"
    },
    {
      "inputs": [],
      "name": "getVerifiedstatus",
      "outputs": [
        {
          "internalType": "bool",
          "name": "",
          "type": "bool"
        }
      ],
      "stateMutability": "view",
      "type": "function"
    },
    {
      "inputs": [],
      "name": "getchk",
      "outputs": [
        {
          "internalType": "uint256",
          "name": "",
          "type": "uint256"
        }
      ],
      "stateMutability": "view",
      "type": "function"
    },
    {
      "inputs": [
        {
          "internalType": "address",
          "name": "owner",
          "type": "address"
        },
        {
          "internalType": "address",
          "name": "operator",
          "type": "address"
        }
      ],
      "name": "isApprovedForAll",
      "outputs": [
        {
          "internalType": "bool",
          "name": "",
          "type": "bool"
        }
      ],
      "stateMutability": "view",
      "type": "function"
    },
    {
      "inputs": [],
      "name": "isSaleActive",
      "outputs": [
        {
          "internalType": "bool",
          "name": "",
          "type": "bool"
        }
      ],
      "stateMutability": "view",
      "type": "function"
    },
    {
      "inputs": [
        {
          "internalType": "uint256",
          "name": "_numTokens",
          "type": "uint256"
        }
      ],
      "name": "mint",
      "outputs": [],
      "stateMutability": "payable",
      "type": "function"
    },
    {
      "inputs": [],
      "name": "name",
      "outputs": [
        {
          "internalType": "string",
          "name": "",
          "type": "string"
        }
      ],
      "stateMutability": "view",
      "type": "function"
    },
    {
      "inputs": [],
      "name": "owner",
      "outputs": [
        {
          "internalType": "address",
          "name": "",
          "type": "address"
        }
      ],
      "stateMutability": "view",
      "type": "function"
    },
    {
      "inputs": [
        {
          "internalType": "uint256",
          "name": "tokenId",
          "type": "uint256"
        }
      ],
      "name": "ownerOf",
      "outputs": [
        {
          "internalType": "address",
          "name": "",
          "type": "address"
        }
      ],
      "stateMutability": "view",
      "type": "function"
    },
    {
      "inputs": [],
      "name": "price",
      "outputs": [
        {
          "internalType": "uint256",
          "name": "",
          "type": "uint256"
        }
      ],
      "stateMutability": "view",
      "type": "function"
    },
    {
      "inputs": [],
      "name": "renounceOwnership",
      "outputs": [],
      "stateMutability": "nonpayable",
      "type": "function"
    },
    {
      "inputs": [
        {
          "internalType": "address",
          "name": "from",
          "type": "address"
        },
        {
          "internalType": "address",
          "name": "to",
          "type": "address"
        },
        {
          "internalType": "uint256",
          "name": "tokenId",
          "type": "uint256"
        }
      ],
      "name": "safeTransferFrom",
      "outputs": [],
      "stateMutability": "nonpayable",
      "type": "function"
    },
    {
      "inputs": [
        {
          "internalType": "address",
          "name": "from",
          "type": "address"
        },
        {
          "internalType": "address",
          "name": "to",
          "type": "address"
        },
        {
          "internalType": "uint256",
          "name": "tokenId",
          "type": "uint256"
        },
        {
          "internalType": "bytes",
          "name": "data",
          "type": "bytes"
        }
      ],
      "name": "safeTransferFrom",
      "outputs": [],
      "stateMutability": "nonpayable",
      "type": "function"
    },
    {
      "inputs": [
        {
          "internalType": "address",
          "name": "operator",
          "type": "address"
        },
        {
          "internalType": "bool",
          "name": "approved",
          "type": "bool"
        }
      ],
      "name": "setApprovalForAll",
      "outputs": [],
      "stateMutability": "nonpayable",
      "type": "function"
    },
    {
      "inputs": [
        {
          "internalType": "bytes4",
          "name": "interfaceId",
          "type": "bytes4"
        }
      ],
      "name": "supportsInterface",
      "outputs": [
        {
          "internalType": "bool",
          "name": "",
          "type": "bool"
        }
      ],
      "stateMutability": "view",
      "type": "function"
    },
    {
      "inputs": [],
      "name": "symbol",
      "outputs": [
        {
          "internalType": "string",
          "name": "",
          "type": "string"
        }
      ],
      "stateMutability": "view",
      "type": "function"
    },
    {
      "inputs": [
        {
          "internalType": "uint256",
          "name": "tokenId",
          "type": "uint256"
        }
      ],
      "name": "tokenURI",
      "outputs": [
        {
          "internalType": "string",
          "name": "",
          "type": "string"
        }
      ],
      "stateMutability": "view",
      "type": "function"
    },
    {
      "inputs": [],
      "name": "totalSupply",
      "outputs": [
        {
          "internalType": "uint256",
          "name": "",
          "type": "uint256"
        }
      ],
      "stateMutability": "view",
      "type": "function"
    },
    {
      "inputs": [
        {
          "internalType": "address",
          "name": "from",
          "type": "address"
        },
        {
          "internalType": "address",
          "name": "to",
          "type": "address"
        },
        {
          "internalType": "uint256",
          "name": "tokenId",
          "type": "uint256"
        }
      ],
      "name": "transferFrom",
      "outputs": [],
      "stateMutability": "nonpayable",
      "type": "function"
    },
    {
      "inputs": [
        {
          "internalType": "address",
          "name": "newOwner",
          "type": "address"
        }
      ],
      "name": "transferOwnership",
      "outputs": [],
      "stateMutability": "nonpayable",
      "type": "function"
    },
    {
      "inputs": [
        {
          "internalType": "uint256",
          "name": "",
          "type": "uint256"
        }
      ],
      "name": "verifiedUsers",
      "outputs": [
        {
          "internalType": "address",
          "name": "",
          "type": "address"
        }
      ],
      "stateMutability": "view",
      "type": "function"
    }
  ],
  "bytecode": "0x608060405267016345785d8a00006007556001600960006101000a81548160ff0219169083151502179055506000600f553480156200003d57600080fd5b506040518060400160405280600681526020017f442d4155544800000000000000000000000000000000000000000000000000008152506040518060400160405280600381526020017f44415500000000000000000000000000000000000000000000000000000000008152508160009080519060200190620000c292919062000214565b508060019080519060200190620000db92919062000214565b505050620000fe620000f26200014660201b60201c565b6200014e60201b60201c565b604051806080016040528060558152602001620036ee60559139600c90805190602001906200012f92919062000214565b506001600a819055506001600d8190555062000329565b600033905090565b6000600660009054906101000a900473ffffffffffffffffffffffffffffffffffffffff16905081600660006101000a81548173ffffffffffffffffffffffffffffffffffffffff021916908373ffffffffffffffffffffffffffffffffffffffff1602179055508173ffffffffffffffffffffffffffffffffffffffff168173ffffffffffffffffffffffffffffffffffffffff167f8be0079c531659141344cd1fd0a4f28419497f9722a3daafe3b4186f6b6457e060405160405180910390a35050565b8280546200022290620002f3565b90600052602060002090601f01602090048101928262000246576000855562000292565b82601f106200026157805160ff191683800117855562000292565b8280016001018555821562000292579182015b828111156200029157825182559160200191906001019062000274565b5b509050620002a19190620002a5565b5090565b5b80821115620002c0576000816000905550600101620002a6565b5090565b7f4e487b7100000000000000000000000000000000000000000000000000000000600052602260045260246000fd5b600060028204905060018216806200030c57607f821691505b60208210811415620003235762000322620002c4565b5b50919050565b6133b580620003396000396000f3fe6080604052600436106101c25760003560e01c80638da5cb5b116100f7578063b88d4fde11610095578063c87b56dd11610064578063c87b56dd14610639578063e985e9c514610676578063f2fde38b146106b3578063f47c84c5146106dc576101c2565b8063b88d4fde1461058f578063ba2bd35c146105b8578063c4e41b22146105e3578063c7f78feb1461060e576101c2565b80639abc8320116100d15780639abc8320146104f4578063a035b1fe1461051f578063a0712d681461054a578063a22cb46514610566576101c2565b80638da5cb5b146104735780638ecad7211461049e57806395d89b41146104c9576101c2565b806342842e0e116101645780636352211e1161013e5780636352211e146103b75780636e9ea4bb146103f457806370a082311461041f578063715018a61461045c576101c2565b806342842e0e146103265780635183c0501461034f578063564566a81461038c576101c2565b8063081812fc116101a0578063081812fc1461026c578063095ea7b3146102a957806318160ddd146102d257806323b872dd146102fd576101c2565b806301ffc9a7146101c757806306fdde031461020457806307763ec31461022f575b600080fd5b3480156101d357600080fd5b506101ee60048036038101906101e991906121d4565b610707565b6040516101fb919061221c565b60405180910390f35b34801561021057600080fd5b506102196107e9565b60405161022691906122d0565b60405180910390f35b34801561023b57600080fd5b5061025660048036038101906102519190612328565b61087b565b6040516102639190612396565b60405180910390f35b34801561027857600080fd5b50610293600480360381019061028e9190612328565b6108ba565b6040516102a09190612396565b60405180910390f35b3480156102b557600080fd5b506102d060048036038101906102cb91906123dd565b610900565b005b3480156102de57600080fd5b506102e7610a18565b6040516102f4919061242c565b60405180910390f35b34801561030957600080fd5b50610324600480360381019061031f9190612447565b610a1e565b005b34801561033257600080fd5b5061034d60048036038101906103489190612447565b610a7e565b005b34801561035b57600080fd5b506103766004803603810190610371919061249a565b610a9e565b604051610383919061221c565b60405180910390f35b34801561039857600080fd5b506103a1610b50565b6040516103ae919061221c565b60405180910390f35b3480156103c357600080fd5b506103de60048036038101906103d99190612328565b610b63565b6040516103eb9190612396565b60405180910390f35b34801561040057600080fd5b50610409610c15565b604051610416919061221c565b60405180910390f35b34801561042b57600080fd5b506104466004803603810190610441919061249a565b610c69565b604051610453919061242c565b60405180910390f35b34801561046857600080fd5b50610471610d21565b005b34801561047f57600080fd5b50610488610d35565b6040516104959190612396565b60405180910390f35b3480156104aa57600080fd5b506104b3610d5f565b6040516104c0919061242c565b60405180910390f35b3480156104d557600080fd5b506104de610d64565b6040516104eb91906122d0565b60405180910390f35b34801561050057600080fd5b50610509610df6565b60405161051691906122d0565b60405180910390f35b34801561052b57600080fd5b50610534610e84565b604051610541919061242c565b60405180910390f35b610564600480360381019061055f9190612328565b610e8a565b005b34801561057257600080fd5b5061058d600480360381019061058891906124f3565b6111cf565b005b34801561059b57600080fd5b506105b660048036038101906105b19190612668565b6111e5565b005b3480156105c457600080fd5b506105cd611247565b6040516105da919061242c565b60405180910390f35b3480156105ef57600080fd5b506105f8611254565b604051610605919061242c565b60405180910390f35b34801561061a57600080fd5b5061062361125e565b604051610630919061242c565b60405180910390f35b34801561064557600080fd5b50610660600480360381019061065b9190612328565b611268565b60405161066d91906122d0565b60405180910390f35b34801561068257600080fd5b5061069d600480360381019061069891906126eb565b6112d0565b6040516106aa919061221c565b60405180910390f35b3480156106bf57600080fd5b506106da60048036038101906106d5919061249a565b611364565b005b3480156106e857600080fd5b506106f16113e8565b6040516106fe919061242c565b60405180910390f35b60007f80ac58cd000000000000000000000000000000000000000000000000000000007bffffffffffffffffffffffffffffffffffffffffffffffffffffffff1916827bffffffffffffffffffffffffffffffffffffffffffffffffffffffff191614806107d257507f5b5e139f000000000000000000000000000000000000000000000000000000007bffffffffffffffffffffffffffffffffffffffffffffffffffffffff1916827bffffffffffffffffffffffffffffffffffffffffffffffffffffffff1916145b806107e257506107e1826113ee565b5b9050919050565b6060600080546107f89061275a565b80601f01602080910402602001604051908101604052809291908181526020018280546108249061275a565b80156108715780601f1061084657610100808354040283529160200191610871565b820191906000526020600020905b81548152906001019060200180831161085457829003601f168201915b5050505050905090565b600e818154811061088b57600080fd5b906000526020600020016000915054906101000a900473ffffffffffffffffffffffffffffffffffffffff1681565b60006108c582611458565b6004600083815260200190815260200160002060009054906101000a900473ffffffffffffffffffffffffffffffffffffffff169050919050565b600061090b82610b63565b90508073ffffffffffffffffffffffffffffffffffffffff168373ffffffffffffffffffffffffffffffffffffffff16141561097c576040517f08c379a0000000000000000000000000000000000000000000000000000000008152600401610973906127fe565b60405180910390fd5b8073ffffffffffffffffffffffffffffffffffffffff1661099b6114a3565b73ffffffffffffffffffffffffffffffffffffffff1614806109ca57506109c9816109c46114a3565b6112d0565b5b610a09576040517f08c379a0000000000000000000000000000000000000000000000000000000008152600401610a0090612890565b60405180910390fd5b610a1383836114ab565b505050565b600a5481565b610a2f610a296114a3565b82611564565b610a6e576040517f08c379a0000000000000000000000000000000000000000000000000000000008152600401610a6590612922565b60405180910390fd5b610a798383836115f9565b505050565b610a99838383604051806020016040528060008152506111e5565b505050565b60008082905060005b600e80549050811015610b44578173ffffffffffffffffffffffffffffffffffffffff16600e8281548110610adf57610ade612942565b5b9060005260206000200160009054906101000a900473ffffffffffffffffffffffffffffffffffffffff1673ffffffffffffffffffffffffffffffffffffffff161415610b3157600192505050610b4b565b8080610b3c906129a0565b915050610aa7565b5060009150505b919050565b600960009054906101000a900460ff1681565b6000806002600084815260200190815260200160002060009054906101000a900473ffffffffffffffffffffffffffffffffffffffff169050600073ffffffffffffffffffffffffffffffffffffffff168173ffffffffffffffffffffffffffffffffffffffff161415610c0c576040517f08c379a0000000000000000000000000000000000000000000000000000000008152600401610c0390612a35565b60405180910390fd5b80915050919050565b6000600860003373ffffffffffffffffffffffffffffffffffffffff1673ffffffffffffffffffffffffffffffffffffffff16815260200190815260200160002060009054906101000a900460ff16905090565b60008073ffffffffffffffffffffffffffffffffffffffff168273ffffffffffffffffffffffffffffffffffffffff161415610cda576040517f08c379a0000000000000000000000000000000000000000000000000000000008152600401610cd190612ac7565b60405180910390fd5b600360008373ffffffffffffffffffffffffffffffffffffffff1673ffffffffffffffffffffffffffffffffffffffff168152602001908152602001600020549050919050565b610d29611860565b610d3360006118de565b565b6000600660009054906101000a900473ffffffffffffffffffffffffffffffffffffffff16905090565b600181565b606060018054610d739061275a565b80601f0160208091040260200160405190810160405280929190818152602001828054610d9f9061275a565b8015610dec5780601f10610dc157610100808354040283529160200191610dec565b820191906000526020600020905b815481529060010190602001808311610dcf57829003601f168201915b5050505050905090565b600c8054610e039061275a565b80601f0160208091040260200160405190810160405280929190818152602001828054610e2f9061275a565b8015610e7c5780601f10610e5157610100808354040283529160200191610e7c565b820191906000526020600020905b815481529060010190602001808311610e5f57829003601f168201915b505050505081565b60075481565b600860003373ffffffffffffffffffffffffffffffffffffffff1673ffffffffffffffffffffffffffffffffffffffff16815260200190815260200160002060009054906101000a900460ff1615610f17576040517f08c379a0000000000000000000000000000000000000000000000000000000008152600401610f0e90612b33565b60405180910390fd5b600960009054906101000a900460ff16610f66576040517f08c379a0000000000000000000000000000000000000000000000000000000008152600401610f5d90612b9f565b60405180910390fd5b6001811115610faa576040517f08c379a0000000000000000000000000000000000000000000000000000000008152600401610fa190612c31565b60405180910390fd5b600181600b60003373ffffffffffffffffffffffffffffffffffffffff1673ffffffffffffffffffffffffffffffffffffffff16815260200190815260200160002054610ff79190612c51565b1115611038576040517f08c379a000000000000000000000000000000000000000000000000000000000815260040161102f90612cf3565b60405180910390fd5b6000600a549050612710828261104e9190612c51565b111561108f576040517f08c379a000000000000000000000000000000000000000000000000000000000815260040161108690612d5f565b60405180910390fd5b61109933826119a4565b81600b60003373ffffffffffffffffffffffffffffffffffffffff1673ffffffffffffffffffffffffffffffffffffffff16815260200190815260200160002060008282546110e89190612c51565b9250508190555081600a60008282546111019190612c51565b925050819055506001600f819055506001600860003373ffffffffffffffffffffffffffffffffffffffff1673ffffffffffffffffffffffffffffffffffffffff16815260200190815260200160002060006101000a81548160ff021916908315150217905550600e339080600181540180825580915050600190039060005260206000200160009091909190916101000a81548173ffffffffffffffffffffffffffffffffffffffff021916908373ffffffffffffffffffffffffffffffffffffffff1602179055505050565b6111e16111da6114a3565b83836119c2565b5050565b6111f66111f06114a3565b83611564565b611235576040517f08c379a000000000000000000000000000000000000000000000000000000000815260040161122c90612922565b60405180910390fd5b61124184848484611b2f565b50505050565b6000600e80549050905090565b6000600a54905090565b6000600d54905090565b606061127382611458565b600061127d611b8b565b9050600081511161129d57604051806020016040528060008152506112c8565b806112a784611ba2565b6040516020016112b8929190612dbb565b6040516020818303038152906040525b915050919050565b6000600560008473ffffffffffffffffffffffffffffffffffffffff1673ffffffffffffffffffffffffffffffffffffffff16815260200190815260200160002060008373ffffffffffffffffffffffffffffffffffffffff1673ffffffffffffffffffffffffffffffffffffffff16815260200190815260200160002060009054906101000a900460ff16905092915050565b61136c611860565b600073ffffffffffffffffffffffffffffffffffffffff168173ffffffffffffffffffffffffffffffffffffffff1614156113dc576040517f08c379a00000000000000000000000000000000000000000000000000000000081526004016113d390612e51565b60405180910390fd5b6113e5816118de565b50565b61271081565b60007f01ffc9a7000000000000000000000000000000000000000000000000000000007bffffffffffffffffffffffffffffffffffffffffffffffffffffffff1916827bffffffffffffffffffffffffffffffffffffffffffffffffffffffff1916149050919050565b61146181611d03565b6114a0576040517f08c379a000000000000000000000000000000000000000000000000000000000815260040161149790612a35565b60405180910390fd5b50565b600033905090565b816004600083815260200190815260200160002060006101000a81548173ffffffffffffffffffffffffffffffffffffffff021916908373ffffffffffffffffffffffffffffffffffffffff160217905550808273ffffffffffffffffffffffffffffffffffffffff1661151e83610b63565b73ffffffffffffffffffffffffffffffffffffffff167f8c5be1e5ebec7d5bd14f71427d1e84f3dd0314c0f7b2291e5b200ac8c7c3b92560405160405180910390a45050565b60008061157083610b63565b90508073ffffffffffffffffffffffffffffffffffffffff168473ffffffffffffffffffffffffffffffffffffffff1614806115b257506115b181856112d0565b5b806115f057508373ffffffffffffffffffffffffffffffffffffffff166115d8846108ba565b73ffffffffffffffffffffffffffffffffffffffff16145b91505092915050565b8273ffffffffffffffffffffffffffffffffffffffff1661161982610b63565b73ffffffffffffffffffffffffffffffffffffffff161461166f576040517f08c379a000000000000000000000000000000000000000000000000000000000815260040161166690612ee3565b60405180910390fd5b600073ffffffffffffffffffffffffffffffffffffffff168273ffffffffffffffffffffffffffffffffffffffff1614156116df576040517f08c379a00000000000000000000000000000000000000000000000000000000081526004016116d690612f75565b60405180910390fd5b6116ea838383611d6f565b6116f56000826114ab565b6001600360008573ffffffffffffffffffffffffffffffffffffffff1673ffffffffffffffffffffffffffffffffffffffff16815260200190815260200160002060008282546117459190612f95565b925050819055506001600360008473ffffffffffffffffffffffffffffffffffffffff1673ffffffffffffffffffffffffffffffffffffffff168152602001908152602001600020600082825461179c9190612c51565b92505081905550816002600083815260200190815260200160002060006101000a81548173ffffffffffffffffffffffffffffffffffffffff021916908373ffffffffffffffffffffffffffffffffffffffff160217905550808273ffffffffffffffffffffffffffffffffffffffff168473ffffffffffffffffffffffffffffffffffffffff167fddf252ad1be2c89b69c2b068fc378daa952ba7f163c4a11628f55a4df523b3ef60405160405180910390a461185b838383611d74565b505050565b6118686114a3565b73ffffffffffffffffffffffffffffffffffffffff16611886610d35565b73ffffffffffffffffffffffffffffffffffffffff16146118dc576040517f08c379a00000000000000000000000000000000000000000000000000000000081526004016118d390613015565b60405180910390fd5b565b6000600660009054906101000a900473ffffffffffffffffffffffffffffffffffffffff16905081600660006101000a81548173ffffffffffffffffffffffffffffffffffffffff021916908373ffffffffffffffffffffffffffffffffffffffff1602179055508173ffffffffffffffffffffffffffffffffffffffff168173ffffffffffffffffffffffffffffffffffffffff167f8be0079c531659141344cd1fd0a4f28419497f9722a3daafe3b4186f6b6457e060405160405180910390a35050565b6119be828260405180602001604052806000815250611d79565b5050565b8173ffffffffffffffffffffffffffffffffffffffff168373ffffffffffffffffffffffffffffffffffffffff161415611a31576040517f08c379a0000000000000000000000000000000000000000000000000000000008152600401611a2890613081565b60405180910390fd5b80600560008573ffffffffffffffffffffffffffffffffffffffff1673ffffffffffffffffffffffffffffffffffffffff16815260200190815260200160002060008473ffffffffffffffffffffffffffffffffffffffff1673ffffffffffffffffffffffffffffffffffffffff16815260200190815260200160002060006101000a81548160ff0219169083151502179055508173ffffffffffffffffffffffffffffffffffffffff168373ffffffffffffffffffffffffffffffffffffffff167f17307eab39ab6107e8899845ad3d59bd9653f200f220920489ca2b5937696c3183604051611b22919061221c565b60405180910390a3505050565b611b3a8484846115f9565b611b4684848484611dd4565b611b85576040517f08c379a0000000000000000000000000000000000000000000000000000000008152600401611b7c90613113565b60405180910390fd5b50505050565b606060405180602001604052806000815250905090565b60606000821415611bea576040518060400160405280600181526020017f30000000000000000000000000000000000000000000000000000000000000008152509050611cfe565b600082905060005b60008214611c1c578080611c05906129a0565b915050600a82611c159190613162565b9150611bf2565b60008167ffffffffffffffff811115611c3857611c3761253d565b5b6040519080825280601f01601f191660200182016040528015611c6a5781602001600182028036833780820191505090505b5090505b60008514611cf757600182611c839190612f95565b9150600a85611c929190613193565b6030611c9e9190612c51565b60f81b818381518110611cb457611cb3612942565b5b60200101907effffffffffffffffffffffffffffffffffffffffffffffffffffffffffffff1916908160001a905350600a85611cf09190613162565b9450611c6e565b8093505050505b919050565b60008073ffffffffffffffffffffffffffffffffffffffff166002600084815260200190815260200160002060009054906101000a900473ffffffffffffffffffffffffffffffffffffffff1673ffffffffffffffffffffffffffffffffffffffff1614159050919050565b505050565b505050565b611d838383611f6b565b611d906000848484611dd4565b611dcf576040517f08c379a0000000000000000000000000000000000000000000000000000000008152600401611dc690613113565b60405180910390fd5b505050565b6000611df58473ffffffffffffffffffffffffffffffffffffffff16612145565b15611f5e578373ffffffffffffffffffffffffffffffffffffffff1663150b7a02611e1e6114a3565b8786866040518563ffffffff1660e01b8152600401611e409493929190613219565b602060405180830381600087803b158015611e5a57600080fd5b505af1925050508015611e8b57506040513d601f19601f82011682018060405250810190611e88919061327a565b60015b611f0e573d8060008114611ebb576040519150601f19603f3d011682016040523d82523d6000602084013e611ec0565b606091505b50600081511415611f06576040517f08c379a0000000000000000000000000000000000000000000000000000000008152600401611efd90613113565b60405180910390fd5b805181602001fd5b63150b7a0260e01b7bffffffffffffffffffffffffffffffffffffffffffffffffffffffff1916817bffffffffffffffffffffffffffffffffffffffffffffffffffffffff191614915050611f63565b600190505b949350505050565b600073ffffffffffffffffffffffffffffffffffffffff168273ffffffffffffffffffffffffffffffffffffffff161415611fdb576040517f08c379a0000000000000000000000000000000000000000000000000000000008152600401611fd2906132f3565b60405180910390fd5b611fe481611d03565b15612024576040517f08c379a000000000000000000000000000000000000000000000000000000000815260040161201b9061335f565b60405180910390fd5b61203060008383611d6f565b6001600360008473ffffffffffffffffffffffffffffffffffffffff1673ffffffffffffffffffffffffffffffffffffffff16815260200190815260200160002060008282546120809190612c51565b92505081905550816002600083815260200190815260200160002060006101000a81548173ffffffffffffffffffffffffffffffffffffffff021916908373ffffffffffffffffffffffffffffffffffffffff160217905550808273ffffffffffffffffffffffffffffffffffffffff16600073ffffffffffffffffffffffffffffffffffffffff167fddf252ad1be2c89b69c2b068fc378daa952ba7f163c4a11628f55a4df523b3ef60405160405180910390a461214160008383611d74565b5050565b6000808273ffffffffffffffffffffffffffffffffffffffff163b119050919050565b6000604051905090565b600080fd5b600080fd5b60007fffffffff0000000000000000000000000000000000000000000000000000000082169050919050565b6121b18161217c565b81146121bc57600080fd5b50565b6000813590506121ce816121a8565b92915050565b6000602082840312156121ea576121e9612172565b5b60006121f8848285016121bf565b91505092915050565b60008115159050919050565b61221681612201565b82525050565b6000602082019050612231600083018461220d565b92915050565b600081519050919050565b600082825260208201905092915050565b60005b83811015612271578082015181840152602081019050612256565b83811115612280576000848401525b50505050565b6000601f19601f8301169050919050565b60006122a282612237565b6122ac8185612242565b93506122bc818560208601612253565b6122c581612286565b840191505092915050565b600060208201905081810360008301526122ea8184612297565b905092915050565b6000819050919050565b612305816122f2565b811461231057600080fd5b50565b600081359050612322816122fc565b92915050565b60006020828403121561233e5761233d612172565b5b600061234c84828501612313565b91505092915050565b600073ffffffffffffffffffffffffffffffffffffffff82169050919050565b600061238082612355565b9050919050565b61239081612375565b82525050565b60006020820190506123ab6000830184612387565b92915050565b6123ba81612375565b81146123c557600080fd5b50565b6000813590506123d7816123b1565b92915050565b600080604083850312156123f4576123f3612172565b5b6000612402858286016123c8565b925050602061241385828601612313565b9150509250929050565b612426816122f2565b82525050565b6000602082019050612441600083018461241d565b92915050565b6000806000606084860312156124605761245f612172565b5b600061246e868287016123c8565b935050602061247f868287016123c8565b925050604061249086828701612313565b9150509250925092565b6000602082840312156124b0576124af612172565b5b60006124be848285016123c8565b91505092915050565b6124d081612201565b81146124db57600080fd5b50565b6000813590506124ed816124c7565b92915050565b6000806040838503121561250a57612509612172565b5b6000612518858286016123c8565b9250506020612529858286016124de565b9150509250929050565b600080fd5b600080fd5b7f4e487b7100000000000000000000000000000000000000000000000000000000600052604160045260246000fd5b61257582612286565b810181811067ffffffffffffffff821117156125945761259361253d565b5b80604052505050565b60006125a7612168565b90506125b3828261256c565b919050565b600067ffffffffffffffff8211156125d3576125d261253d565b5b6125dc82612286565b9050602081019050919050565b82818337600083830152505050565b600061260b612606846125b8565b61259d565b90508281526020810184848401111561262757612626612538565b5b6126328482856125e9565b509392505050565b600082601f83011261264f5761264e612533565b5b813561265f8482602086016125f8565b91505092915050565b6000806000806080858703121561268257612681612172565b5b6000612690878288016123c8565b94505060206126a1878288016123c8565b93505060406126b287828801612313565b925050606085013567ffffffffffffffff8111156126d3576126d2612177565b5b6126df8782880161263a565b91505092959194509250565b6000806040838503121561270257612701612172565b5b6000612710858286016123c8565b9250506020612721858286016123c8565b9150509250929050565b7f4e487b7100000000000000000000000000000000000000000000000000000000600052602260045260246000fd5b6000600282049050600182168061277257607f821691505b602082108114156127865761278561272b565b5b50919050565b7f4552433732313a20617070726f76616c20746f2063757272656e74206f776e6560008201527f7200000000000000000000000000000000000000000000000000000000000000602082015250565b60006127e8602183612242565b91506127f38261278c565b604082019050919050565b60006020820190508181036000830152612817816127db565b9050919050565b7f4552433732313a20617070726f76652063616c6c6572206973206e6f7420746f60008201527f6b656e206f776e6572206e6f7220617070726f76656420666f7220616c6c0000602082015250565b600061287a603e83612242565b91506128858261281e565b604082019050919050565b600060208201905081810360008301526128a98161286d565b9050919050565b7f4552433732313a2063616c6c6572206973206e6f7420746f6b656e206f776e6560008201527f72206e6f7220617070726f766564000000000000000000000000000000000000602082015250565b600061290c602e83612242565b9150612917826128b0565b604082019050919050565b6000602082019050818103600083015261293b816128ff565b9050919050565b7f4e487b7100000000000000000000000000000000000000000000000000000000600052603260045260246000fd5b7f4e487b7100000000000000000000000000000000000000000000000000000000600052601160045260246000fd5b60006129ab826122f2565b91507fffffffffffffffffffffffffffffffffffffffffffffffffffffffffffffffff8214156129de576129dd612971565b5b600182019050919050565b7f4552433732313a20696e76616c696420746f6b656e2049440000000000000000600082015250565b6000612a1f601883612242565b9150612a2a826129e9565b602082019050919050565b60006020820190508181036000830152612a4e81612a12565b9050919050565b7f4552433732313a2061646472657373207a65726f206973206e6f74206120766160008201527f6c6964206f776e65720000000000000000000000000000000000000000000000602082015250565b6000612ab1602983612242565b9150612abc82612a55565b604082019050919050565b60006020820190508181036000830152612ae081612aa4565b9050919050565b7f416c726561647920766572696669656400000000000000000000000000000000600082015250565b6000612b1d601083612242565b9150612b2882612ae7565b602082019050919050565b60006020820190508181036000830152612b4c81612b10565b9050919050565b7f5468652073616c65206973207061757365642e00000000000000000000000000600082015250565b6000612b89601383612242565b9150612b9482612b53565b602082019050919050565b60006020820190508181036000830152612bb881612b7c565b9050919050565b7f596f752063616e6e6f74206d696e742074686174206d616e7920696e206f6e6560008201527f207472616e73616374696f6e2e00000000000000000000000000000000000000602082015250565b6000612c1b602d83612242565b9150612c2682612bbf565b604082019050919050565b60006020820190508181036000830152612c4a81612c0e565b9050919050565b6000612c5c826122f2565b9150612c67836122f2565b9250827fffffffffffffffffffffffffffffffffffffffffffffffffffffffffffffffff03821115612c9c57612c9b612971565b5b828201905092915050565b7f596f752063616e6e6f74206d696e742074686174206d616e7920746f74616c2e600082015250565b6000612cdd602083612242565b9150612ce882612ca7565b602082019050919050565b60006020820190508181036000830152612d0c81612cd0565b9050919050565b7f4578636565647320746f74616c20737570706c792e0000000000000000000000600082015250565b6000612d49601583612242565b9150612d5482612d13565b602082019050919050565b60006020820190508181036000830152612d7881612d3c565b9050919050565b600081905092915050565b6000612d9582612237565b612d9f8185612d7f565b9350612daf818560208601612253565b80840191505092915050565b6000612dc78285612d8a565b9150612dd38284612d8a565b91508190509392505050565b7f4f776e61626c653a206e6577206f776e657220697320746865207a65726f206160008201527f6464726573730000000000000000000000000000000000000000000000000000602082015250565b6000612e3b602683612242565b9150612e4682612ddf565b604082019050919050565b60006020820190508181036000830152612e6a81612e2e565b9050919050565b7f4552433732313a207472616e736665722066726f6d20696e636f72726563742060008201527f6f776e6572000000000000000000000000000000000000000000000000000000602082015250565b6000612ecd602583612242565b9150612ed882612e71565b604082019050919050565b60006020820190508181036000830152612efc81612ec0565b9050919050565b7f4552433732313a207472616e7366657220746f20746865207a65726f2061646460008201527f7265737300000000000000000000000000000000000000000000000000000000602082015250565b6000612f5f602483612242565b9150612f6a82612f03565b604082019050919050565b60006020820190508181036000830152612f8e81612f52565b9050919050565b6000612fa0826122f2565b9150612fab836122f2565b925082821015612fbe57612fbd612971565b5b828203905092915050565b7f4f776e61626c653a2063616c6c6572206973206e6f7420746865206f776e6572600082015250565b6000612fff602083612242565b915061300a82612fc9565b602082019050919050565b6000602082019050818103600083015261302e81612ff2565b9050919050565b7f4552433732313a20617070726f766520746f2063616c6c657200000000000000600082015250565b600061306b601983612242565b915061307682613035565b602082019050919050565b6000602082019050818103600083015261309a8161305e565b9050919050565b7f4552433732313a207472616e7366657220746f206e6f6e20455243373231526560008201527f63656976657220696d706c656d656e7465720000000000000000000000000000602082015250565b60006130fd603283612242565b9150613108826130a1565b604082019050919050565b6000602082019050818103600083015261312c816130f0565b9050919050565b7f4e487b7100000000000000000000000000000000000000000000000000000000600052601260045260246000fd5b600061316d826122f2565b9150613178836122f2565b92508261318857613187613133565b5b828204905092915050565b600061319e826122f2565b91506131a9836122f2565b9250826131b9576131b8613133565b5b828206905092915050565b600081519050919050565b600082825260208201905092915050565b60006131eb826131c4565b6131f581856131cf565b9350613205818560208601612253565b61320e81612286565b840191505092915050565b600060808201905061322e6000830187612387565b61323b6020830186612387565b613248604083018561241d565b818103606083015261325a81846131e0565b905095945050505050565b600081519050613274816121a8565b92915050565b6000602082840312156132905761328f612172565b5b600061329e84828501613265565b91505092915050565b7f4552433732313a206d696e7420746f20746865207a65726f2061646472657373600082015250565b60006132dd602083612242565b91506132e8826132a7565b602082019050919050565b6000602082019050818103600083015261330c816132d0565b9050919050565b7f4552433732313a20746f6b656e20616c7265616479206d696e74656400000000600082015250565b6000613349601c83612242565b915061335482613313565b602082019050919050565b600060208201905081810360008301526133788161333c565b905091905056fea264697066735822122025c0c6e8082b00c1162c05c6fa9d6e9d10ef9400ac31d29df7ea6cb21490af0664736f6c6343000809003368747470733a2f2f6170702e7a656576652e696f2f7a6466732d676174657761792f697066732f516d65324434657a4d354145757247694e6b6b6a67784455443252773165473735576953456875616775424b346b",
  "linkReferences": {},
  "deployedLinkReferences": {}
}